:020000040800F2
:1000000000C00020511B0008A9180008AB18000808
:10001000AD180008AF180008B11800080000000073
:10002000000000000000000000000000B3180008FD
:10003000B518000800000000B7180008B91800083B
:10004000991B0008991B0008991B0008991B0008C0
:10005000991B0008991B0008991B0008991B0008B0
:10006000991B0008991B0008991B0008991B0008A0
:10007000991B0008991B0008991B0008991B000890
:10008000991B0008991B0008991B0008991B000880
:10009000991B0008991B0008991B0008991B000870
:1000A000991B0008991B0008991B0008991B000860
:1000B000991B0008991B0008991B0008991B000850
:1000C000991B0008991B0008991B0008991B000840
:1000D000991B0008991B0008991B0008991B000830
:1000E000991B0008991B0008991B0008991B000820
:1000F000991B0008991B0008991B0008991B000810
:10010000991B0008991B0008991B0008991B0008FF
:10011000991B0008991B0008C1180008991B0008CA
:10012000991B0008991B0008991B0008991B0008DF
:1001300000000000000000000000000000000000BF
:1001400000000000000000000000000000000000AF
:10015000000000000000000000000000000000009F
:10016000000000000000000000000000000000008F
:10017000000000000000000000000000000000007F
:10018000000000000000000000000000000000006F
:10019000000000000000000000000000000000005F
:1001A000000000000000000000000000000000004F
:1001B000000000000000000000000000000000003F
:1001C000000000000000000000000000000000002F
:1001D000000000000000000000000000000000001F
:0401E0005FF8E0F1F3
:1001E80010B5054C237833B9044B13B10448AFF369
:1001F80000800123237010BDB80900200000000012
:1002080058B6000808B5034B1BB103490348AFF3C0
:10021800008008BD00000000BC09002058B6000896
:1002280081F0004102E000BF83F0004330B54FEA9F
:1002380041044FEA430594EA050F08BF90EA020F0C
:100248001FBF54EA000C55EA020C7FEA645C7FEA9F
:10025800655C00F0E2804FEA5454D4EB5555B8BFC2
:100268006D420CDD2C4480EA020281EA030382EA33
:10027800000083EA010180EA020281EA0303362DC5
:1002880088BF30BD11F0004F4FEA01314FF4801C98
:100298004CEA113102D0404261EB410113F0004FAA
:1002A8004FEA03334CEA133302D0524263EB430361
:1002B80094EA050F00F0A780A4F10104D5F1200EFF
:1002C8000DDB02FA0EFC22FA05F2801841F100015A
:1002D80003FA0EF2801843FA05F359410EE0A5F12E
:1002E80020050EF1200E012A03FA0EFC28BF4CF05F
:1002F800020C43FA05F3C01851EBE37101F0004515
:1003080007D54FF0000EDCF1000C7EEB00006EEB21
:100318000101B1F5801F1BD3B1F5001F0CD34908AB
:100328005FEA30004FEA3C0C04F101044FEA445202
:1003380012F5800F80F09A80BCF1004F08BF5FEA89
:10034800500C50F1000041EB045141EA050130BD69
:100358005FEA4C0C404141EB0101013C28BFB1F57B
:10036800801FE9D291F0000F04BF01460020B1FAC6
:1003780081F308BF2033A3F10B03B3F120020CDA99
:100388000C3208DD02F1140CC2F10C0201FA0CF077
:1003980021FA02F10CE002F11402D8BFC2F1200CDC
:1003A80001FA02F120FA0CFCDCBF41EA0C01904092
:1003B800E41AA2BF01EB0451294330BD6FEA0404DB
:1003C8001F3C1CDA0C340EDC04F11404C4F12002C6
:1003D80020FA04F001FA02F340EA030021FA04F3D8
:1003E80045EA030130BDC4F10C04C4F1200220FA2F
:1003F80002F001FA04F340EA0300294630BD21FA6D
:1004080004F0294630BD94F0000F83F4801306BF32
:1004180081F480110134013D4EE77FEA645C18BF26
:100428007FEA655C29D094EA050F08BF90EA020FBD
:1004380005D054EA000C04BF1946104630BD91EAB5
:10044800030F1EBF0021002030BD5FEA545C05D1B8
:100458004000494128BF41F0004130BD14F58004F7
:100468003CBF01F5801130BD01F0004545F0FE416B
:1004780041F470014FF0000030BD7FEA645C1ABFA0
:10048800194610467FEA655C1CBF0B46024650EAD7
:10049800013406BF52EA033591EA030F41F4002103
:1004A80030BD00BF90F0000F04BF0021704730B589
:1004B8004FF4806404F132044FF000054FF000015E
:1004C80050E700BF90F0000F04BF0021704730B51F
:1004D8004FF4806404F1320410F0004548BF4042F4
:1004E8004FF000013EE700BF42004FEAE2014FEA49
:1004F80031014FEA02701FBF12F07F4393F07F4F24
:1005080081F06051704732F07F4208BF704793F026
:100518007F4F04BF41F40021704730B54FF4607439
:1005280001F0004521F000411CE700BF50EA01023C
:1005380008BF704730B54FF000050AE050EA0102E5
:1005480008BF704730B511F0004502D5404261EB55
:1005580041014FF4806404F132045FEA915C3FF496
:10056800D8AE4FF003025FEADC0C18BF03325FEA33
:10057800DC0C18BF033202EBDC02C2F1200300FAE4
:1005880003FC20FA02F001FA03FE40EA0E0021FA09
:1005980002F11444BDE600BF70B54FF0FF0C4CF4F7
:1005A800E06C1CEA11541DBF1CEA135594EA0C0FA9
:1005B80095EA0C0F00F0DEF82C4481EA030621EAE4
:1005C8004C5123EA4C5350EA013518BF52EA03351F
:1005D80041F4801143F4801338D0A0FB02CE4FF0D1
:1005E8000005E1FB02E506F00042E0FB03E54FF001
:1005F8000006E1FB03569CF0000F18BF4EF0010EF9
:10060800A4F1FF04B6F5007F64F5407404D25FEAF4
:100618004E0E6D4146EB060642EAC62141EA5551A7
:100628004FEAC52040EA5E504FEACE2EB4F1FD0CE9
:1006380088BFBCF5E06F1ED8BEF1004F08BF5FEA67
:10064800500E50F1000041EB045170BD06F0004619
:1006580046EA010140EA020081EA0301B4EB5C04C6
:10066800C2BFD4EB0C0541EA045170BD41F48011BE
:100678004FF0000E013C00F3AB8014F1360FDEBFE3
:10068800002001F0004170BDC4F10004203C35DABF
:100698000C341BDC04F11404C4F1200500FA05F342
:1006A80020FA04F001FA05F240EA020001F00042E3
:1006B80021F0004110EBD37021FA04F642EB060159
:1006C8005EEA430E08BF20EAD37070BDC4F10C0483
:1006D800C4F1200500FA04F320FA05F001FA04F247
:1006E80040EA020001F0004110EBD37041F1000133
:1006F8005EEA430E08BF20EAD37070BDC4F120053E
:1007080000FA05F24EEA020E20FA04F301FA05F2A5
:1007180043EA020321FA04F001F0004121FA04F24D
:1007280020EA020000EBD3705EEA430E08BF20EA1D
:10073800D37070BD94F0000F0FD101F00046400057
:1007480041EB010111F4801F08BF013CF7D041EAD9
:10075800060195F0000F18BF704703F000465200DD
:1007680043EB030313F4801F08BF013DF7D043EAAE
:100778000603704794EA0C0F0CEA135518BF95EA64
:100788000C0F0CD050EA410618BF52EA4306D1D1EB
:1007980081EA030101F000414FF0000070BD50EA0A
:1007A800410606BF1046194652EA430619D094EA94
:1007B8000C0F02D150EA013613D195EA0C0F05D17E
:1007C80052EA03361CBF104619460AD181EA0301D2
:1007D80001F0004141F0FE4141F470014FF000008A
:1007E80070BD41F0FE4141F4780170BD70B54FF025
:1007F800FF0C4CF4E06C1CEA11541DBF1CEA1355A5
:1008080094EA0C0F95EA0C0F00F0A7F8A4EB050486
:1008180081EA030E52EA03354FEA013100F088807D
:100828004FEA03334FF0805545EA131343EA126346
:100838004FEA022245EA111545EA10654FEA0026FB
:100848000EF000419D4208BF964244F1FD0404F5B4
:10085800407402D25B084FEA3202B61A65EB030510
:100868005B084FEA32024FF480104FF4002CB6EBCD
:10087800020E75EB030E22BFB61A754640EA0C004D
:100888005B084FEA3202B6EB020E75EB030E22BF8D
:10089800B61A754640EA5C005B084FEA3202B6EBCE
:1008A800020E75EB030E22BFB61A754640EA9C008D
:1008B8005B084FEA3202B6EB020E75EB030E22BF5D
:1008C800B61A754640EADC0055EA060E18D04FEA1B
:1008D800051545EA16754FEA06164FEAC30343EABB
:1008E80052734FEAC2025FEA1C1CC0D111F4801F88
:1008F8000BD141EA00014FF000004FF0004CB6E781
:1009080011F4801F04BF01430020B4F1FD0C88BF1F
:10091800BCF5E06F3FF6AFAEB5EB030C04BFB6EB2A
:10092800020C5FEA500C50F1000041EB045170BD1D
:100938000EF0004E4EEA113114EB5C04C2BFD4EB4A
:100948000C0541EA045170BD41F480114FF0000ECE
:10095800013C90E645EA060E8DE60CEA135594EA4A
:100968000C0F08BF95EA0C0F3FF43BAF94EA0C0F4D
:100978000AD150EA01347FF434AF95EA0C0F7FF4C2
:1009880025AF104619462CE795EA0C0F06D152EA16
:1009980003353FF4FDAE1046194622E750EA4106FA
:1009A80018BF52EA43067FF4C5AE50EA41047FF40B
:1009B8000DAF52EA43057FF4EBAE12E74FEA41026E
:1009C80012F5001215D211D56FF47873B3EB625299
:1009D80012D94FEAC12343F0004343EA505311F0C0
:1009E800004F23FA02F018BF404270474FF0000052
:1009F800704750EA013005D111F0004008BF6FF090
:100A0800004070474FF00000704700BF80F0004082
:100A180002E000BF81F0004142001FBF5FEA4103CE
:100A280092EA030F7FEA226C7FEA236C6AD04FEACE
:100A38001262D2EB1363C1BFD21841404840414013
:100A4800B8BF5B42192B88BF704710F0004F40F4C5
:100A5800000020F07F4018BF404211F0004F41F4E1
:100A6800000121F07F4118BF494292EA030F3FD0AD
:100A7800A2F1010241FA03FC10EB0C00C3F12003C0
:100A880001FA03F100F0004302D5494260EB40004F
:100A9800B0F5000F13D3B0F1807F06D340084FEABA
:100AA800310102F10102FE2A51D2B1F1004F40EBAF
:100AB800C25008BF20F0010040EA03007047490017
:100AC80040EB0000013A28BFB0F5000FEDD2B0FAB4
:100AD80080FCACF1080CB2EB0C0200FA0CF0AABFD7
:100AE80000EBC25052421843BCBFD0401843704775
:100AF80092F0000F81F4000106BF80F4000001327B
:100B0800013BB5E74FEA41037FEA226C18BF7FEA51
:100B1800236C21D092EA030F04D092F0000F08BF93
:100B28000846704790EA010F1CBF0020704712F07A
:100B38007F4F04D1400028BF40F00040704712F1B9
:100B480000723CBF00F50000704700F0004343F01E
:100B5800FE4040F4000070477FEA226216BF084654
:100B68007FEA23630146420206BF5FEA412390EA17
:100B7800010F40F4800070474FF0000304E000BF0D
:100B880010F0004348BF40425FEA000C08BF7047BE
:100B980043F0964301464FF000001CE050EA010282
:100BA80008BF70474FF000030AE000BF50EA010297
:100BB80008BF704711F0004302D5404261EB410184
:100BC8005FEA010C02BF84460146002043F0B643A9
:100BD80008BFA3F18053A3F50003BCFA8CF2083ACE
:100BE800A3EBC25310DB01FA02FC634400FA02FCD7
:100BF800C2F12002BCF1004F20FA02F243EB0200DE
:100C080008BF20F00100704702F1200201FA02FC3F
:100C1800C2F1200250EA4C0021FA02F243EB020032
:100C280008BF20EADC7070474FF0FF0C1CEAD05276
:100C38001EBF1CEAD15392EA0C0F93EA0C0F6FD037
:100C48001A4480EA010C400218BF5FEA41211ED015
:100C58004FF0006343EA501043EA5111A0FB013101
:100C68000CF00040B1F5000F3EBF490041EAD371D6
:100C78005B0040EA010062F17F02FD2A1DD8B3F152
:100C8800004F40EBC25008BF20F00100704790F0C1
:100C9800000F0CF0004C08BF49024CEA502040EA13
:100CA80051207F3AC2BFD2F1FF0340EAC2507047D9
:100CB80040F400004FF00003013A5DDC12F1190F17
:100CC800DCBF00F000407047C2F10002410021FA89
:100CD80002F1C2F1200200FA02FC5FEA310040F1A1
:100CE800000053EA4C0308BF20EADC70704792F01A
:100CF800000F00F0004C02BF400010F4000F013A52
:100D0800F9D040EA0C0093F0000F01F0004C02BF4C
:100D1800490011F4000F013BF9D041EA0C018FE7BB
:100D28000CEAD15392EA0C0F18BF93EA0C0F0AD0C1
:100D380030F0004C18BF31F0004CD8D180EA0100E7
:100D480000F00040704790F0000F17BF90F0004F80
:100D5800084691F0000F91F0004F14D092EA0C0F62
:100D680001D142020FD193EA0C0F03D14B0218BFF5
:100D7800084608D180EA010000F0004040F0FE403B
:100D880040F40000704740F0FE4040F440007047D7
:100D98004FF0FF0C1CEAD0521EBF1CEAD15392EA56
:100DA8000C0F93EA0C0F69D0A2EB030280EA010C46
:100DB80049024FEA402037D04FF0805343EA1111DF
:100DC80043EA10130CF000408B4238BF5B0042F13D
:100DD8007D024FF4000C8B4224BF5B1A40EA0C00E2
:100DE800B3EB510F24BFA3EB510340EA5C00B3EB14
:100DF800910F24BFA3EB910340EA9C00B3EBD10F02
:100E080024BFA3EBD10340EADC001B0118BF5FEA53
:100E18001C1CE0D1FD2A3FF650AF8B4240EBC2507C
:100E280008BF20F0010070470CF0004C4CEA50203D
:100E38007F32C2BFD2F1FF0340EAC250704740F48C
:100E480000004FF00003013A37E792F0000F00F07E
:100E5800004C02BF400010F4000F013AF9D040EAFC
:100E68000C0093F0000F01F0004C02BF490011F490
:100E7800000F013BF9D041EA0C0195E70CEAD15388
:100E880092EA0C0F08D142027FF47DAF93EA0C0F6F
:100E98007FF470AF084676E793EA0C0F04D14B0253
:100EA8003FF44CAF08466EE730F0004C18BF31F005
:100EB800004CCAD130F000427FF45CAF31F00043FF
:100EC8007FF43CAF5FE700BF4FF0FF3C06E000BF98
:100ED8004FF0010C02E000BF4FF0010C4DF804CDBB
:100EE8004FEA40024FEA41037FEA226C18BF7FEACB
:100EF800236C11D001B052EA530C18BF90EA010FCD
:100F080058BFB2EB030088BFC81738BF6FEAE1705B
:100F180018BF40F0010070477FEA226C02D15FEAF7
:100F2800402C05D17FEA236CE4D15FEA412CE1D063
:100F38005DF8040B704700BF844608466146FFE72A
:100F48000FB5FFF7C9FF002848BF10F1000F0FBD0C
:100F58004DF808EDFFF7F4FF0CBF012000205DF805
:100F680008FB00BF4DF808EDFFF7EAFF34BF01208A
:100F780000205DF808FB00BF4DF808EDFFF7E0FF23
:100F880094BF012000205DF808FB00BF4DF808ED74
:100F9800FFF7D2FF94BF012000205DF808FB00BFD7
:100FA8004DF808EDFFF7C8FF34BF012000205DF8B9
:100FB80008FB00BF42000ED2B2F1FE4F0BD34FF038
:100FC8009E03B3EB126209D44FEA002343F00043B7
:100FD80023FA02F070474FF00000704712F1610FDA
:100FE80001D1420202D14FF0FF3070474FF00000AC
:100FF800704700BF53B94AB9002908BF00281CBF71
:101008004FF0FF314FF0FF3000F076B9ADF1080C2A
:101018006DE904CE00F006F8DDF804E0DDE902230E
:1010280004B070472DE9F047089E0D4604468846EF
:10103800002B4DD18A42944668D9B2FA82F252B155
:1010480001FA02F3C2F1200120FA01F10CFA02FCC4
:1010580041EA030894404FEA1C41B8FBF1F71FFA34
:101068008CFE01FB178807FB0EF0230C43EA0843AC
:1010780098420AD91CEB030307F1FF3580F01E8163
:10108800984240F21B81023F63441B1AB3FBF1F004
:1010980001FB103300FB0EFEA4B244EA0344A6454C
:1010A8000AD91CEB040400F1FF3380F00981A6453E
:1010B80040F20681644402380021A4EB0E0440EAA1
:1010C80007401EB10023D440C6E90043BDE8F087BD
:1010D8008B4208D9002E00F0EE800021C6E90005F9
:1010E8000846BDE8F087B3FA83F100294AD1AB423C
:1010F80002D3824200F2FC80841A65EB03030120CC
:101108009846002EE2D0C6E90048DFE702B9FFDEC4
:10111800B2FA82F2002A40F09180A1EB0C00012182
:101128004FEA1C471FFA8CFEB0FBF7F307FB1300CE
:10113800250C45EA00450EFB03F0A84208D91CEB34
:10114800050503F1FF3802D2A84200F2CE804346DB
:101158002D1AB5FBF7F007FB10550EFB00FEA4B2E5
:1011680044EA0544A64508D91CEB040400F1FF3500
:1011780002D2A64500F2B6802846A4EB0E0440EA47
:1011880003409EE7C1F120078B4022FA07FC4CEA96
:10119800030C25FA07FA4FEA1C49BAFBF9F820FABA
:1011A80007F309FB18AA8D401FFA8CFE1D4300FAAD
:1011B80001F308FB0EF02C0C44EA0A44A04202FAA0
:1011C80001F20BD91CEB040408F1FF3A80F0888087
:1011D800A04240F28580A8F102086444241AB4FBB6
:1011E800F9F009FB104400FB0EFEADB245EA0444D9
:1011F800A64508D91CEB040400F1FF356CD2A645BE
:101208006AD90238644440EA0840A0FB0295A4EB7E
:101218000E04AC42C846AE4656D353D0002E69D011
:10122800B3EB080264EB0E0422FA01F304FA07F7A1
:101238001F43CC40C6E90074002147E70CFA02FCC2
:10124800C2F1200125FA01F34FEA1C4720FA01F107
:1012580095400D43B3FBF7F107FB11331FFA8CFEE2
:10126800280C40EA034001FB0EF3834204FA02F41F
:1012780008D91CEB000001F1FF382FD283422DD989
:1012880002396044C01AB0FBF7F307FB1300ADB294
:1012980045EA004503FB0EF0A84208D91CEB0505FA
:1012A80003F1FF3816D2A84214D9023B6544281A24
:1012B80043EA014138E73146304607E72F46E4E67E
:1012C8001846F9E64B45A9D2B9EB020865EB0C0EB6
:1012D8000138A3E74346EAE7284694E74146D1E7C1
:1012E800D0467BE76444023847E7023B65442FE772
:1012F800084606E73146E9E6704700BF844641EAFA
:10130800000313F0030349D1403A23D30B68036069
:101318004B6843608B688360CB68C3600B6903616B
:101328004B6943618B698361CB69C3610B6A036253
:101338004B6A43628B6A8362CB6AC3620B6B03633B
:101348004B6B43638B6B8363CB6BC3634030403120
:10135800403ADBD230320BD30B6803604B684360F2
:101368008B688360CB68C36010301031103AF3D2B9
:101378000C3205D351F8043B40F8043B043AF9D247
:10138800043208D0D2071CBF11F8013B00F8013B1A
:1013980001D30B8803806046704700BF082A13D327
:1013A8008B07B1D010F00303AED0C3F10403D21AF7
:1013B800DB071CBF11F8013B00F8013BA4D331F84F
:1013C800023B20F8023B9FE7043AD9D3013A11F8CF
:1013D800013B00F8013BF9D20B7803704B7843705E
:1013E8008B788370604670474FF0FF3C06E000BF83
:1013F8004FF0010C02E000BF4FF0010C4DF804CD96
:101408004FEA410C7FEA6C5C4FEA430C18BF7FEA55
:101418006C5C1BD001B050EA410C0CBF52EA430C83
:1014280091EA030F02BF90EA020F0020704710F103
:10143800000F91EA030F58BF994208BF90422CBF92
:10144800D8176FEAE37040F0010070474FEA410C8B
:101458007FEA6C5C02D150EA013C07D14FEA430CA9
:101468007FEA6C5CD6D152EA033CD3D05DF8040B1A
:10147800704700BF8446104662468C46194663464C
:1014880000E000BF01B5FFF7B7FF002848BF10F123
:10149800000F01BD4DF808EDFFF7F4FF0CBF012068
:1014A80000205DF808FB00BF4DF808EDFFF7EAFFE4
:1014B80034BF012000205DF808FB00BF4DF808ED9F
:1014C800FFF7E0FF94BF012000205DF808FB00BF94
:1014D8004DF808EDFFF7CEFF94BF012000205DF81E
:1014E80008FB00BF4DF808EDFFF7C4FF34BF01202B
:1014F80000205DF808FB00BF4FEA410C7FEA6C5CF6
:1015080002D150EA013C0AD14FEA430C7FEA6C5CF5
:1015180002D152EA033C02D14FF0000070474FF06D
:10152800010070472DE9F04F8BB000240694079412
:1015380008940994574B9A6942F040029A619A6953
:1015480002F040020192019A9A6942F010029A61EF
:101558009A6902F010020292029A9A6942F0040211
:101568009A619A6902F004020392039A9A6942F016
:1015780008029A619A6902F008020492049A9A6928
:1015880042F020029A619B6903F020030593059BB2
:10159800DFF804912246A021484600F0D5FDDFF887
:1015A800FC8022461021404600F0CEFDDFF8F0B066
:1015B80022464FF42851584600F0C6FDDFF8E4A053
:1015C80022464FF40071504600F0BEFD4FF6FF73FF
:1015D80006930325079506A9334800F0C9FB42F294
:1015E800CF030693079506A9404600F0C1FB4FF6C6
:1015F8001F730693079506A9484600F0B9FBA02378
:1016080006930127079708940226099606A94846D3
:1016180000F0AEFB402306930794089406A94846B9
:1016280000F0A6FB1023069307970894099606A9CD
:10163800404600F09DFB202306930794089406A9D2
:10164800404600F095FB41F23F530693079506A9E3
:10165800504600F08DFB4DF2FB530693079506A903
:10166800584600F085FB4FF42853069307970894D3
:10167800099606A9584600F07BFB4FF400730693C1
:1016880007970894099606A9504600F071FB0BB01D
:10169800BDE8F08F00100240000801400010014032
:1016A80000140140000C01400018014008B50B4827
:1016B8000B4B03600B4B436000238360C3604FF404
:1016C8008042026143618361C361036200F0F8FFF5
:1016D80000B908BD00F03AF8FBE700BFD4090020C4
:1016E80000540040A086010010B586B00023029384
:1016F8000393049305930268114B9A4201D006B0F4
:1017080010BD104CA36943F00803A361A36903F05B
:1017180008030093009BC02302931223039303231F
:10172800059302A9084800F023FBE36943F400137A
:10173800E361E36903F400130193019BDFE700BF52
:101748000054004000100240000C014072B6FEE751
:1017580000B591B02822002106A804F043FA00231E
:1017680001930293039304930593012206924FF485
:10177800803307930A9202220D920E934FF4E013DE
:101788000F9306A801F06AFB80B90F230193022189
:101798000291002303934FF480620492059301A8F9
:1017A80001F02AFE20B911B05DF804FBFFF7CEFF67
:1017B800FFF7CCFF7047000008B50D480D4B0360DC
:1017C8004FF48273436000238360C3600361436105
:1017D8004FF400728261C3610362436283620A2329
:1017E800C36201F033FF00B908BDFFF7AFFFFBE7A5
:1017F800280A00200038004010B586B00023029364
:101808000393049305930268174B9A4201D006B0DC
:1018180010BD03F5EC33DA6942F48042DA61DA6923
:1018280002F480420092009A9A6942F008029A6192
:101838009B6903F008030193019B4FF42043029333
:101848000223039303230593084C02A9204600F0C2
:101858008FFA4FF48043029300230393049302A961
:10186800204600F085FAD2E700380040000C01401D
:1018780082B00A4B9A6942F001029A619A6902F0B1
:1018880001020092009ADA6942F08052DA61DB695B
:1018980003F080530193019B02B07047001002408F
:1018A800FEE7FEE7FEE7FEE7FEE770477047704792
:1018B80008B500F0A7F908BD08B5024802F05DF9BF
:1018C80008BD00BFCC0A00200120704708B503F00E
:1018D800B3FE162303604FF0FF3008BD08B54FF084
:1018E800FF31FFF7F3FFFEE770B50C4616460025FB
:1018F80006E0AFF30080214601F8010B01350C46E4
:10190800B542F6DB304670BD70B50C46164600256C
:1019180004E014F8010BAFF300800135B542F8DBA1
:10192800304670BD4FF0FF3070474FF400534B60A6
:1019380000207047012070470020704710B503460B
:101948000C4A0D490D48006840B10C480068034432
:10195800521A934206D8094A136010BD0748084C2A
:101968000460F2E703F068FE0C2303604FF0FF30D9
:10197800F3E700BF00C0002000100000800A00202C
:10198800880B00207047000000B583B00023009347
:1019980001930F480F4A026040F2CF2242608360F1
:1019A80040F2E732C260836102F0F0F950B90023D7
:1019B800009301936946064802F098FF28B903B0DE
:1019C8005DF804FBFFF7C2FEF1E7FFF7BFFEF6E79D
:1019D800CC0A00200010004000B583B00368B3F1C2
:1019E800804F05D0124A93420ED003B05DF804FB35
:1019F80003F50433DA6942F00102DA61DB6903F0C6
:101A080001030093009BF0E70A4BDA6942F01002E9
:101A1800DA61DB6903F010030193019B0022114690
:101A2800362000F033F9362000F076F9DDE700BF04
:101A3800001000400010024000B587B00023029358
:101A48000393049305930368B3F1804F02D007B062
:101A58005DF804FB03F504339A6942F008029A61C1
:101A68009B6903F008030193019B4FF40063029301
:101A780002230393059302A9064800F079F9064A60
:101A8800536823F4407343F0E06343F400735360F6
:101A9800DDE700BF000C01400000014000B58FB039
:101AA80000230A930B930C930D93089309930193C6
:101AB80002930393049305930693079321484FF0E9
:101AC8008042026040F2CF22426083606422C2609A
:101AD8000361836102F05AF928BB4FF480530A93DB
:101AE8000AA9184802F0F4FB00BB164802F0DAF91C
:101AF800F8B900230893099308A9124802F0F6FEE2
:101B0800D0B96023019300230293039305930C2219
:101B180001A90C4802F0B2FA88B90A48FFF78CFF0D
:101B28000FB05DF804FBFFF711FED6E7FFF70EFED6
:101B3800DBE7FFF70BFEDCE7FFF708FEE1E7FFF75F
:101B480005FEEAE7840A0020FFF71CFF0B480C4952
:101B58000C4A002302E0D458C4500433C4188C4201
:101B6800F9D3094A094C002301E013600432A24268
:101B7800FBD303F067FD03F04BFD70470000002026
:101B8800B809002054EC0008B8090020840B002094
:101B9800FEE7000010B504460E4B18784FF47A7330
:101BA800B3FBF0F30C4A1068B0FBF3F000F0CCF88C
:101BB80068B90F2C01D901200AE0002221464FF014
:101BC800FF3000F063F8054B1C60002000E00120A6
:101BD80010BD00BF04000020000000200800002005
:101BE80008B5074A136843F010031360032000F098
:101BF8002FF80F20FFF7CEFFFFF73AFE002008BDB1
:101C080000200240034A1168034B1B780B44136001
:101C1800704700BF140B002004000020014B186817
:101C2800704700BF140B002038B50446FFF7F6FFD5
:101C38000546B4F1FF3F02D0044B1B781C44FFF764
:101C4800EDFF401BA042FAD338BD00BF04000020BE
:101C580010B50446C31E042B0FD80A4AD36823F4D0
:101C6800E0631B041B0C240204F4E064234343F0E8
:101C7800BF6343F40033D36010BD91210248FFF7DE
:101C880099FDEAE700ED00E088B6000870B5054662
:101C98000C4616460F2A25D80F2C28D81B4BDB6874
:101CA800C3F30223C3F10701042928BF04211A1D25
:101CB800062A21D9033B4FF0FF3202FA01F124EA48
:101CC80001049C4002FA03F326EA03063443002D7C
:101CD80014DB2401E4B205F1604505F5614585F89A
:101CE800004370BDA9210A48FFF764FDD4E7AA2183
:101CF8000748FFF75FFDD1E70023DCE705F00F0594
:101D08002401E4B2034B5C55EBE700BF00ED00E0B3
:101D180088B6000814ED00E010B5041E0ADB002C9C
:101D280007DB04F01F02640901239340044A42F8C8
:101D3800243010BDBD210348FFF73CFDEFE700BF8D
:101D480000E100E088B600080138B0F1807F0BD2CE
:101D58004FF0E0235861054AF02182F82310002053
:101D6800986107221A6170470120704700ED00E072
:101D78002DE9F04383B007460E46884B98421BD0A6
:101D880003F58063984217D003F58063984213D017
:101D980003F5806398420FD003F5806398420BD017
:101DA80003F58063984207D003F58063984203D017
:101DB800BD217B48FFF7FEFC33689AB212B11B0CB9
:101DC8001B041BB1BE217648FFF7F4FC7368012B96
:101DD8001ED9112B1CD0022B1AD0122B18D0714AE5
:101DE800934215D002F58012934211D002F5801269
:101DF80093420DD0A2F5F812934209D002F5801251
:101E0800934205D002F58012934201D0032B03D1EF
:101E18004FF000094D46FDE0BF216148FFF7CAFCBD
:101E2800F6E7614A934210D007D9604A93420CD032
:101E380002F58032934208D01AE0A2F5801293424C
:101E480003D002F5702293420ED1B368022B00F240
:101E58008D80B368002B00F09580012B00F08B80FB
:101E68007C614FF0080903E0A2F580129342ECD0A0
:101E7800B8F1FF0F00F289803846B8F1FF0F00F281
:101E88008680AA0003680F21914023EA010309FA1A
:101E980002F213430360736813F0805F00F0B980A7
:101EA800434B9A6942F001029A619B6903F001036E
:101EB8000193019BAA08911C3E4B53F8210005F0A1
:101EC800030399000F238B4020EA0300334B9F4202
:101ED80072D003F580639F4200F0F68003F58063BB
:101EE8009F4200F0F38003F580639F4200F0F0808A
:101EF80003F580639F4200F0ED8003F580639F4205
:101F080049D0062359E0F368013B022B02D8D6F8E2
:101F18000C90ADE7D5212248FFF74CFCF7E7F368B2
:101F2800013B022B03D8F36803F10409A0E7DC2185
:101F38001B48FFF73FFCF6E7F368013B022B03D889
:101F4800F36803F1080993E7E3211548FFF732FC2A
:101F5800F6E7F368013B022B03D8F36803F10C0999
:101F680086E7EA210E48FFF725FCF6E7F7210C483B
:101F7800FFF720FC6DE73C614FF0080978E74FF068
:101F8800000975E74FF0040972E7381D75E7A5F1F8
:101F98000802920076E705230FE000BF0008014021
:101FA800D8B60008000011100000221000003110FF
:101FB800001002400000014000238B40034302321E
:101FC800534941F82230736813F4801F00F084806D
:101FD800504A936843EA08039360736813F4001F38
:101FE80000F080804B4AD36843EA0803D3607368E3
:101FF80013F4003F7CD0474A536843EA0803536010
:10200800736813F4803F79D0424A136843EA08039F
:1020180013600135336833FA05F275D00124AC40FA
:1020280003EA040834EA0303F3D13B4B9F421BD075
:1020380003F580639F4217D003F580639F4213D056
:1020480003F580639F420FD003F580639F420BD056
:1020580003F580639F4207D003F580639F4203D056
:10206800CD212E48FFF7A6FB7368122B3FF6D9AE99
:10207800122B3FF6FDAE01A252F823F0531E0008C2
:102088000F1F0008411F0008871F0008791E00085D
:10209800791E0008791E0008791E0008791E0008BC
:1020A800791E0008791E0008791E0008791E0008AC
:1020B800791E0008791E0008791E0008791E00089C
:1020C800271F00085B1F0008012376E7022374E737
:1020D800032372E7042370E70E4A936823EA080390
:1020E80093607AE70B4AD36823EA0803D3607EE754
:1020F800084A536823EA0803536081E7054A1368CE
:1021080023EA0803136084E703B0BDE8F08300BF47
:10211800000001400004014000080140D8B6000852
:1021280038B504460D4621B1A3681D4207D00120E9
:1021380038BD4FF4DA710348FFF73CFBF4E70020A1
:10214800F6E700BFD8B6000870B5054614460E4637
:1021580021B1012C08D86CB12E6170BD4FF4EA7121
:102168000648FFF727FBF4E740F2D5110348FFF7CD
:1021780021FBF0E736042E61EFE700BFD8B6000870
:1021880038B505460C4641B1EB6804EA030224EA77
:10219800030444EA02442C6138BD4FF4F671024846
:1021A800FFF708FBF0E700BFD8B6000803685A69D4
:1021B80012F4806F01D1002070476FF480625A6179
:1021C80000230363202280F83D2080F83E30026C13
:1021D80042F00402026480F83C30012070472DE987
:1021E800F04106460C46174698463BE0FFF716FDB9
:1021F800069BC01A404502D8B8F1000F32D1012D14
:1022080018D033689B6924EA03039BB2B3FA83F3BB
:102218005B099F4226D100233363202286F83D20A4
:1022280086F83E30326C42F02002326486F83C3048
:10223800012027E033685B6924EA03039BB2B3FA01
:1022480083F35B09E5E733685B6924EA030C1FFA4B
:102258008CFCBCFA8CFC4FEA5C1C674511D1B8F1C8
:10226800FF3FC3D1C4F30745012DECD033689B6908
:1022780024EA030C1FFA8CFCBCFA8CFC4FEA5C1CA9
:10228800EBE70020BDE8F0812DE9F84305460E464E
:102298009046994653E01A6842F400721A602B6817
:1022A8006FF480625A6100232B63202285F83D2059
:1022B80085F83E302A6C42F004022A6485F83C30E6
:1022C80001204AE0FFF7AAFCA0EB0900404502D82C
:1022D800B8F1000F33D1012F17D02B689B6926EA7C
:1022E80003039BB2003B18BF012343B300232B63B6
:1022F800202285F83D2085F83E302A6C42F02002E5
:102308002A6485F83C30012027E02B685B6926EABF
:1023180003039BB2003B18BF0123E6E72B689C69C7
:1023280026EA0404A4B2003C18BF0124A4B12B6817
:102338005A6912F4806FAED1B8F1FF3FC2D1C6F32B
:102348000747012FEAD12B685C6926EA0404A4B286
:10235800003C18BF0124E9E70020BDE8F88370B508
:1023680004460D46164623685B6913F0800F21D199
:102378002046FFF71BFFF8B9B5F1FF3FF3D0FFF791
:102388004DFC801BA84201D8002DECD123685B6965
:1023980013F0800FE7D100232363202284F83D2027
:1023A80084F83E30226C42F02002226484F83C30EB
:1023B800012000E0002070BD0120FCE72DE9F0437A
:1023C80085B004460D4691461F46DDF830800D9EC7
:1023D8000368196841F48071196000964346002229
:1023E8004FF00111FFF7FBFE60B9236805F0FE0509
:1023F8001D613346424626492046FFF745FF68B12E
:10240800012008E023681B6813F4807F02D04FF492
:1024180000732364032005B0BDE8F0830023039311
:1024280023685A6903929B690393039B324641468A
:102438002046FFF794FF30B9012F0FD123685FFAC8
:1024480089F61E61E7E7236C042B01D00120E2E73F
:102458002268136843F400731360F7E723684FEAB0
:1024680019221A61324641462046FFF778FF20B903
:1024780023685FFA89F61E61CDE7236C042B01D02F
:102488000120C8E72268136843F400731360F7E774
:10249800020001002DE9F04784B004460D461646B7
:1024A80099460C9FDDF834800268136843F4806312
:1024B80013600368196841F480711960CDF80080D1
:1024C8003B4600224FF00111FFF789FE70B95FFA11
:1024D80085FA236805F0FE051D6143463A464149E1
:1024E8002046FFF7D1FE68B1012008E023681B6889
:1024F80013F4807F02D04FF400732364032004B0E8
:10250800BDE8F0870023039323685A6903929B6907
:102518000393039B424639462046FFF720FF80B9C4
:10252800B9F1010F18D12368F6B21E614246394647
:102538002046FFF714FF68B3236C042B24D0012036
:10254800DDE7236C042B01D00120D8E7226813684B
:1025580043F400731360F7E72368320A1A614246AE
:1025680039462046FFF7FBFE18B92368F6B21E610C
:10257800DCE7236C042B01D00120C0E72268136834
:1025880043F400731360F7E72268136843F4007399
:102598001360D4E72268136843F480731360CDF89E
:1025A80000803B4600224FF001112046FFF717FE3E
:1025B80068B922684AF00103136143463A4609495B
:1025C8002046FFF761FE002899D0012097E723688D
:1025D8001B6813F4807F02D04FF400732364032038
:1025E8008DE700BF0200010070B504460D4616468F
:1025F80023685B6913F0040F21D12046FFF7D6FD4D
:10260800F8B9B5F1FF3FF3D0FFF708FB801BA842EC
:1026180001D8002DECD123685B6913F0040FE7D1D2
:1026280000232363202284F83D2084F83E30226C66
:1026380042F02002226484F83C30012000E00020AF
:1026480070BD0120FCE770B504460D46164614E03F
:102658006FF010025A6100232363202284F83D2082
:1026680084F83E30226C226484F83C30012025E056
:1026780023685B6913F0400F10D02368586910F085
:10268800400F1AD1586910F0100FE1D1FFF7C6FAC0
:10269800801BA842ECD8002DEFD1E9E70023236383
:1026A800202284F83D2084F83E30226C42F020023B
:1026B800226484F83C30012000E0002070BD000056
:1026C800002800F0328170B504460368994A9342A5
:1026D80008D002F58062934204D040F2DB1196489C
:1026E800FFF768F86368013B944A934271D8A3687E
:1026F80013B1B3F5804F72D1E36823F47F7323F0ED
:102708000303002B71D12369B3F5804F02D0B3F5D1
:10271800404F70D16369012B73D8A36933F0FE036E
:1027280075D1E3690BB1402B77D1236A0BB1802BAC
:1027380079D194F83D30002B7BD0242384F83D30A8
:102748002268136823F0010313602268136843F4B6
:10275800004313602268136823F40043136000F0F9
:1027680065FF6268764B9A4269D8764B98428CBF6F
:1027780000230123002B40F0DA807349A1FB0031CC
:102788008B0C25686A6822F03F0242EA91426A602F
:1027980021680A6A22F03F026668694DAE4254D841
:1027A800013313430B622168CA6922F44F4222F0B5
:1027B800FF026668624B9E4251D8431E7600B3FB07
:1027C800F6F3013340F6FC7003427ED0C3F30B03EB
:1027D8007CE04FF4EE715848FEF7ECFF87E740F2D3
:1027E800DD115548FEF7E6FF86E74FF4EF715248D2
:1027F800FEF7E0FF87E740F2DF114F48FEF7DAFF08
:1028080088E74FF4F0714C48FEF7D4FF85E740F2B3
:10281800E1114948FEF7CEFF83E74FF4F1714648CE
:10282800FEF7C8FF81E740F2E3114348FEF7C2FF15
:102838007FE784F83C302046FEF756FF7DE7434BA0
:1028480098428CBF0023012394E74FF4967505FB4B
:1028580003F33F4DA5FB03539B090133A1E7A3688D
:10286800C3B9451E06EB460CB5FBFCF50135C5F3AF
:102878000B05B5FA85F56D09002D54D1C3B901389A
:1028880006EB4603B0FBF3F30133C3F30B0343F446
:1028980000431BE0451E06EB860C0CEB8C0CB5FBCD
:1028A800FCF50135C5F30B05B5FA85F56D09E3E7C8
:1028B800013806EB860303EB8303B0FBF3F3013324
:1028C800C3F30B0343F4404300E004231343CB61F9
:1028D80021680B6823F0C003E269206A02431343AE
:1028E8000B6021688B6823F4034323F0FF032269FC
:1028F800E068024313438B602168CB6823F0FF0331
:102908006269A06902431343CB602268136843F0ED
:102918000103136000202064202384F83D302063E5
:1029280084F83E0070BD0123D0E7012070470120E4
:10293800F8E700BF0054004024B700087F1A0600DB
:10294800A08601007F841E0083DE1B43FF083D0034
:10295800D34D62102DE9F04383B004468846914672
:102968001F460C9EFFF75AF90546012F01D0102F7C
:1029780008D194F83D30DBB2202B09D0022003B0F7
:10298800BDE8F08340F606214E48FEF713FFF0E756
:102998000095192301224C492046FFF720FC002806
:1029A80040F0898094F83C30012B00F086800123A8
:1029B80084F83C3023681A6812F0010F03D11A68B2
:1029C80042F001021A602268136823F4006313605E
:1029D800212384F83D30402384F83E3000232364CB
:1029E8000A9B6362BDF82C306385638D2385374B62
:1029F800E362019500963B464A4641462046FFF76A
:102A0800DDFC00285BD1238D002B35D02A463146CA
:102A18002046FFF7A4FC20BB626A236812781A617B
:102A2800626A531C6362218D013989B22185638DE5
:102A38009BB2013B9BB263852368586910F0040F71
:102A4800E1D00029DFD052781A61636A01336362EA
:102A5800238D013B2385638D9BB2013B9BB263852C
:102A6800D1E7236C042B01D0012088E72268136882
:102A780043F400731360F7E72A4631462046FFF710
:102A8800B3FD50B1236C042B01D0012077E72268F5
:102A9800136843F400731360F7E72268136843F47C
:102AA80000731360202384F83D30002384F83E30FF
:102AB80084F83C3063E7022061E702205FE70120E9
:102AC8005DE700BF24B70008020010000000FFFF08
:102AD8002DE9F04389B00446884691461F46129E68
:102AE80000230793FFF79AF80546012F01D0102F0E
:102AF80009D194F83D30DBB2202B0AD002273846A2
:102B080009B0BDE8F08340F683218548FEF752FE00
:102B1800EFE700951923012282492046FFF75FFB62
:102B2800002840F0748194F83C30012B00F071814A
:102B3800012384F83C3023681A6812F0010F03D18E
:102B48001A6842F001021A602268136823F40063CD
:102B58001360222384F83D30402384F83E3000235C
:102B68002364109B6362BDF844306385638D2385BD
:102B78006D4BE362019500963B464A464146204626
:102B8800FFF788FC0746002840F04581238D5BB994
:102B9800039323685A6903929A690392039A1A68FD
:102BA80042F400721A60EFE0012B0FD0022B21D003
:102BB8002268136843F48063136000230693236834
:102BC8005A6906929B690693069BDDE022681368A2
:102BD80023F48063136072B60023049323685A6950
:102BE80004929A690492049A1A6842F400721A606C
:102BF80062B6C9E02268136843F40063136072B6D2
:102C08000023059323685A6905929A690592059AE3
:102C18001A6822F480621A6062B6B5E02A46314624
:102C28002046FFF710FD002840F0F78023681A6956
:102C3800636A1A70636A01336362238D013B2385DB
:102C4800638D9BB2013B9BB263859DE00095334643
:102C5800002236492046FFF7C2FA002840F0E180FA
:102C68002268136823F48063136072B623681A69B4
:102C7800636A1A70636A01336362238D013B23859B
:102C8800638D9BB2013B9BB26385294B1B68DB08B4
:102C9800284AA2FB03231B0A03EB8303C3EBC303EA
:102CA8000793079B013B0793079B002B28D02368BA
:102CB8005A6912F0040FF4D01A6842F400721A60CC
:102CC80023681A69636A1A70636A01336362238D21
:102CD800013B2385638D9BB2013B9BB2638562B642
:102CE80023681A69636A1A70636A01336362238D01
:102CF800013B2385638D9BB2013B9BB2638543E017
:102D08002363202284F83D2084F83E30226C42F070
:102D18002002226462B684F83C300127EFE600BF47
:102D280024B70008020010000000FFFF04000100A3
:102D38000000002089B5F8142A4631462046FFF7DE
:102D480082FC00286FD123681A69636A1A70626A64
:102D5800531C6362238D013B2385638D9BB2013B2A
:102D68009BB263852368596911F0040F0CD01B6965
:102D78005370636A01336362238D013B2385638D3E
:102D88009BB2013B9BB26385238D002B36D0032B6E
:102D9800D2D8012B3FF442AF022B7FF457AF0095F6
:102DA8003346002221492046FFF719FA002836D178
:102DB80072B62268136843F40073136023681A69B3
:102DC800636A1A70636A01336362238D013B23854A
:102DD800638D9BB2013B9BB2638562B623681A6917
:102DE800636A1A70636A01336362238D013B23852A
:102DF800638D9BB2013B9BB26385C5E7202384F8B2
:102E08003D30002384F83E3084F83C3077E60227D2
:102E180075E6022773E6012771E601276FE60127A9
:102E28006DE601276BE6012769E600BF0400010093
:102E380082B0084B1B68084AA2FB03235B0A00FB0D
:102E480003F3019300BF019B5A1E0192002BF9D195
:102E580002B0704700000020D34D6210002800F037
:102E6800898270B582B00446036813B113F00F0F5E
:102E78002AD0236813F0010F40D063682BB1B3F553
:102E8800803F02D0B3F5A02F24D19C4B5B6803F0A0
:102E98000C03042B29D0994B5B6803F00C03082B17
:102EA8001ED06368B3F5803F55D0002B69D103F17C
:102EB800804303F504331A6822F480321A601A68D2
:102EC80022F480221A604BE040F265118C48FEF72C
:102ED80071FCCEE740F26B118948FEF76BFCD4E732
:102EE800864B5B6813F4803FDBD0844B1B6813F47C
:102EF800003F03D06368002B00F03E82236813F084
:102F0800020F00F089802369012B63D863691F2BA6
:102F180066D87A4B5B6813F00C0F6CD0774B5B6804
:102F280003F00C03082B61D02369002B00F09A8072
:102F3800744B01221A60FEF771FE05466F4B1B6841
:102F480013F0020F40F08580FEF768FE401B022850
:102F5800F4D9032015E2694A136843F480331360F7
:102F6800636843B3FEF75AFE0546644B1B6813F4C7
:102F7800003FC3D1FEF752FE401B6428F5D9032059
:102F8800FFE1B3F5A02F09D05C4B1A6822F4803218
:102F98001A601A6822F480221A60E1E703F180437C
:102FA800A3F53C331A6842F480221A601A6842F486
:102FB80080321A60D4E7FEF731FE05464F4B1B6896
:102FC80013F4003F9AD0FEF729FE401B6428F5D978
:102FD8000320D6E140F29F114948FEF7EBFB95E745
:102FE8004FF4D0714648FEF7E5FB92E7434B5B6828
:102FF80013F4803F98D1414B1B6813F0020F03D0A4
:103008002369012B40F0BA813C4A136823F0F80386
:10301800616943EAC1031360236813F0080F3CD0C9
:10302800A369012B30D8A369002B6FD0354B01223F
:10303800C3F88024FEF7F2FD0546304B5B6A13F0B7
:10304800020F27D1FEF7EAFD401B0228F5D903201D
:1030580097E12A4A136823F0F803616943EAC10338
:103068001360D9E7274B00221A60FEF7D7FD054603
:10307800224B1B6813F0020FCED0FEF7CFFD401B8A
:103088000228F5D903207CE14FF4F0711C48FEF7C3
:1030980091FBC8E70120FFF7CBFE236813F0040F6C
:1030A80000F0A480E368012B01D9052B41D1134B13
:1030B800DB6913F0805F42D1104BDA6942F080522D
:1030C800DA61DB6903F080530193019B01250E4B04
:1030D8001B6813F4807F34D0E368012B45D0002BA4
:1030E8005BD103F1804303F504331A6A22F001022D
:1030F8001A621A6A22F004021A623BE000100240C7
:1031080070B700080000424200700040A14B002246
:10311800C3F88024FEF782FD05469F4B5B6A13F0D7
:10312800020FBAD0FEF77AFD401B0228F5D903201A
:1031380027E140F20F219948FEF73CFBB7E700254D
:10314800C5E7974A136843F480731360FEF766FD7A
:103158000646934B1B6813F4807FBDD1FEF75EFDD6
:10316800801B6428F5D903200BE18B4A136A43F0CE
:1031780001031362E36833B3FEF750FD0646864B3E
:103188001B6A13F0020F2FD1FEF748FD801B41F296
:1031980088339842F3D90320F3E0052B09D07E4BFE
:1031A8001A6A22F001021A621A6A22F004021A62EA
:1031B800E0E7794B1A6A42F004021A621A6A42F08E
:1031C80001021A62D6E7FEF729FD0646724B1B6A12
:1031D80013F0020F08D0FEF721FD801B41F288335F
:1031E8009842F3D90320CCE0002D53D1E369022B98
:1031F80056D8E369002B00F0C380674A526802F092
:103208000C02082A00F0A680022B40F08F80236A67
:1032180013B1B3F5803F49D1636A4BB3B3F5802F3F
:1032280026D0B3F5002F23D0B3F5402F20D0B3F527
:10323800801F1DD0B3F5A01F1AD0B3F5C01F17D03B
:10324800B3F5E01F14D0B3F5001F11D0B3F5101F6C
:103258000ED0B3F5201F0BD0B3F5301F08D0B3F54F
:10326800401F05D0B3F5501F02D0B3F5601F23D11E
:10327800484B00221A66FEF7D1FC0546464B1B68F0
:1032880013F0007F1ED0FEF7C9FC401B0228F5D9B9
:10329800032076E0404AD36923F08053D361A5E741
:1032A80040F2AD213D48FEF785FAA2E740F2B6218B
:1032B8003A48FEF77FFAAFE740F2B7213748FEF702
:1032C80079FAD5E7236AB3F5803F1AD032494B68BB
:1032D80023F47413226A606A024313434B602D4B34
:1032E80001221A66FEF79AFC04462B4B1B6813F062
:1032F800007F19D1FEF792FC001B0228F5D90320A4
:103308003FE0A36813B1B3F5003F07D1224A5368E1
:1033180023F40033A1680B435360D7E740F2CD2173
:103328001E48FEF747FAF1E700202AE0194B002271
:103338001A66FEF773FC0446174B1B6813F0007FF0
:1033480006D0FEF76BFC001B0228F5D9032018E015
:10335800002016E0012B16D00F4B5B6803F4803178
:10336800226A914211D103F47013626A93420ED11A
:10337800002006E001207047012002E0012000E063
:10338800002002B070BD0120FBE70120F9E7012011
:10339800F7E700BF000042420010024070B7000883
:1033A800007000400F4B5B6803F00C02082A01D044
:1033B8000D487047C3F383420C49885C13F4803F7F
:1033C8000BD0084B5B68C3F34043094AD35C064AF9
:1033D80002FB00F0B0FBF3F07047064B03FB00F074
:1033E800704700BF0010024000127A00BCB7000806
:1033F800CCB7000800093D00002800F0FC8070B53B
:103408000D460446036813F00F0F6DD0022D71D8D6
:103418007D4B1B6803F00703AB420BD27A4A136853
:1034280023F007032B431360136803F00703AB4231
:1034380040F0E380236813F0020F29D013F0040F43
:1034480004D0724A536843F4E0635360236813F06E
:10345800080F04D06D4A536843F460535360A3685F
:103468007BB1802B0DD0902B0BD0A02B09D0B02B8B
:1034780007D0C02B05D0D02B03D0E02B01D0F02BE8
:103488003ED1624A536823F0F003A1680B435360AE
:10349800236813F0010F4DD06368022B36D8636898
:1034A800012B39D0022B3ED0584A126812F0020F75
:1034B80000F0A58055494A6822F0030213434B6087
:1034C800FEF7ACFB0646514B5B6803F00C036268E1
:1034D800B3EB820F2ED0FEF7A1FB801B41F288339D
:1034E8009842F0D9032079E040F236314848FEF797
:1034F80061F98BE740F237314548FEF75BF987E71A
:1035080040F25D314248FEF755F9BAE74FF4597178
:103518003F48FEF74FF9C2E73C4A126812F4003FF1
:10352800C8D101205AE0394A126812F0007FC1D18F
:10353800012053E0344B1B6803F00703AB420AD960
:10354800314A136823F007032B431360136803F011
:103558000703AB4255D1236813F0040F14D0E36876
:103568005BB1B3F5806F08D0B3F5A06F05D0B3F5A4
:10357800C06F02D0B3F5E06F31D1244A536823F409
:10358800E063E1680B435360236813F0080F15D01C
:1035980023695BB1B3F5806F08D0B3F5A06F05D090
:1035A800B3F5C06F02D0B3F5E06F1ED1174A536868
:1035B80023F46053216943EAC1035360FFF7F2FE25
:1035C800124B5B68C3F30313124AD35CD840124B07
:1035D8001860124B1868FEF7DDFA002070BD40F243
:1035E800A2310B48FEF7E6F8C7E740F2A9310848D0
:1035F800FEF7E0F8DAE7012070470120EEE7012046
:10360800ECE70120EAE700BF00200240001002407A
:1036180070B7000870B600080000002008000020FD
:10362800014B1868704700BF0000002008B5FFF77D
:10363800F7FF044B5B68C3F30223034AD35CD8400B
:1036480008BD00BF0010024080B60008002800F046
:10365800048110B504460368814A93420CD0A2F550
:103668007842934208D002F58062934204D04FF426
:10367800AB717C48FEF79EF8636813B1B3F5827F9F
:103688003DD1A3682BB1B3F5806F02D0B3F5004FDD
:103698003BD1E368B3F5006F01D0002B3BD1A369A0
:1036A800B3F5007F03D013B1B3F5802F39D1E369A7
:1036B8006BB1082B0BD0102B09D0182B07D0202B5F
:1036C80005D0282B03D0302B01D0382B2FD1236ADB
:1036D8000BB1802B31D1636A002B34D1636A002B84
:1036E80059D123690BB1022B33D16369012B36D829
:1036F8006368B3F5827F38D00023E3615EE040F26F
:1037080057115848FEF756F8BBE74FF4AC715548C7
:10371800FEF750F8BDE740F259115248FEF74AF853
:10372800BDE74FF4AD714F48FEF744F8BFE740F2EC
:103738005B114C48FEF73EF8C9E74FF4AE714948B3
:10374800FEF738F8C7E740F25F114648FEF732F84F
:10375800C4E74FF4B1714348FEF72CF8C5E740F2CF
:1037680063114048FEF726F8C2E7E36933B3082B34
:1037780024D0102B22D0182B20D0202B1ED0282B61
:103788001CD0302B1AD0382B18D040F2671135488E
:10379800FEF710F812E0E3696BB1082B0BD0102B81
:1037A80009D0182B07D0202B05D0282B03D0302B7D
:1037B80001D0382B45D10023236163610023A36224
:1037C80094F85130002B42D0022384F851302268FB
:1037D800136823F040031360636803F48273A268DC
:1037E80002F404421343E26802F4006213432269BC
:1037F80002F002021343626902F001021343A26954
:1038080002F400721343E26902F038021343226A99
:1038180002F080021343A26A02F4005221681343A3
:103828000B60638B226803F0040353602268D3693A
:1038380023F40063D36100206065012384F85130CC
:1038480010BD40F271110748FDF7B4FFB3E784F8E3
:1038580050302046FDF7D0FFB6E70120704700BF83
:1038680000300140D0B7000810B4036A046A24F09D
:1038780001040462846924F0F00C4CEA021223F07B
:103888000A030B438261036210BC704710B4036AD9
:10389800046A24F010040462846924F4704C4CEA2D
:1038A800023223F0A00343EA01138261036210BCD1
:1038B8007047836823F070030B4343F0070383606A
:1038C800704700002DE9F04104460D46066A036A78
:1038D80023F0010303624768836923F073080B68C8
:1038E80043EA080826F002038E681E43204B9842DC
:1038F80003D003F50063984209D1EB680BB1082B9C
:1039080024D126F00806EB681E4326F00406184B5F
:103918009C4203D003F500639C420FD1AB69B3F519
:10392800007F00D0C3B96B69B3F5807F00D0CBB9F5
:1039380027F440776B693B43AF691F436760C4F85E
:1039480018806B6863632662BDE8F08141F6C42184
:103958000848FDF72FFFD4E741F6D1210548FDF7C8
:1039680029FFE0E741F6D2210248FDF723FFDFE710
:10397800002C01401CB800082DE9F04104460E4611
:10398800056A036A23F4807303624768C36923F0F6
:1039980073080B6843EA080825F400758B6845EA44
:1039A8000325224B984203D003F5006398420AD1BD
:1039B800F3680BB1082B27D125F40065F36845EAB5
:1039C800032525F48065194B9C4203D003F5006359
:1039D8009C4211D1B369B3F5007F00D0D3B97369A4
:1039E800B3F5807F00D0DBB927F44057736947EA05
:1039F8000317B36947EA03176760C4F81C80736844
:103A0800E3632562BDE8F08141F65C310848FDF7C3
:103A1800D1FED1E741F669310548FDF7CBFEDEE777
:103A280041F66A310248FDF7C5FEDDE7002C01408A
:103A38001CB800082DE9F04104460D46066A036AE1
:103A480023F480530362D0F80480C76927F4E6475B
:103A58000B6847EA032726F400568B6846EA0336C4
:103A68000F4B984203D003F50063984209D16B6964
:103A7800B3F5807F00D063B928F480486B6948EAC1
:103A88008318C4F80480E7616B6823642662BDE884
:103A9800F08141F6A9310348FDF78CFEECE700BF41
:103AA800002C01401CB8000810B5044603682E4AD3
:103AB80093421FD002F5006293421BD0B3F1804FAE
:103AC80018D0A2F59832934214D002F5806293423E
:103AD80010D002F5806293420CD002F580629342C6
:103AE80008D002F58062934204D04FF4E8711F4871
:103AF800FDF760FE94F83D30DBB2012B2FD1022395
:103B080084F83D302268D36843F00103D36023680A
:103B1800154A934218D002F50062934214D0B3F1CB
:103B2800804F11D0A2F5983293420DD002F58062F1
:103B3800934209D002F58062934205D01A6842F098
:103B480001021A6000200BE09A6802F00702062AB8
:103B580007D01A6842F001021A60002000E0012034
:103B680010BD0020FCE700BF002C01401CB8000875
:103B78007047704770477047704710B50446036830
:103B88001A6912F0020F11D0DA6812F0020F0DD084
:103B98006FF002021A610123037703689B6913F02F
:103BA800030F70D0FFF7E6FF0023237723681A6915
:103BB80012F0040F12D0DA6812F0040F0ED06FF072
:103BC80004021A610223237723689B6913F4407F58
:103BD8005FD02046FFF7CEFF0023237723681A69BA
:103BE80012F0080F12D0DA6812F0080F0ED06FF03A
:103BF80008021A61042323772368DB6913F0030F93
:103C08004ED02046FFF7B6FF0023237723681A69B2
:103C180012F0100F12D0DA6812F0100F0ED06FF0F9
:103C280010021A61082323772368DB6913F4407FA5
:103C38003DD02046FFF79EFF0023237723681A69AB
:103C480012F0010F03D0DA6812F0010F36D12368A1
:103C58001A6912F0800F03D0DA6812F0800F34D19D
:103C680023681A6912F0400F03D0DA6812F0400F87
:103C780032D123681A6912F0200F03D0DA6812F0E3
:103C8800200F30D110BDFFF774FF2046FFF773FFF8
:103C98008AE72046FFF76DFF2046FFF76CFF9BE79A
:103CA8002046FFF766FF2046FFF765FFACE7204692
:103CB800FFF75FFF2046FFF75EFFBDE76FF00102E9
:103CC8001A61204600F072FFC1E76FF080021A61A6
:103CD800204600F090FEC3E76FF040021A612046CC
:103CE800FFF74AFFC5E76FF020021A61204600F08F
:103CF80081FEC7E70368244A904212D002F50062A9
:103D080090420ED0B0F1804F0BD0A2F5983290427D
:103D180007D002F58062904203D002F5806290429B
:103D280003D123F070034A681343174A904212D014
:103D380002F5006290420ED0B0F1804F0BD0A2F590
:103D48009832904207D002F58062904203D002F583
:103D58008062904203D123F44073CA68134323F06E
:103D680080034A69134303608B68C3620B688362EC
:103D7800054B984203D003F50063984201D10B69C3
:103D88000363012343617047002C0140002800F0C1
:103D9800828010B504460368404A93421FD002F55A
:103DA800006293421BD0B3F1804F18D0A2F598322D
:103DB800934214D002F58062934210D002F58062DB
:103DC80093420CD002F58062934208D002F58062DB
:103DD800934204D040F213113148FDF7EBFCA3687D
:103DE8003BB1102B05D0202B03D0402B01D0602BEA
:103DF80033D123692BB1B3F5807F02D0B3F5007FAF
:103E080031D1E368013B4FF6FE72934231D8A36982
:103E18000BB1802B33D194F83D30B3B3022384F82F
:103E28003D30214651F8040BFFF764FF012384F865
:103E3800463084F83E3084F83F3084F8403084F8C7
:103E4800413084F8423084F8433084F8443084F8B0
:103E5800453084F83D30002010BD4FF48A71104879
:103E6800FDF7A8FCC5E740F215110D48FDF7A2FCC7
:103E7800C7E74FF48B710A48FDF79CFCC7E740F28F
:103E880017110748FDF796FCC5E784F83C30204633
:103E9800FDF7A2FDC2E70120704700BF002C0140DA
:103EA8001CB80008002800F0828010B5044603689A
:103EB800404A93421FD002F5006293421BD0B3F1EF
:103EC800804F18D0A2F59832934214D002F5806240
:103ED800934210D002F5806293420CD002F58062C2
:103EE800934208D002F58062934204D040F22C51EC
:103EF8003148FDF75FFCA3683BB1102B05D0202BA0
:103F080003D0402B01D0602B33D123692BB1B3F5FB
:103F1800807F02D0B3F5007F31D1E368013B4FF6D3
:103F2800FE72934231D8A3690BB1802B33D194F838
:103F38003D30B3B3022384F83D30214651F8040BD9
:103F4800FFF7D8FE012384F8463084F83E3084F821
:103F58003F3084F8403084F8413084F8423084F8A7
:103F6800433084F8443084F8453084F83D300020EC
:103F780010BD40F22D511048FDF71CFCC5E740F27A
:103F88002E510D48FDF716FCC7E740F22F510A489D
:103F9800FDF710FCC7E74FF4A6610748FDF70AFCD8
:103FA800C5E784F83C302046FFF7E2FDC2E7012070
:103FB800704700BF002C01401CB800082DE9F041F3
:103FC80004460E46056A036A23F010030362D0F81C
:103FD8000480876927F4E6470B6847EA032725F03A
:103FE80020058B6845EA0315224B984203D003F558
:103FF800006398420AD1F3680BB1082B27D125F04A
:104008008005F36845EA031525F04005194B9C42E5
:1040180003D003F500639C4211D1B369B3F5007F67
:1040280000D0D3B97369B3F5807F00D0DBB928F429
:104038004068736948EA8308B36948EA8308C4F8A2
:104048000480A7617368A3632562BDE8F08141F627
:1040580010310948FDF7AEFBD1E741F61E3106489D
:10406800FDF7A8FBDEE741F61F310348FDF7A2FB89
:10407800DDE700BF002C01401CB8000870B50446FD
:104088000D4616463AB1042A05D0082A03D00C2A50
:1040980001D03C2A26D12B68602B01D0702B27D168
:1040A800AB680BB1022B29D12B690BB1042B2BD197
:1040B80094F83C30012B00F0F880012384F83C3060
:1040C8000C2E00F2ED80DFE816F02500EB00EB0087
:1040D800EB005600EB00EB00EB008800EB00EB0078
:1040E800EB00B90041F27E017148FDF763FBD2E7AE
:1040F80041F27F016E48FDF75DFBD1E74FF4845133
:104108006B48FDF757FBCFE741F281016848FDF79F
:1041180051FBCDE72368674A934217D002F5006246
:10412800934213D0B3F1804F10D0A2F59832934246
:104138000CD002F58062934208D002F58062934267
:1041480004D041F28B015A48FDF734FB2946206818
:10415800FFF7B8FB2268936943F00803936122686C
:10416800936923F0040393612268936929690B43D7
:104178009361002095E023684E4A934217D002F5D8
:104188000062934213D0B3F1804F10D0A2F5983259
:1041980093420CD002F58062934208D002F5806207
:1041A800934204D041F29C014148FDF703FB2946A4
:1041B8002068FFF703FF2268936943F40063936163
:1041C8002268936923F4806393612268936929695B
:1041D80043EA01239361002063E02368354A934250
:1041E80017D002F50062934213D0B3F1804F10D07C
:1041F800A2F5983293420CD002F58062934208D01F
:1042080002F58062934204D041F2AD012848FDF7DF
:10421800D1FA29462068FFF7AFFB2268D36943F03B
:104228000803D3612268D36923F00403D3612268A9
:10423800D36929690B43D361002032E023681D4A02
:10424800934217D002F50062934213D0B3F1804F26
:1042580010D0A2F5983293420CD002F580629342B6
:1042680008D002F58062934204D041F2BE011048A2
:10427800FDF7A0FA29462068FFF7DCFB2268D3691E
:1042880043F40063D3612268D36923F48063D36164
:104298002268D369296943EA0123D361002000E039
:1042A8000120002384F83C3070BD0220FCE700BFE9
:1042B8001CB80008002C014010B4846824F47F4C1A
:1042C80042EA03220A4342EA0C02826010BC7047A9
:1042D80038B590F83C30012B00F0208204460D469A
:1042E800012380F83C30022380F83D300B68B3F599
:1042F800805F11D0702B0FD0B3F5005F0CD0402B2E
:104308000AD0502B08D0602B06D02BB1102B03D02D
:10431800202B01D0302B46D12268936823F47F43A9
:1043280023F0770393602B68602B00F0698176D8BF
:10433800402B00F0A4813CD9502B6ED12368A24AAF
:10434800934217D002F50062934213D0B3F1804F25
:1043580010D0A2F5983293420CD002F580629342B5
:1043680008D002F58062934204D041F2FD4197489B
:10437800FDF720FA6B68B3F5004F05D023B1022B87
:1043880002D00A2B40F03081EB680F2B00F232810B
:10439800EA6869682068FFF767FA50212068FFF724
:1043A80088FA00200BE041F2BE418848FDF702FA86
:1043B800B2E7202B0DD009D9302B0AD001200123D8
:1043C80084F83D30002384F83C3038BD0BB1102B05
:1043D80021D123687C4A934217D002F500629342A8
:1043E80013D0B3F1804F10D0A2F5983293420CD07D
:1043F80002F58062934208D002F58062934204D0AD
:1044080041F230517148FDF7D5F929682068FFF766
:1044180050FA0020D3E70120D1E70120CFE7B3F518
:10442800805F00F08A80B3F5005F42D12368664A56
:10443800934217D002F50062934213D0B3F1804F34
:1044480010D0A2F5983293420CD002F580629342C4
:1044580008D002F58062934204D041F2E9415B48FA
:10446800FDF7A8F9AB684BB1B3F5805F06D0B3F59B
:10447800005F03D0B3F5405F40F09F806B68B3F5F1
:10448800004F05D023B1022B02D00A2B40F0A080A8
:10449800EB680F2B00F2A280EB686A68A9682068B5
:1044A800FFF70AFF2268936843F480439360002073
:1044B80085E7702B3FD12368434A934217D002F512
:1044C8000062934213D0B3F1804F10D0A2F5983216
:1044D80093420CD002F58062934208D002F58062C4
:1044E800934204D041F2D1413848FDF763F9AB68F3
:1044F80043B1B3F5805F05D0B3F5005F02D0B3F5E3
:10450800405F48D16B68B3F5004F04D01BB1022B54
:1045180001D00A2B45D1EB680F2B48D8EB686A68A5
:10452800A9682068FFF7C8FE2268936843F07703FC
:104538009360002043E7012041E72368224A934221
:1045480000F0DC8002F50062934200F0D980B3F1FC
:10455800804F00F0D780A2F59832934200F0D480C3
:1045680002F58062934200F0D18002F580629342A6
:1045780000F0CE8002F58062934200F0CB8002F515
:104588008062934200F0C88041F2CA410F48FDF7AB
:1045980011F9002013E741F2D4410C48FDF70AF95C
:1045A800B0E741F2D5410948FDF704F9B3E741F214
:1045B800D6410648FDF7FEF8B0E741F2EC41034862
:1045C800FDF7F8F85AE700BF002C01401CB80008B6
:1045D80041F2ED415248FDF7EDF859E741F2EE415D
:1045E8004F48FDF7E7F857E74FF4A8514C48FDF757
:1045F800E1F8C9E641F201514948FDF7DBF8C7E6A1
:104608002368484A934217D002F50062934213D0B8
:10461800B3F1804F10D0A2F5983293420CD002F536
:104628008062934208D002F58062934204D041F23E
:104638000D513B48FDF7BEF86B68B3F5004F04D049
:104648001BB1022B01D00A2B0DD1EB680F2B10D810
:10465800EA6869682068FFF719F960212068FFF7A0
:1046680028F90020ABE641F210512D48FDF7A2F8D9
:10467800EBE741F211512A48FDF79CF8E8E7236877
:10468800284A934217D002F50062934213D0B3F13F
:10469800804F10D0A2F5983293420CD002F5806278
:1046A800934208D002F58062934204D041F21D5132
:1046B8001B48FDF77FF86B68B3F5004F04D01BB1BA
:1046C800022B01D00A2B0DD1EB680F2B10D8EA680A
:1046D80069682068FFF7C8F840212068FFF7E9F803
:1046E80000206CE64FF4A9510D48FDF763F8EBE79D
:1046F80041F221510A48FDF75DF8E8E700205EE63F
:1047080000205CE600205AE6002058E6002056E625
:10471800002054E6002052E6002050E6022054E62D
:104728001CB80008002C014070B504460D4616461A
:104738001C4B984217D003F50063984213D0B0F190
:10474800804F10D0A3F5983398420CD003F58063BE
:10475800984208D003F58063984204D041F69251FC
:104768001148FDF727F83DB1042D05D0082D03D0D9
:104778000C2D01D03C2D0ED105F01F05012303FAA5
:1047880005F2236A23EA02032362236A06FA05F57F
:104798001D43256270BD41F693510348FDF70AF8A1
:1047A800EAE700BF002C01401CB8000838B50546F0
:1047B8000C4603684B4A934212D002F500629342BA
:1047C8000ED0B3F1804F0BD0A2F59832934207D0A8
:1047D80002F58062934203D002F58062934206D1CB
:1047E80054B1042C08D0082C06D00C2C04D040F26C
:1047F800B3513D48FCF7DEFF002C3AD195F83E3026
:10480800DBB2013B18BF0123002B66D1002C49D134
:10481800022385F83E30012221462868FFF784FFED
:104828002B68304A934203D002F50062934203D1C9
:104838005A6C42F400425A642B682A4A934241D087
:1048480002F5006293423DD0B3F1804F3AD0A2F511
:104858009832934236D002F58062934232D002F504
:10486800806293422ED01A6842F001021A6000203A
:1048780032E0042C08D0082C0DD095F84130DBB27A
:10488800013B18BF0123BFE795F83F30DBB2013B7E
:1048980018BF0123B8E795F84030DBB2013B18BFD9
:1048A8000123B1E7042C05D0082C07D0022385F892
:1048B8004130B0E7022385F83F30ACE7022385F8A2
:1048C8004030A8E79A6802F00702062A07D01A685B
:1048D80042F001021A60002038BD0120FCE70020E8
:1048E800FAE700BF002C01401CB8000838B50446A0
:1048F8000D4603683D4A93421FD002F50062934279
:104908001BD0B3F1804F18D0A2F59832934214D03F
:1049180002F58062934210D002F5806293420CD077
:1049280002F58062934208D002F58062934204D077
:1049380040F2B4712E48FCF73DFF2B686BB1102B89
:104948000BD0202B09D0302B07D0402B05D0502B73
:1049580003D0602B01D0702B39D16B68802B01D02C
:10496800002B3AD194F83C30012B3CD0012384F839
:104978003C30022384F83D3023685968986821F058
:1049880070012A680A435A602368184A934212D071
:1049980002F5006293420ED0B3F1804F0BD0A2F51E
:1049A8009832934207D002F58062934203D002F511
:1049B8008062934204D120F080006A6810439860B6
:1049C800012384F83D30002084F83C0038BD40F2D3
:1049D800B5710748FCF7EEFEBFE740F2B671044830
:1049E800FCF7E8FEBEE70220F0E700BF002C01401C
:1049F80068B8000870477047002A68D02DE9F04170
:104A080084B004460E46154600F00707C7F10807AC
:104A1800BA4212DCFF23029301920091012302465D
:104A2800A0213148FDF796FF002853D10A20FDF751
:104A3800FBF8002004B0BDE8F0811FFA87F8FF23D7
:104A48000293CDF80480009101230246A021264854
:104A5800FDF780FF002840D13C44E4B2A5EB0805EF
:104A6800ADB23E440520FDF7DFF84FEAD508002730
:104A780008E00520FDF7D8F80834E4B2083DADB2E7
:104A88000836013747450FDAFF23029308230193BD
:104A9800009601232246A0211348FDF75BFF00285A
:104AA800E7D04FF0FF30C5E70DB90020C2E7FF237C
:104AB80002930195009601232246A0210A48FDF79A
:104AC80049FF68B90520FDF7AFF80020B2E74FF0BD
:104AD800FF3070474FF0FF30ACE74FF0FF30A9E7E9
:104AE8004FF0FF30A6E700BFD409002000B585B01D
:104AF800FF2302930192009101230246A121054858
:104B0800FDF7E6FF10B905B05DF804FB4FF0FF3084
:104B1800F9E700BFD409002000B583B08DF807106D
:104B280001220DF10701FFF767FF002003B05DF8D0
:104B380004FB70B582B006460D4600240DE0E30084
:104B480045FA03F38DF80730A01901220DF107018A
:104B5800C0B2FFF751FF0134E4B2012CEFD90020B5
:104B680002B070BD70B582B006460D4600240C80B8
:104B78000FE0A01901220DF10701C0B2FFF7B6FF3F
:104B8800E2009DF8073093402A8813442B800134B3
:104B9800E4B2012CEDD9002002B070BD10B500249C
:104BA8000C700122FFF7A2FF204610BD08B502686D
:104BB8000A4B9A4200D008BD094B1B68632B04DCE2
:104BC800074A136801331360F5E74FF4007105488D
:104BD800FDF7D6FA024B00221A60F1E700100040F8
:104BE800180B0020000C01404FF0804318647047F8
:104BF800074B9B6813F0020FFAD0054BD860044BA3
:104C08009B6813F0010FFAD0014BD868C0B2704707
:104C18000038004010B5074C4FF0005323614FF0A7
:104C280000732361C0B2FFF7E3FF4FF40053236121
:104C380010BD00BF0014014010B5064C4FF00053E2
:104C480023614FF400732361FFF7D2FF4FF4005341
:104C5800236110BD0014014008B5CF20FFF7DAFF2B
:104C68000020FFF7E9FF8120FFF7E6FF3020FFF77C
:104C7800E3FFED20FFF7CEFF6420FFF7DDFF032001
:104C8800FFF7DAFF1220FFF7D7FF8120FFF7D4FFE5
:104C9800E820FFF7BFFF8520FFF7CEFF1020FFF7C2
:104CA800CBFF7820FFF7C8FFCB20FFF7B3FF3920F1
:104CB800FFF7C2FF2C20FFF7BFFF0020FFF7BCFF64
:104CC8003420FFF7B9FF0220FFF7B6FFF720FFF700
:104CD800A1FF2020FFF7B0FFEA20FFF79BFF00208D
:104CE800FFF7AAFF0020FFF7A7FFB120FFF792FF09
:104CF8000020FFF7A1FF1B20FFF79EFFB620FFF75C
:104D080089FF0A20FFF798FFA220FFF795FFC02030
:104D1800FFF780FF3520FFF78FFFC120FFF77AFFED
:104D28001120FFF789FFC520FFF774FF4520FFF723
:104D380083FF4520FFF780FFC720FFF76BFFA22006
:104D4800FFF77AFFF220FFF765FF0020FFF774FFF7
:104D58002620FFF75FFF0120FFF76EFFE020FFF737
:104D680059FF0F20FFF768FF2620FFF765FF242073
:104D7800FFF762FF0B20FFF75FFF0E20FFF75CFFD6
:104D88000920FFF759FF5420FFF756FFA820FFF727
:104D980053FF4620FFF750FF0C20FFF74DFF172069
:104DA800FFF74AFF0920FFF747FF0F20FFF744FFEF
:104DB8000720FFF741FF0020FFF73EFFE120FFF744
:104DC80029FF0020FFF738FF1920FFF735FF1B20C8
:104DD800FFF732FF0420FFF72FFF1020FFF72CFF0B
:104DE8000720FFF729FF2A20FFF726FF4720FFF7B4
:104DF80023FF3920FFF720FF0320FFF71DFF0620C0
:104E0800FFF71AFF0620FFF717FF3020FFF714FF00
:104E18003820FFF711FF0F20FFF70EFF3620FFF7AE
:104E2800F9FEA020FFF708FF2A20FFF7F3FE002075
:104E3800FFF702FF0020FFF7FFFE0020FFF7FCFE50
:104E4800EF20FFF7F9FE2B20FFF7E4FE0020FFF725
:104E5800F3FE0020FFF7F0FE0120FFF7EDFE3F20F4
:104E6800FFF7EAFE3A20FFF7D5FE5520FFF7E4FEEC
:104E78001120FFF7CFFE7820FCF7D6FE2920FFF798
:104E8800C9FE08BD38B5134C00232370A3604FF446
:104E9800F07363804FF4A073A380FCF743FBFCF727
:104EA8008BFC0D4B1A68136843F0400313600B4DDD
:104EB8004FF000632B616420FCF7B6FE4FF40063EB
:104EC8002B613220FCF7B0FEFFF7C6FE01232370EA
:104ED80038BD00BF1C0B0020280A00200014014028
:104EE80038B50446084D4FF000532B614FF400735A
:104EF8002B61000AFFF77CFEE0B2FFF779FE4FF462
:104F080000532B6138BD00BF00140140F8B50746B7
:104F18000D4616461C462A20FFF77CFE380AFFF786
:104F28008BFEF8B2FFF788FE300AFFF785FEF0B275
:104F3800FFF782FE2B20FFF76DFE280AFFF77CFEA5
:104F4800E8B2FFF779FE200AFFF776FEE0B2FFF736
:104F580073FE2C20FFF75EFEF8BD10B50B46144615
:104F68000246FFF7D3FF2046FFF7BAFF10BD70B522
:104F7800BDF81060151A5C1A013405FB0444FFF7EC
:104F8800C5FF03E03046FFF7ABFF2C46651E002C3B
:104F9800F8D170BD2DE9F04F83B01F46374B1B7811
:104FA800002B68D08046894617F0070318BF0123F5
:104FB80003EBD703790801FB03F3DBB20193203A33
:104FC8005FFA82FB4C464FF0000A43E00BEB4B03C1
:104FD8002B4A02EB830313F80A50002621E0294BE1
:104FE80003EB0B1313F80A50F7E70BEBCB03264A36
:104FF80002EB830313F80A50EFE70D9B9AB22146A0
:105008004046FFF7AAFF6D00EDB20134A4B21B4B76
:105018009B88A3422FD9A4EB0903BB420DD00136CC
:10502800F6B2072E12D815F0800FE6D00C9B9AB274
:1050380021464046FFF791FFE5E708F101081FFA0E
:1050480088F80E4B5B88434515D94C460AF1010A8E
:105058005FFA8AFA019B9A450DD20C2FB6D0102F11
:10506800BDD0182FC1D0202F05D1084B03EB8B13CF
:1050780013F80A50B1E703B0BDE8F08F1C0B00200D
:10508800B8B800082CBD00081CC3000878D0000878
:105098002DE9F04782B01D46DDF82890DDF82CA0F8
:1050A8001B4B1B788BB380460E4617460C2D06D03B
:1050B800102D04D0182D02D0202D00D018254446DC
:1050C80009E0134B9B881B1A9E421EDC7E2A0ED9D0
:1050D80002372C44A4B23A78BAB10D4B5988284605
:1050E800491B8C42EDDD2E44B6B24446E9E7CDF8C3
:1050F80004A0CDF800902B4631462046FFF74AFF22
:10510800013704EB5504A4B2E5E702B0BDE8F08727
:105118001C0B002010B50446FEF782FA054BA3FBD2
:1051280000231B0D04FB03F003460138002BFBD1C1
:1051380010BD00BF83DE1B4310B582B0134C04F1D1
:1051480010014020FFF70EFD04F112014220FFF785
:1051580009FD0DF106014420FFF704FDBDF8060026
:10516800FBF70AFD0A49FBF713FEA0600DF10601E3
:105178004620FFF7F7FCBDF80600FBF7FDFC0449E5
:10518800FBF706FEE06002B010BD00BF280B002050
:105198000050434710B5114C218A4020FFF7C9FC45
:1051A800618A4220FFF7C5FC0D49A068FBF73CFD6A
:1051B800FBF700FF81B24420FFF7BBFC0849E06819
:1051C800FBF732FDFBF7F6FE81B24620FFF7B1FC94
:1051D80001214820FFF7A0FC10BD00BF280B0020CC
:1051E8000050434738B5044600250DE000228021D1
:1051F8000E48FCF7A9FF6400E4B2012220210B4805
:10520800FCF7A2FF0135EDB2072D0DD800222021B1
:105218000648FCF799FF14F0800FE7D0012280219F
:105228000248FCF791FFE6E738BD00BF00080140DF
:1052380070B50546002210212248FCF785FF224C54
:10524800002280212046FCF77FFF002220212046F3
:10525800FCF77AFF2846FFF7C5FF0820FFF75AFF3B
:10526800002220212046FCF76FFF0120FFF752FFA4
:10527800012220212046FCF767FF00252C4601E08B
:105288000135EDB20F2D15D80F4E002220213046E2
:10529800FCF75AFF012220213046FCF755FF640035
:1052A800A4B240213046FCF73BFF0028E8D044F088
:1052B8000104E5E72409012210210248FCF744FF14
:1052C800204670BD001001400008014010B52021A3
:1052D8000948FCF725FF08B1002010BD9020FFF712
:1052E800A7FF064C2080D020FFF7A2FF608023880C
:1052F800A380E0800120F0E700100140280B002087
:1053080070B520211648FCF70BFF00B170BDFFF700
:10531800DDFF144CA568A088238AC01AFBF730FC6F
:105328002946FBF781FCFBF745FE85B2E668E08875
:10533800638AC01AFBF724FC3146FBF775FCFBF7C0
:1053480039FE80B2B5F5F07F28BF4FF4F075B0F59F
:10535800A07F28BF4FF4A070A580E080D6E700BFEB
:1053680000100140280B00202DE9F04F8BB00023DE
:1053780008E00AAA02EB8302002122F8101C22F896
:105388000E1C0133032BF4DD002544E00AAB03EBCC
:10539800850232F80E3C32F8102C734903A800F04D
:1053A80091FC05EB85018900323189B24FF6FF7314
:1053B8000193002300930C230DEB03023220FFF727
:1053C80067FE20216948FCF7ABFE002400284AD17B
:1053D8009020FFF72DFF0446D020FFF729FF002C6F
:1053E800D4D00028D2D00AAB03EB850323F8104CA5
:1053F80023F80E0CCAE7013520215C48FCF790FE23
:105408000128F9D11420FCF70FFC20215748FCF79C
:1054180087FE0128F0D1032D37DC002D05F00103AC
:10542800B8BF5B4203EB430000EBC000C3EBC00016
:10543800400080B205EBD5735B1003EBC303C3EBED
:105448000313590089B201F11E039BB200F11E0239
:1054580092B2143189B2143080B24FF47844009477
:10546800FFF785FD0124002CC5D020213F48FCF71B
:1054780057FE0028F7D11420FCF7D6FB20213B4823
:10548800FCF74EFE0028EED19BE7BDF82040BDF8A2
:1054980018301C44BDF82400BDF81C301844201AEC
:1054A80000EBD0704010FBF76BFB01463048FBF770
:1054B8006FFC0646BDF81E70BDF81A301F44BDF8D3
:1054C8002630BDF822201344FB1A03EBD37358107F
:1054D800FBF756FB01462748FBF75AFC0546002117
:1054E8003046FBF75DFD002837D000212846FBF742
:1054F80057FDA8B364083046FAF7F6FF02460B4694
:1055080000201D49FBF772F9804689462046FAF7C4
:10551800D9FF42464B46FAF787FEFBF74FFA044697
:105528007F082846FAF7E0FF02460B46002012499A
:10553800FBF75CF982468B463846FAF7C3FF5246BA
:105548005B46FAF771FEFBF739FA0C4B9E60DD609B
:105558001C8258820BB0BDE8F08F06F10046C4E704
:1055680005F10045C6E700BF38E800080010014013
:105578000000D7430000874300003940280B002073
:1055880000B583B0FCF792F800238DF807300DF1D1
:1055980007014820FFF702FB9DF8073023B1FFF70A
:1055A800CBFD03B05DF804FBFFF7DEFEFFF7F2FD6D
:1055B800F7E7000000B583B0FCF712FBFCF7C8F86A
:1055C800FBF7B0FFFCF76AFAFCF7DEF90E48FEF7C6
:1055D8006BFA0C210D48FFF7E9F8FFF753FC4FF67B
:1055E800FF7300934FF4A0734FF4F0720021084644
:1055F800FFF7BDFC6420FFF7F7FAFCF757F8FFF751
:10560800BFFF03B05DF804FBCC0A0020840A002029
:1056180008B5FFF7CFFFFFF773FE064B9888002801
:10562800F9D0D9880029F6D04FF47842FFF795FCD5
:10563800F1E700BF280B0020014B1868704700BF36
:105648000C00002070B50D4E0D4D761BB61006D01F
:10565800002455F8043B01349847A642F9D1094E75
:10566800094D05F0F5FF761BB61006D0002455F855
:10567800043B01349847A642F9D170BD48EC0008B4
:1056880048EC000850EC000848EC00082DE9F04F01
:1056980001F10B05162D064683B025D8102900F216
:1056A800B88000F0F1FA102518224FF0020CB54F1F
:1056B8003A445368A2F108018B4200F0B7805A6857
:1056C800D96822F003021A449C683046E1608C6075
:1056D800516803F1080441F00101516000F0DAFA61
:1056E800204603B0BDE8F08F35F0070500F1918042
:1056F800A94200F28E8000F0C7FAB5F5FC7FC0F031
:1057080094816B0A00F08C80042B00F26A81AB094B
:1057180003F1390C03F138044FEACC00994F3844AF
:1057280043680838984206D10CE0002980F22681A7
:10573800DB68984206D05A6822F00302511B0F29F1
:10574800F3DDA4463C69DFF840E274457AD062682C
:1057580022F00302531B0F2B00F37681002BC7E9BD
:1057680004EE80F26781B2F5007F80F01981012193
:10577800D30852090B4491407A6857F833000A431A
:1057880007EBC3010839A060E1607A6047F833404D
:10579800C46001214FEAAC039940914259D81142A3
:1057A80006D12CF0030C490011420CF1040CFAD07C
:1057B80007EBCC0948466446D0F80C80404508D130
:1057C8001CE1002B80F22181D8F80C80404500F0C4
:1057D8001581D8F8042022F00302531B0F2BF0DDAB
:1057E80008EB050145F00105C8F804503046D8E932
:1057F8000264F460A66043F00104C7E904114C6038
:10580800C1E902EE48F8023000F044FA08F1080451
:1058180002E00C2300243360204603B0BDE8F08F7B
:105828004FF400704FF0400C3F2477E7D3689A425A
:1058380008BF0CF1020C7FF442AF3C69DFF848E185
:10584800744584D101217A684FEAAC0399409142AA
:10585800A5D9BC68636823F003094D4503D8A9EBB3
:1058680005030F2B7ADCDFF824B1494BDBF8002065
:105878001B6801322B4404EB090A00F02F8103F561
:1058880080530F3323F47F6828F00F0841463046D1
:1058980000F006FA411C024600F0EF80824500F253
:1058A800EA803C4B196841440846196000F0498178
:1058B800DBF80010019301311BBFA2EB0A0A504428
:1058C800CBF80020186012F0070B00F01181CBF123
:1058D80008010A44CBF5805190440831A1EB080136
:1058E800C1F30B0A51463046009200F0D9F9421C28
:1058F800DDE9002300F04B81801A00EB0A081968E3
:1059080048F001005144BC42BA601960506000F090
:105918002481B9F10F0F40F222814FF0050E606823
:10592800A9F10C0C2CF0070C00F0010040EA0C0067
:105938006060BCF10F0F04EB0C00C0E901EE00F24F
:105948002E8114465068144B1A688A4238BF196071
:10595800124B1A688A4238BF196090E0621943F006
:10596800010345F0010565603046BA6008345360AC
:1059780000F090F9204603B0BDE8F08FD9681A44CA
:10598800A2E600BF380400204004002040080020A0
:105998006C0B00203C0B0020640B0020680B0020DF
:1059A800B2F5206F4FEA52235FD3142B00F2B18077
:1059B80003F15C01C9005B337818795808388842CC
:1059C80000F08F804B6823F00303934202D9896863
:1059D8008842F7D1C8687A68C4E902108460CC604C
:1059E800D7E6142B59D9542B00F29B802B0B03F1CB
:1059F8006F0C03F16E044FEACC008FE60134A30765
:105A080000F108007FF4D8AE53E04446424453689E
:105A1800D8F80C1043F00103536054F8083F30469F
:105A2800D9608B6000F036F9F6E64FEAD50C05F13F
:105A380008023CE622445368304643F001035360B1
:105A480000F028F90834E7E6611945F001056560BA
:105A580043F00105C7E904113046C1E902EE4D6083
:105A6800A35000F017F90834D6E6930903F1390179
:105A7800C9003833A0E7BC425ED0BC68606820F03B
:105A880003084545A8EB050302D80F2B3FF766AF7F
:105A9800304600F0FFF80024BEE603F15C0C03F189
:105AA8005B044FEACC0039E659F808394B4540F019
:105AB80095801CF0030F0CF1FF3CF5D17B6823EABD
:105AC80001037B60490099423FF6C3AE11B9C0E6B5
