:020000040800F2
:1000000000C00020A907000801050008030500083A
:1000100005050008070500080905000800000000A4
:100020000000000000000000000000000B050008B8
:100030000D050008000000000F050008110500086C
:10004000F1070008F1070008F1070008F1070008B0
:10005000F1070008F1070008F1070008F1070008A0
:10006000F1070008F1070008F1070008F107000890
:10007000F1070008F1070008F1070008F107000880
:10008000F1070008F1070008F1070008F107000870
:10009000F1070008F1070008F1070008F107000860
:1000A000F1070008F1070008F1070008F107000850
:1000B000F1070008F1070008F1070008F107000840
:1000C000F1070008F1070008F1070008F107000830
:1000D000F1070008F1070008F1070008F107000820
:1000E000F1070008F1070008F1070008F107000810
:1000F000F1070008F1070008F1070008F107000800
:10010000F107000819050008F1070008F1070008C9
:10011000F1070008F107000829050008F1070008A9
:10012000F1070008F1070008F1070008F1070008CF
:1001300000000000000000000000000000000000BF
:1001400000000000000000000000000000000000AF
:10015000000000000000000000000000000000009F
:10016000000000000000000000000000000000008F
:10017000000000000000000000000000000000007F
:10018000000000000000000000000000000000006F
:10019000000000000000000000000000000000005F
:1001A000000000000000000000000000000000004F
:1001B000000000000000000000000000000000003F
:1001C000000000000000000000000000000000002F
:1001D000000000000000000000000000000000001F
:0401E0005FF8E0F1F3
:1001E40010B5054C237833B9044B13B10448AFF36D
:1001F40000800123237010BD3C0400200000000097
:100204004439000808B5034B1BB103490348AFF355
:10021400008008BD000000004004002044390008AC
:100224002DE9F04F8BB000240694079408940994A8
:10023400574B9A6942F040029A619A6902F040026F
:100244000192019A9A6942F010029A619A6902F045
:1002540010020292029A9A6942F004029A619A691F
:1002640002F004020392039A9A6942F008029A6126
:100274009A6902F008020492049A9A6942F02002F0
:100284009A619B6903F020030593059BDFF80491B1
:100294002246A021484600F027FEDFF8FC802246D3
:1002A4001021404600F020FEDFF8F0B022464FF463
:1002B4002851584600F018FEDFF8E4A022464FF417
:1002C4000071504600F010FE4FF6FF7306930325AD
:1002D400079506A9334800F02FFC42F2CF0306939A
:1002E400079506A9404600F027FC4FF61F13069316
:1002F400079506A9484600F01FFCA0230693012792
:10030400079708940226099606A9484600F014FCAB
:10031400402306930794089406A9484600F00CFC71
:100324001023069307970894099606A9404600F0FF
:1003340003FC202306930794089406A9404600F082
:10034400FBFB41F23F530693079506A9504600F084
:10035400F3FB4DF2FB530693079506A9584600F0AC
:10036400EBFB4FF42853069307970894099606A9C4
:10037400584600F0E1FB4FF4007306930797089486
:10038400099606A9504600F0D7FB0BB0BDE8F08FE4
:100394000010024000080140001001400014014018
:1003A400000C01400018014072B6FEE700B591B0A0
:1003B4002822002106A803F001FA002301930293E6
:1003C400039304930593012206924FF48033079319
:1003D4000A9202220D920E934FF4E0130F9306A893
:1003E40000F0CAFD80B90F2301930221029100237A
:1003F40003934FF480620492059301A801F08AF8F4
:1004040020B911B05DF804FBFFF7CEFFFFF7CCFF76
:100414007047000008B50D480D4B03604FF482731C
:10042400436000238360C360036143614FF400723F
:100434008261C3610362436283620A23C36201F07F
:1004440035FB00B908BDFFF7AFFFFBE7DC04002074
:100454000038004010B586B0002302930393049340
:1004640005930268174B9A4201D006B010BD03F5FC
:10047400EC33DA6942F48042DA61DA6902F48042E8
:100484000092009A9A6942F008029A619B6903F00B
:1004940008030193019B4FF4204302930223039327
:1004A40003230593084C02A9204600F045FB4FF4B2
:1004B4008043029300230393049302A9204600F08F
:1004C4003BFBD2E700380040000C014082B00A4BED
:1004D4009A6942F001029A619A6902F0010200925B
:1004E400009ADA6942F08052DA61DB6903F08053E2
:1004F4000193019B02B0704700100240FEE7FEE743
:10050400FEE7FEE7FEE770477047704708B500F066
:10051400A7F908BD08B5024801F0E2F908BD00BF1B
:100524005804002008B5024801F057FD08BD00BF7B
:100534007C0500207047000000B583B000230093C1
:1005440001930F480F4A026040F2CF224260836059
:1005540040F2E732C260836101F048FE50B90023E3
:10056400009301936946064802F0F0FB28B903B0F2
:100574005DF804FBFFF718FFF1E7FFF715FFF6E757
:100584007C0500200010004000B583B00368B3F17F
:10059400804F05D0124A93420ED003B05DF804FB9D
:1005A40003F50433DA6942F00102DA61DB6903F02E
:1005B40001030093009BF0E70A4BDA6942F0100252
:1005C400DA61DB6903F010030193019B00221146F9
:1005D400362000F089F9362000F0CCF9DDE700BFC1
:1005E400001000400010024000B587B000230293C1
:1005F4000393049305930368B3F1804F02D007B0CB
:100604005DF804FB03F504339A6942F008029A6129
:100614009B6903F008030193019B4FF40063029369
:1006240002230393059302A9064800F085FA064ABB
:10063400536823F4407343F0E06343F4007353605E
:10064400DDE700BF000C01400000014000B58FB0A1
:1006540000230A930B930C930D930893099301932E
:1006640002930393049305930693079321484FF051
:100674008042026040F2CF22426083606422C26002
:100684000361836101F0B2FD28BB4FF480530A93E8
:100694000AA9184802F04CF800BB164801F032FED3
:1006A400F8B900230893099308A9124802F04EFBF5
:1006B400D0B96023019300230293039305930C2282
:1006C40001A90C4801F00AFF88B90A48FFF78CFF1A
:1006D4000FB05DF804FBFFF767FED6E7FFF764FE93
:1006E400DBE7FFF761FEDCE7FFF75EFEE1E7FFF71C
:1006F4005BFEEAE73405002008B50A480A4B0360AC
:100704004FF4E133436000238360C36003610C2230
:1007140042618361C36102F01BFC00B908BDFFF7AD
:1007240043FEFBE7C40500200038014010B586B045
:10073400002302930393049305930268174B9A4290
:1007440001D006B010BD03F558439A6942F48042C3
:100754009A619A6902F480420092009A9A6942F07E
:1007640004029A619B6903F004030193019B4FF413
:10077400007302930223039303230593084C02A9F5
:10078400204600F0D9F94FF48063029300230393C9
:10079400049302A9204600F0CFF9D2E700380140C3
:1007A40000080140FFF7C6FE0B480C490C4A002321
:1007B40002E0D458C4500433C4188C42F9D3094A13
:1007C400094C002301E013600432A242FBD302F07F
:1007D400D1FF02F0A1FF7047000000203C0400207C
:1007E400208A00083C04002024060020FEE70000C4
:1007F40010B504460E4B18784FF47A73B3FBF0F33C
:100804000C4A1068B0FBF3F000F0CCF868B90F2C78
:1008140001D901200AE0002221464FF0FF3000F008
:1008240063F8054B1C60002000E0012010BD00BFF0
:1008340004000020000000200800002008B5074A3A
:10084400136843F010031360032000F02FF80F2007
:10085400FFF7CEFFFFF73AFE002008BD002002405C
:10086400034A1168034B1B780B441360704700BFA5
:100874000C06002004000020014B1868704700BFDC
:100884000C06002038B50446FFF7F6FF0546B4F120
:10089400FF3F02D0044B1B781C44FFF7EDFF401BC5
:1008A400A042FAD338BD00BF0400002010B50446AE
:1008B400C31E042B0FD80A4AD36823F4E0631B0435
:1008C4001B0C240204F4E064234343F0BF6343F4A9
:1008D4000033D36010BD91210248FFF799FDEAE788
:1008E40000ED00E07439000870B505460C46164664
:1008F4000F2A25D80F2C28D81B4BDB68C3F30223FF
:10090400C3F10701042928BF04211A1D062A21D98D
:10091400033B4FF0FF3202FA01F124EA01049C4048
:1009240002FA03F326EA03063443002D14DB240100
:10093400E4B205F1604505F5614585F8004370BDF5
:10094400A9210A48FFF764FDD4E7AA210748FFF765
:100954005FFDD1E70023DCE705F00F052401E4B2D5
:10096400034B5C55EBE700BF00ED00E07439000871
:1009740014ED00E010B5041E0ADB002C07DB04F0C4
:100984001F02640901239340044A42F8243010BD35
:10099400BD210348FFF73CFDEFE700BF00E100E0A5
:1009A400743900080138B0F1807F0BD24FF0E02396
:1009B4005861054AF02182F823100020986107222B
:1009C4001A6170470120704700ED00E008B590F807
:1009D4002130DBB2022B03D004238363012008BD42
:1009E4000268136823F00E0313600268136823F08F
:1009F4000103136003684C4A93424ED9783A9342F8
:100A040024D01432934230D0143293422FD0143273
:100A140093422FD0143293422FD0143293422FD0CA
:100A2400143293422FD002F5627293422ED01432C4
:100A340093422DD0143293422CD01432934202D0DC
:100A44004FF4803203E04FF4805200E00122374B30
:100A54005A60012380F82130002380F82030436B52
:100A6400002B5ED098470020B9E71022EFE74FF43F
:100A74008072ECE74FF48052E9E74FF48032E6E706
:100A84004FF48012E3E74FF08072E0E70122DEE7E3
:100A94001022DCE74FF48072D9E7254A934224D030
:100AA4001432934225D01432934224D01432934208
:100AB40024D01432934224D01432934224D01432DA
:100AC400934224D002F56272934223D014329342AB
:100AD40022D01432934221D01432934202D04FF4E4
:100AE400803203E04FF4805200E00122114B5A603F
:100AF400AFE71022FAE74FF48072F7E74FF4805221
:100B0400F4E74FF48032F1E74FF48012EEE74FF050
:100B14008072EBE70122E9E71022E7E74FF48072E5
:100B2400E4E700205BE700BF8000024000040240CD
:100B340008000240000002402DE9F04383B007465C
:100B44000E46884B98421BD003F58063984217D019
:100B540003F58063984213D003F5806398420FD065
:100B640003F5806398420BD003F58063984207D065
:100B740003F58063984203D0BD217B48FFF748FC0E
:100B840033689AB212B11B0C1B041BB1BE21764808
:100B9400FFF73EFC7368012B1ED9112B1CD0022BCE
:100BA4001AD0122B18D0714A934215D002F5801234
:100BB400934211D002F5801293420DD0A2F5F8129F
:100BC400934209D002F58012934205D002F58012B7
:100BD400934201D0032B03D14FF000094D46FDE0B1
:100BE400BF216148FFF714FCF6E7614A934210D035
:100BF40007D9604A93420CD002F58032934208D060
:100C04001AE0A2F58012934203D002F570229342B7
:100C14000ED1B368022B00F28D80B368002B00F074
:100C24009580012B00F08B807C614FF0080903E074
:100C3400A2F580129342ECD0B8F1FF0F00F2898044
:100C44003846B8F1FF0F00F28680AA0003680F212E
:100C5400914023EA010309FA02F213430360736823
:100C640013F0805F00F0B980434B9A6942F00102AF
:100C74009A619B6903F001030193019BAA08911CEB
:100C84003E4B53F8210005F0030399000F238B40DA
:100C940020EA0300334B9F4272D003F580639F42E6
:100CA40000F0F68003F580639F4200F0F38003F5C3
:100CB40080639F4200F0F08003F580639F4200F060
:100CC400ED8003F580639F4249D0062359E0F36821
:100CD400013B022B02D8D6F80C90ADE7D52122486F
:100CE400FFF796FBF7E7F368013B022B03D8F368A1
:100CF40003F10409A0E7DC211B48FFF789FBF6E7B1
:100D0400F368013B022B03D8F36803F1080993E766
:100D1400E3211548FFF77CFBF6E7F368013B022B60
:100D240003D8F36803F10C0986E7EA210E48FFF7BC
:100D34006FFBF6E7F7210C48FFF76AFB6DE73C61B0
:100D44004FF0080978E74FF0000975E74FF0040900
:100D540072E7381D75E7A5F10802920076E70523CE
:100D64000FE000BF00080140C43900080000111062
:100D74000000221000003110001002400000014069
:100D840000238B4003430232534941F822307368F5
:100D940013F4801F00F08480504A936843EA0803E8
:100DA4009360736813F4001F00F080804B4AD3688B
:100DB40043EA0803D360736813F4003F7CD0474AC6
:100DC400536843EA08035360736813F4803F79D08F
:100DD400424A136843EA080313600135336833FA5F
:100DE40005F275D00124AC4003EA040834EA030395
:100DF400F3D13B4B9F421BD003F580639F4217D036
:100E040003F580639F4213D003F580639F420FD0A4
:100E140003F580639F420BD003F580639F4207D0A4
:100E240003F580639F4203D0CD212E48FFF7F0FAEB
:100E34007368122B3FF6D9AE122B3FF6FDAE01A21A
:100E440052F823F0170C0008D30C0008050D000815
:100E54004B0D00083D0C00083D0C00083D0C00083B
:100E64003D0C00083D0C00083D0C00083D0C00083A
:100E74003D0C00083D0C00083D0C00083D0C00082A
:100E84003D0C00083D0C0008EB0C00081F0D000889
:100E9400012376E7022374E7032372E7042370E750
:100EA4000E4A936823EA080393607AE70B4AD368EF
:100EB40023EA0803D3607EE7084A536823EA080359
:100EC400536081E7054A136823EA0803136084E743
:100ED40003B0BDE8F08300BF0000014000040140FE
:100EE40000080140C439000870B5054614460E4692
:100EF40021B1012C08D86CB12E6170BD4FF4EA7198
:100F04000648FFF785FAF4E740F2D5110348FFF7E6
:100F14007FFAF0E736042E61EFE700BFC43900081A
:100F240038B505460C4641B1EB6804EA030224EAED
:100F3400030444EA02442C6138BD4FF4F6710248BC
:100F4400FFF766FAF0E700BFC439000882B0084B27
:100F54001B68084AA2FB03235B0A00FB03F301930B
:100F640000BF019B5A1E0192002BF9D102B07047B9
:100F740000000020D34D6210002800F0898270B573
:100F840082B00446036813B113F00F0F2AD023680C
:100F940013F0010F40D063682BB1B3F5803F02D04A
:100FA400B3F5A02F24D19C4B5B6803F00C03042BF6
:100FB40029D0994B5B6803F00C03082B1ED063689F
:100FC400B3F5803F55D0002B69D103F1804303F57D
:100FD40004331A6822F480321A601A6822F48022D8
:100FE4001A604BE040F265118C48FFF711FACEE726
:100FF40040F26B118948FFF70BFAD4E7864B5B6824
:1010040013F4803FDBD0844B1B6813F4003F03D000
:101014006368002B00F03E82236813F0020F00F097
:1010240089802369012B63D863691F2B66D87A4BA7
:101034005B6813F00C0F6CD0774B5B6803F00C0308
:10104400082B61D02369002B00F09A80744B012295
:101054001A60FFF711FC05466F4B1B6813F0020F73
:1010640040F08580FFF708FC401B0228F4D90320D8
:1010740015E2694A136843F480331360636843B329
:10108400FFF7FAFB0546644B1B6813F4003FC3D11A
:10109400FFF7F2FB401B6428F5D90320FFE1B3F509
:1010A400A02F09D05C4B1A6822F480321A601A68A7
:1010B40022F480221A60E1E703F18043A3F53C3374
:1010C4001A6842F480221A601A6842F480321A6064
:1010D400D4E7FFF7D1FB05464F4B1B6813F4003FE1
:1010E4009AD0FFF7C9FB401B6428F5D90320D6E149
:1010F40040F29F114948FFF78BF995E74FF4D071FF
:101104004648FFF785F992E7434B5B6813F4803F49
:1011140098D1414B1B6813F0020F03D02369012BB4
:1011240040F0BA813C4A136823F0F803616943EA4A
:10113400C1031360236813F0080F3CD0A369012B8B
:1011440030D8A369002B6FD0354B0122C3F880241B
:10115400FFF792FB0546304B5B6A13F0020F27D171
:10116400FFF78AFB401B0228F5D9032097E12A4A9E
:10117400136823F0F803616943EAC1031360D9E7F4
:10118400274B00221A60FFF777FB0546224B1B68AA
:1011940013F0020FCED0FFF76FFB401B0228F5D9E6
:1011A40003207CE14FF4F0711C48FFF731F9C8E7E4
:1011B4000120FFF7CBFE236813F0040F00F0A48096
:1011C400E368012B01D9052B41D1134BDB6913F0E3
:1011D400805F42D1104BDA6942F08052DA61DB69F8
:1011E40003F080530193019B01250E4B1B6813F4FC
:1011F400807F34D0E368012B45D0002B5BD103F111
:10120400804303F504331A6A22F001021A621A6A4F
:1012140022F004021A623BE000100240103A000877
:101224000000424200700040A14B0022C3F8802419
:10123400FFF722FB05469F4B5B6A13F0020FBAD0FF
:10124400FFF71AFB401B0228F5D9032027E140F2DF
:101254000F219948FFF7DCF8B7E70025C5E7974A5F
:10126400136843F480731360FFF706FB0646934B41
:101274001B6813F4807FBDD1FFF7FEFA801B64283E
:10128400F5D903200BE18B4A136A43F0010313627F
:10129400E36833B3FFF7F0FA0646864B1B6A13F094
:1012A400020F2FD1FFF7E8FA801B41F288339842EE
:1012B400F3D90320F3E0052B09D07E4B1A6A22F000
:1012C40001021A621A6A22F004021A62E0E7794BF8
:1012D4001A6A42F004021A621A6A42F001021A629D
:1012E400D6E7FFF7C9FA0646724B1B6A13F0020FE2
:1012F40008D0FFF7C1FA801B41F288339842F3D932
:101304000320CCE0002D53D1E369022B56D8E369C6
:10131400002B00F0C380674A526802F00C02082ACE
:1013240000F0A680022B40F08F80236A13B1B3F53E
:10133400803F49D1636A4BB3B3F5802F26D0B3F510
:10134400002F23D0B3F5402F20D0B3F5801F1DD03C
:10135400B3F5A01F1AD0B3F5C01F17D0B3F5E01F23
:1013640014D0B3F5001F11D0B3F5101F0ED0B3F590
:10137400201F0BD0B3F5301F08D0B3F5401F05D0A4
:10138400B3F5501F02D0B3F5601F23D1484B0022A0
:101394001A66FFF771FA0546464B1B6813F0007F87
:1013A4001ED0FFF769FA401B0228F5D9032076E026
:1013B400404AD36923F08053D361A5E740F2AD21BD
:1013C4003D48FFF725F8A2E740F2B6213A48FFF777
:1013D4001FF8AFE740F2B7213748FFF719F8D5E710
:1013E400236AB3F5803F1AD032494B6823F474134F
:1013F400226A606A024313434B602D4B01221A6632
:10140400FFF73AFA04462B4B1B6813F0007F19D1FF
:10141400FFF732FA001B0228F5D903203FE0A36846
:1014240013B1B3F5003F07D1224A536823F40033C4
:10143400A1680B435360D7E740F2CD211E48FEF765
:10144400E7FFF1E700202AE0194B00221A66FFF7B4
:1014540013FA0446174B1B6813F0007F06D0FFF7FE
:101464000BFA001B0228F5D9032018E0002016E02F
:10147400012B16D00F4B5B6803F48031226A914232
:1014840011D103F47013626A93420ED1002006E076
:1014940001207047012002E0012000E0002002B09A
:1014A40070BD0120FBE70120F9E70120F7E700BF49
:1014B4000000424200100240103A00080070004050
:1014C4000F4B5B6803F00C02082A01D00D487047EB
:1014D400C3F383420C49885C13F4803F0BD0084B60
:1014E4005B68C3F34043094AD35C064A02FB00F03D
:1014F400B0FBF3F07047064B03FB00F0704700BFEE
:101504000010024000127A005C3A00086C3A0008AD
:1015140000093D00002800F0FC8070B50D4604462B
:10152400036813F00F0F6DD0022D71D87D4B1B682B
:1015340003F00703AB420BD27A4A136823F0070384
:101544002B431360136803F00703AB4240F0E380BE
:10155400236813F0020F29D013F0040F04D0724A49
:10156400536843F4E0635360236813F0080F04D016
:101574006D4A536843F460535360A3687BB1802B76
:101584000DD0902B0BD0A02B09D0B02B07D0C02BA3
:1015940005D0D02B03D0E02B01D0F02B3ED1624AF2
:1015A400536823F0F003A1680B435360236813F0DE
:1015B400010F4DD06368022B36D86368012B39D0F4
:1015C400022B3ED0584A126812F0020F00F0A58098
:1015D40055494A6822F0030213434B60FFF74CF964
:1015E4000646514B5B6803F00C036268B3EB820F51
:1015F4002ED0FFF741F9801B41F288339842F0D98D
:10160400032079E040F236314848FEF701FF8BE7CA
:1016140040F237314548FEF7FBFE87E740F25D3183
:101624004248FEF7F5FEBAE74FF459713F48FEF71A
:10163400EFFEC2E73C4A126812F4003FC8D1012011
:101644005AE0394A126812F0007FC1D1012053E0F8
:10165400344B1B6803F00703AB420AD9314A1368C1
:1016640023F007032B431360136803F00703AB4213
:1016740055D1236813F0040F14D0E3685BB1B3F5BC
:10168400806F08D0B3F5A06F05D0B3F5C06F02D05A
:10169400B3F5E06F31D1244A536823F4E063E16881
:1016A4000B435360236813F0080F15D023695BB113
:1016B400B3F5806F08D0B3F5A06F05D0B3F5C06F54
:1016C40002D0B3F5E06F1ED1174A536823F4605378
:1016D400216943EAC1035360FFF7F2FE124B5B68D2
:1016E400C3F30313124AD35CD840124B1860124B55
:1016F4001868FFF77DF8002070BD40F2A2310B4856
:10170400FEF786FEC7E740F2A9310848FEF780FEDF
:10171400DAE7012070470120EEE70120ECE7012021
:10172400EAE700BF0020024000100240103A00081F
:101734005C3900080000002008000020014B1868F4
:10174400704700BF0000002008B5FFF7F7FF044B07
:101754005B68C3F30223034AD35CD84008BD00BFCF
:10176400001002406C39000808B5FFF7E7FF044B8E
:101774005B68C3F3C223034AD35CD84008BD00BFEF
:10178400001002406C390008F8B5846AC66AA6B92C
:10179400F8BD386801F05AFC2070C0F30723637069
:1017A400C0F30743A370000EE0700434043E013517
:1017B400072DEED9BC62FE62EAE707460025F7E78B
:1017C400F0B583B0046A466ADEB903B0F0BD23788D
:1017D4000193627843EA02230193A27843EA024325
:1017E4000193E27843EA026301930434043E01A9BD
:1017F400386801F02EFC0135072DE8D93C627E6281
:10180400E3E707460025F7E770B581B104460E46C5
:10181400016D0904006801F045FD054608B128463C
:1018240070BD0021206801F063FC3060F7E74FF0E1
:101834000065F4E7704710B582B0044600230193B5
:1018440001A9FFF7E1FF10B1A36B0343A363019860
:10185400C0F3432002B010BD10B5446A236840F2BF
:101864003A529A632046FFF7E6FF012384F83430A6
:10187400002323630538012805D9A36B53B92046F7
:1018840001F029FD10BD206801F0F2FCA36B0343B5
:10189400A363F2E72046FFF7CDFFF3E710B5446AF0
:1018A400236840F23A529A632046FFF7C4FF0123AB
:1018B40084F83430002323630538012805D9A36B49
:1018C40053B9204601F007FD10BD206801F0D0FC9B
:1018D400A36B0343A363F2E72046FFF7ABFFF3E7F1
:1018E40038B50446056B03685A6B12F4004F02D0F6
:1018F40015F0080F28D15A6B12F4807F5AD04FF498
:1019040080729A632268D36B23F4414323F03A0331
:10191400D3632268D36A23F00103D36215F0080F5E
:1019240026D015F0220F12D1236840F23A529A635E
:10193400012384F834300023236315F0030F13D0FC
:10194400204601F0D2FC01E0FFF71EFF38BD2068FD
:1019540001F08EFC03460028E6D0A26B1343A36378
:101964002046FFF767FFDFE7204601F0B9FCEDE70B
:1019740015F0800FEAD015F0200F0ED115F0030FEB
:10198400E4D12268D36A23F00803D362012384F8E4
:101994003430204601F0A4FCD8E7206801F068FC4C
:1019A40003460028EAD0A26B1343A3632046FFF743
:1019B40041FFE3E75A6B12F4804F02D015F0080F91
:1019C4004CD15A6B12F03A0FC0D05A6B12F0020F7E
:1019D40003D0A26B42F00202A2635A6B12F0080F0A
:1019E40003D0A26B42F00802A2635A6B12F0200FDC
:1019F40003D0A26B42F02002A2635A6B12F0100FC4
:101A040003D0A26B42F01002A26340F23A729A63CE
:101A14002268D36B23F44E7323F00203D36320684C
:101A240001F026FCA36B0343A36315F0080F19D13F
:101A340015F0800F8AD015F0300F1CD115F0030F6C
:101A440026D0236C174A5A63206CFEF7BFFF002888
:101A54003FF47CAF206CFFF721FF77E72046FFF7C8
:101A6400AFFE73E7012384F8343000232363204658
:101A7400FFF7E0FE6AE7E36B0B4A5A63E06BFEF79D
:101A8400A5FF00283FF462AFE06BFFF7E5FE5DE7DA
:101A94000023A363012284F834202363204601F049
:101AA4001AFC53E7A11800085D180008002800F08C
:101AB400048110B504460368814A93420CD0A2F510
:101AC4007842934208D002F58062934204D04FF4E6
:101AD400AB717C48FEF79CFC636813B1B3F5827F5D
:101AE4003DD1A3682BB1B3F5806F02D0B3F5004F9D
:101AF4003BD1E368B3F5006F01D0002B3BD1A36960
:101B0400B3F5007F03D013B1B3F5802F39D1E36966
:101B14006BB1082B0BD0102B09D0182B07D0202B1E
:101B240005D0282B03D0302B01D0382B2FD1236A9A
:101B34000BB1802B31D1636A002B34D1636A002B43
:101B440059D123690BB1022B33D16369012B36D8E8
:101B54006368B3F5827F38D00023E3615EE040F22E
:101B640057115848FEF754FCBBE74FF4AC71554885
:101B7400FEF74EFCBDE740F259115248FEF748FC0F
:101B8400BDE74FF4AD714F48FEF742FCBFE740F2AA
:101B94005B114C48FEF73CFCC9E74FF4AE71494871
:101BA400FEF736FCC7E740F25F114648FEF730FC0B
:101BB400C4E74FF4B1714348FEF72AFCC5E740F28D
:101BC40063114048FEF724FCC2E7E36933B3082BF2
:101BD40024D0102B22D0182B20D0202B1ED0282B21
:101BE4001CD0302B1AD0382B18D040F2671135484E
:101BF400FEF70EFC12E0E3696BB1082B0BD0102B3F
:101C040009D0182B07D0202B05D0282B03D0302B3C
:101C140001D0382B45D10023236163610023A362E3
:101C240094F85130002B42D0022384F851302268BA
:101C3400136823F040031360636803F48273A2689B
:101C440002F404421343E26802F40062134322697B
:101C540002F002021343626902F001021343A26913
:101C640002F400721343E26902F038021343226A59
:101C740002F080021343A26A02F400522168134363
:101C84000B60638B226803F0040353602268D369FA
:101C940023F40063D36100206065012384F851308C
:101CA40010BD40F271110748FEF7B2FBB3E784F8A8
:101CB40050302046FEF7CEFBB6E70120704700BF48
:101CC40000300140703A000810B4036A046A24F03A
:101CD40001040462846924F0F00C4CEA021223F03B
:101CE4000A030B438261036210BC704710B4036A99
:101CF400046A24F010040462846924F4704C4CEAED
:101D0400023223F0A00343EA01138261036210BC90
:101D14007047836823F070030B4343F00703836029
:101D2400704700002DE9F04104460D46066A036A37
:101D340023F0010303624768836923F073080B6887
:101D440043EA080826F002038E681E43204B98429B
:101D540003D003F50063984209D1EB680BB1082B5B
:101D640024D126F00806EB681E4326F00406184B1F
:101D74009C4203D003F500639C420FD1AB69B3F5D9
:101D8400007F00D0C3B96B69B3F5807F00D0CBB9B5
:101D940027F440776B693B43AF691F436760C4F81E
:101DA40018806B6863632662BDE8F08141F6C42144
:101DB4000848FEF72DFBD4E741F6D1210548FEF78C
:101DC40027FBE0E741F6D2210248FEF721FBDFE7DB
:101DD400002C0140BC3A00082DE9F04104460E46AF
:101DE400056A036A23F4807303624768C36923F0B6
:101DF40073080B6843EA080825F400758B6845EA04
:101E04000325224B984203D003F5006398420AD17C
:101E1400F3680BB1082B27D125F40065F36845EA74
:101E2400032525F48065194B9C4203D003F5006318
:101E34009C4211D1B369B3F5007F00D0D3B9736963
:101E4400B3F5807F00D0DBB927F44057736947EAC4
:101E54000317B36947EA03176760C4F81C80736803
:101E6400E3632562BDE8F08141F65C310848FEF782
:101E7400CFFAD1E741F669310548FEF7C9FADEE742
:101E840041F66A310248FEF7C3FADDE7002C01404F
:101E9400BC3A00082DE9F04104460D46066A036A7F
:101EA40023F480530362D0F80480C76927F4E6471B
:101EB4000B6847EA032726F400568B6846EA033684
:101EC4000F4B984203D003F50063984209D16B6924
:101ED400B3F5807F00D063B928F480486B6948EA81
:101EE4008318C4F80480E7616B6823642662BDE844
:101EF400F08141F6A9310348FEF78AFAECE700BF06
:101F0400002C0140BC3A000810B5044603682E4A70
:101F140093421FD002F5006293421BD0B3F1804F6D
:101F240018D0A2F59832934214D002F580629342FD
:101F340010D002F5806293420CD002F58062934285
:101F440008D002F58062934204D04FF4E8711F4830
:101F5400FEF75EFA94F83D30DBB2012B2FD1022359
:101F640084F83D302268D36843F00103D3602368CA
:101F7400154A934218D002F50062934214D0B3F18B
:101F8400804F11D0A2F5983293420DD002F58062B1
:101F9400934209D002F58062934205D01A6842F058
:101FA40001021A6000200BE09A6802F00702062A78
:101FB40007D01A6842F001021A60002000E00120F4
:101FC40010BD0020FCE700BF002C0140BC3A000813
:101FD4007047704770477047704710B504460368F0
:101FE4001A6912F0020F11D0DA6812F0020F0DD044
:101FF4006FF002021A610123037703689B6913F0EF
:10200400030F70D0FFF7E6FF0023237723681A69D4
:1020140012F0040F12D0DA6812F0040F0ED06FF031
:1020240004021A610223237723689B6913F4407F17
:102034005FD02046FFF7CEFF0023237723681A6979
:1020440012F0080F12D0DA6812F0080F0ED06FF0F9
:1020540008021A61042323772368DB6913F0030F52
:102064004ED02046FFF7B6FF0023237723681A6972
:1020740012F0100F12D0DA6812F0100F0ED06FF0B9
:1020840010021A61082323772368DB6913F4407F65
:102094003DD02046FFF79EFF0023237723681A696B
:1020A40012F0010F03D0DA6812F0010F36D1236861
:1020B4001A6912F0800F03D0DA6812F0800F34D15D
:1020C40023681A6912F0400F03D0DA6812F0400F47
:1020D40032D123681A6912F0200F03D0DA6812F0A3
:1020E400200F30D110BDFFF774FF2046FFF773FFB8
:1020F4008AE72046FFF76DFF2046FFF76CFF9BE75A
:102104002046FFF766FF2046FFF765FFACE7204651
:10211400FFF75FFF2046FFF75EFFBDE76FF00102A8
:102124001A61204601F0E6F8C1E76FF080021A61F7
:10213400204600F090FEC3E76FF040021A6120468B
:10214400FFF74AFFC5E76FF020021A61204600F04E
:1021540081FEC7E70368244A904212D002F5006268
:1021640090420ED0B0F1804F0BD0A2F5983290423D
:1021740007D002F58062904203D002F5806290425B
:1021840003D123F070034A681343174A904212D0D4
:1021940002F5006290420ED0B0F1804F0BD0A2F550
:1021A4009832904207D002F58062904203D002F543
:1021B4008062904203D123F44073CA68134323F02E
:1021C40080034A69134303608B68C3620B688362AC
:1021D400054B984203D003F50063984201D10B6983
:1021E4000363012343617047002C0140002800F081
:1021F400828010B504460368404A93421FD002F51A
:10220400006293421BD0B3F1804F18D0A2F59832EC
:10221400934214D002F58062934210D002F580629A
:1022240093420CD002F58062934208D002F580629A
:10223400934204D040F213113148FEF7E9F8A36841
:102244003BB1102B05D0202B03D0402B01D0602BA9
:1022540033D123692BB1B3F5807F02D0B3F5007F6E
:1022640031D1E368013B4FF6FE72934231D8A36942
:102274000BB1802B33D194F83D30B3B3022384F8EF
:102284003D30214651F8040BFFF764FF012384F825
:10229400463084F83E3084F83F3084F8403084F887
:1022A400413084F8423084F8433084F8443084F870
:1022B400453084F83D30002010BD4FF48A71104839
:1022C400FEF7A6F8C5E740F215110D48FEF7A0F891
:1022D400C7E74FF48B710A48FEF79AF8C7E740F254
:1022E40017110748FEF794F8C5E784F83C302046F8
:1022F400FEF74AF9C2E70120704700BF002C0140F5
:10230400BC3A0008002800F0828010B50446036837
:10231400404A93421FD002F5006293421BD0B3F1AE
:10232400804F18D0A2F59832934214D002F58062FF
:10233400934210D002F5806293420CD002F5806281
:10234400934208D002F58062934204D040F22C51AB
:102354003148FEF75DF8A3683BB1102B05D0202B64
:1023640003D0402B01D0602B33D123692BB1B3F5BB
:10237400807F02D0B3F5007F31D1E368013B4FF693
:10238400FE72934231D8A3690BB1802B33D194F8F8
:102394003D30B3B3022384F83D30214651F8040B99
:1023A400FFF7D8FE012384F8463084F83E3084F8E1
:1023B4003F3084F8403084F8413084F8423084F867
:1023C400433084F8443084F8453084F83D300020AC
:1023D40010BD40F22D511048FEF71AF8C5E740F23F
:1023E4002E510D48FEF714F8C7E740F22F510A4862
:1023F400FEF70EF8C7E74FF4A6610748FEF708F8A2
:10240400C5E784F83C302046FFF7E2FDC2E701202F
:10241400704700BF002C0140BC3A00082DE9F04190
:1024240004460E46056A036A23F010030362D0F8DB
:102434000480876927F4E6470B6847EA032725F0F9
:1024440020058B6845EA0315224B984203D003F517
:10245400006398420AD1F3680BB1082B27D125F009
:102464008005F36845EA031525F04005194B9C42A5
:1024740003D003F500639C4211D1B369B3F5007F27
:1024840000D0D3B97369B3F5807F00D0DBB928F4E9
:102494004068736948EA8308B36948EA8308C4F862
:1024A4000480A7617368A3632562BDE8F08141F6E7
:1024B40010310948FDF7ACFFD1E741F61E3106485B
:1024C400FDF7A6FFDEE741F61F310348FDF7A0FF45
:1024D400DDE700BF002C0140BC3A000870B504469B
:1024E4000D4616463AB1042A05D0082A03D00C2A10
:1024F40001D03C2A26D12B68602B01D0702B27D128
:10250400AB680BB1022B29D12B690BB1042B2BD156
:1025140094F83C30012B00F0F880012384F83C301F
:102524000C2E00F2ED80DFE816F02500EB00EB0046
:10253400EB005600EB00EB00EB008800EB00EB0037
:10254400EB00B90041F27E017148FDF761FFD2E76B
:1025540041F27F016E48FDF75BFFD1E74FF48451F0
:102564006B48FDF755FFCFE741F281016848FDF75D
:102574004FFFCDE72368674A934217D002F5006204
:10258400934213D0B3F1804F10D0A2F59832934206
:102594000CD002F58062934208D002F58062934227
:1025A40004D041F28B015A48FDF732FF29462068D6
:1025B400FFF7B8FB2268936943F00803936122682C
:1025C400936923F0040393612268936929690B4397
:1025D4009361002095E023684E4A934217D002F598
:1025E4000062934213D0B3F1804F10D0A2F5983219
:1025F40093420CD002F58062934208D002F58062C7
:10260400934204D041F29C014148FDF701FF294661
:102614002068FFF703FF2268936943F40063936122
:102624002268936923F4806393612268936929691A
:1026340043EA01239361002063E02368354A93420F
:1026440017D002F50062934213D0B3F1804F10D03B
:10265400A2F5983293420CD002F58062934208D0DE
:1026640002F58062934204D041F2AD012848FDF79F
:10267400CFFE29462068FFF7AFFB2268D36943F0F9
:102684000803D3612268D36923F00403D361226869
:10269400D36929690B43D361002032E023681D4AC2
:1026A400934217D002F50062934213D0B3F1804FE6
:1026B40010D0A2F5983293420CD002F58062934276
:1026C40008D002F58062934204D041F2BE01104862
:1026D400FDF79EFE29462068FFF7DCFB2268D369DC
:1026E40043F40063D3612268D36923F48063D36124
:1026F4002268D369296943EA0123D361002000E0F9
:102704000120002384F83C3070BD0220FCE700BFA8
:10271400BC3A0008002C014010B4846824F47F4CB7
:1027240042EA03220A4342EA0C02826010BC704768
:1027340038B590F83C30012B00F0208204460D4659
:10274400012380F83C30022380F83D300B68B3F558
:10275400805F11D0702B0FD0B3F5005F0CD0402BED
:102764000AD0502B08D0602B06D02BB1102B03D0ED
:10277400202B01D0302B46D12268936823F47F4369
:1027840023F0770393602B68602B00F0698176D87F
:10279400402B00F0A4813CD9502B6ED12368A24A6F
:1027A400934217D002F50062934213D0B3F1804FE5
:1027B40010D0A2F5983293420CD002F58062934275
:1027C40008D002F58062934204D041F2FD4197485B
:1027D400FDF71EFE6B68B3F5004F05D023B1022B45
:1027E40002D00A2B40F03081EB680F2B00F23281CB
:1027F400EA6869682068FFF767FA50212068FFF7E4
:1028040088FA00200BE041F2BE418848FDF700FE43
:10281400B2E7202B0DD009D9302B0AD00120012397
:1028240084F83D30002384F83C3038BD0BB1102BC4
:1028340021D123687C4A934217D002F50062934267
:1028440013D0B3F1804F10D0A2F5983293420CD03C
:1028540002F58062934208D002F58062934204D06C
:1028640041F230517148FDF7D3FD29682068FFF724
:1028740050FA0020D3E70120D1E70120CFE7B3F5D8
:10288400805F00F08A80B3F5005F42D12368664A16
:10289400934217D002F50062934213D0B3F1804FF4
:1028A40010D0A2F5983293420CD002F58062934284
:1028B40008D002F58062934204D041F2E9415B48BA
:1028C400FDF7A6FDAB684BB1B3F5805F06D0B3F559
:1028D400005F03D0B3F5405F40F09F806B68B3F5B1
:1028E400004F05D023B1022B02D00A2B40F0A08068
:1028F400EB680F2B00F2A280EB686A68A968206875
:10290400FFF70AFF2268936843F480439360002032
:1029140085E7702B3FD12368434A934217D002F5D1
:102924000062934213D0B3F1804F10D0A2F59832D5
:1029340093420CD002F58062934208D002F5806283
:10294400934204D041F2D1413848FDF761FDAB68B0
:1029540043B1B3F5805F05D0B3F5005F02D0B3F5A2
:10296400405F48D16B68B3F5004F04D01BB1022B14
:1029740001D00A2B45D1EB680F2B48D8EB686A6865
:10298400A9682068FFF7C8FE2268936843F07703BC
:102994009360002043E7012041E72368224A9342E1
:1029A40000F0DC8002F50062934200F0D980B3F1BC
:1029B400804F00F0D780A2F59832934200F0D48083
:1029C40002F58062934200F0D18002F58062934266
:1029D40000F0CE8002F58062934200F0CB8002F5D5
:1029E4008062934200F0C88041F2CA410F48FDF76B
:1029F4000FFD002013E741F2D4410C48FDF708FD18
:102A0400B0E741F2D5410948FDF702FDB3E741F2D1
:102A1400D6410648FDF7FCFCB0E741F2EC4103481F
:102A2400FDF7F6FC5AE700BF002C0140BC3A000851
:102A340041F2ED415248FDF7EBFC59E741F2EE411A
:102A44004F48FDF7E5FC57E74FF4A8514C48FDF714
:102A5400DFFCC9E641F201514948FDF7D9FCC7E65C
:102A64002368484A934217D002F50062934213D078
:102A7400B3F1804F10D0A2F5983293420CD002F5F6
:102A84008062934208D002F58062934204D041F2FE
:102A94000D513B48FDF7BCFC6B68B3F5004F04D007
:102AA4001BB1022B01D00A2B0DD1EB680F2B10D8D0
:102AB400EA6869682068FFF719F960212068FFF760
:102AC40028F90020ABE641F210512D48FDF7A0FC97
:102AD400EBE741F211512A48FDF79AFCE8E7236835
:102AE400284A934217D002F50062934213D0B3F1FF
:102AF400804F10D0A2F5983293420CD002F5806238
:102B0400934208D002F58062934204D041F21D51F1
:102B14001B48FDF77DFC6B68B3F5004F04D01BB177
:102B2400022B01D00A2B0DD1EB680F2B10D8EA68C9
:102B340069682068FFF7C8F840212068FFF7E9F8C2
:102B440000206CE64FF4A9510D48FDF761FCEBE75A
:102B540041F221510A48FDF75BFCE8E700205EE6FC
:102B640000205CE600205AE6002058E6002056E6E5
:102B7400002054E6002052E6002050E6022054E6ED
:102B8400BC3A0008002C014070B504460D461646B8
:102B94001C4B984217D003F50063984213D0B0F150
:102BA400804F10D0A3F5983398420CD003F580637E
:102BB400984208D003F58063984204D041F69251BC
:102BC4001148FDF725FC3DB1042D05D0082D03D097
:102BD4000C2D01D03C2D0ED105F01F05012303FA65
:102BE40005F2236A23EA02032362236A06FA05F53F
:102BF4001D43256270BD41F693510348FDF708FC5F
:102C0400EAE700BF002C0140BC3A000838B505468D
:102C14000C4603684B4A934212D002F50062934279
:102C24000ED0B3F1804F0BD0A2F59832934207D067
:102C340002F58062934203D002F58062934206D18A
:102C440054B1042C08D0082C06D00C2C04D040F22B
:102C5400B3513D48FDF7DCFB002C3AD195F83E30EA
:102C6400DBB2013B18BF0123002B66D1002C49D1F4
:102C7400022385F83E30012221462868FFF784FFAD
:102C84002B68304A934203D002F50062934203D189
:102C94005A6C42F400425A642B682A4A934241D047
:102CA40002F5006293423DD0B3F1804F3AD0A2F5D1
:102CB4009832934236D002F58062934232D002F5C4
:102CC400806293422ED01A6842F001021A600020FA
:102CD40032E0042C08D0082C0DD095F84130DBB23A
:102CE400013B18BF0123BFE795F83F30DBB2013B3E
:102CF40018BF0123B8E795F84030DBB2013B18BF99
:102D04000123B1E7042C05D0082C07D0022385F851
:102D14004130B0E7022385F83F30ACE7022385F861
:102D24004030A8E79A6802F00702062A07D01A681A
:102D340042F001021A60002038BD0120FCE70020A7
:102D4400FAE700BF002C0140BC3A000838B504463D
:102D54000D4603683D4A93421FD002F50062934238
:102D64001BD0B3F1804F18D0A2F59832934214D0FF
:102D740002F58062934210D002F5806293420CD037
:102D840002F58062934208D002F58062934204D037
:102D940040F2B4712E48FDF73BFB2B686BB1102B4E
:102DA4000BD0202B09D0302B07D0402B05D0502B33
:102DB40003D0602B01D0702B39D16B68802B01D0EC
:102DC400002B3AD194F83C30012B3CD0012384F8F9
:102DD4003C30022384F83D3023685968986821F018
:102DE40070012A680A435A602368184A934212D031
:102DF40002F5006293420ED0B3F1804F0BD0A2F5DE
:102E04009832934207D002F58062934203D002F5D0
:102E14008062934204D120F080006A681043986075
:102E2400012384F83D30002084F83C0038BD40F292
:102E3400B5710748FDF7ECFABFE740F2B6710448F4
:102E4400FDF7E6FABEE70220F0E700BF002C0140E0
:102E5400083B00087047704710B504464268384B79
:102E64009A4257D8E36813B1B3F5005F58D1236988
:102E74002BB1B3F5806F02D0B3F5C06F56D163693F
:102E84004FF6F372134200D123B940F669612D481D
:102E9400FDF7BEFA2268136923F44053E1680B433B
:102EA4001361A3682269134362691A432168CB68DA
:102EB40023F4B05323F00C031343CB60226853690B
:102EC40023F44073A1690B43536122681E4B9A4259
:102ED40032D0FEF739FC024602EB820202EB820298
:102EE40063689B00B2FBF3F21848A0FB0231490966
:102EF400642303FB11231B013233A0FB03235B096F
:102F040003F0F00202EB011203F00F0321681344F3
:102F14008B6010BD40F666610A48FDF779FAA1E7B7
:102F240040F667610748FDF773FAA0E740F6686169
:102F34000448FDF76DFAA2E7FEF716FC0246CBE75C
:102F440020AA4400583B0008003801401F85EB517B
:102F5400002875D010B5044683690BB30368394A59
:102F640093420CD0A2F57442934208D002F58062D9
:102F7400934204D04FF4B7713348FDF749FAA3697B
:102F84003BB3B3F5807F24D0B3F5007F21D0B3F5F4
:102F9400407F1ED040F26F112B48FDF739FA18E03C
:102FA4000368284A934214D0A2F57442934210D085
:102FB40002F5806293420CD002F58062934208D0FD
:102FC40002F58062934204D040F273111E48FDF76B
:102FD4001FFAA36813B1B3F5805F25D194F841308B
:102FE40043B3242384F841302268D36823F4005384
:102FF400D3602046FFF730FF2268136923F490431F
:1030040013612268536923F02A0353612268D36849
:1030140043F40053D36000206064202384F84130DB
:1030240084F84230606310BD40F275110648FDF724
:10303400EFF9D3E784F840302046FDF777FBD0E77B
:103044000120704700380140583B0008D0F8800048
:1030540070470B68C0F880300020704738B50546CB
:103064000C464B683F2B24D8A3681BB1402B01D0DE
:10307400C02B24D1E3682BB1B3F5807F02D0B3F524
:10308400007F22D1236913B1B3F5806F23D1236864
:10309400AB606368A2681343E26813432269134375
:1030A400EA6822F47F6222F00F021343EB600020EF
:1030B40038BD4FF4B0710B48FDF7AAF9D4E740F2DC
:1030C40061110848FDF7A4F9D4E74FF4B17105483C
:1030D400FDF79EF9D6E740F263110248FDF798F92F
:1030E400D5E700BFA43B00080069C0B270470000E8
:1030F40038B504460D4629B1042903D0082901D066
:103104000C2902D11434605938BD40F28F110248A1
:10311400FDF77EF9F6E700BFA43B000838B5044686
:103124000D46504B1B685049A1FB03135B0A03FB7C
:1031340002F21346013A002B5DD0636B13F0450F86
:10314400F7D013F4006FF4D1636B13F0040F06D1BE
:10315400636B13F0010F05D00120A0634DE0042040
:10316400A0634AE0C523A3632046FFF7BDFFA8423E
:1031740001D0012041E000212046FFF7B9FF0346BA
:103184003A481840C8B3002B38DB13F0804F38D1CD
:1031940013F0005F37D113F0805F36D113F0006F66
:1031A40036D113F0806F36D113F0807F36D113F40B
:1031B400000F36D113F4800F36D113F4001F36D12B
:1031C40013F4801F36D113F4802F36D113F4003F4B
:1031D40036D113F4803F36D113F4004F36D113F4B3
:1031E400804F36D113F4005F36D113F0080F36D078
:1031F4004FF4000001E04FF0004038BD4FF0007084
:10320400FBE74020F9E78020F7E74FF48070F4E70C
:103214004FF40070F1E74FF48060EEE74FF4006084
:10322400EBE74FF48050E8E74FF40050E5E74FF444
:103234008040E2E74FF40040DFE74FF40030DCE782
:103244004FF48020D9E74FF40020D6E74FF48010E4
:10325400D3E74FF40010D0E74FF48000CDE74FF4EC
:103264008030CAE700000020D34D621008E0FFFD63
:1032740030B587B00446002301930C250295402203
:10328400039204934FF48063059301A9FFF7E6FECC
:10329400034A29462046FFF741FF07B030BD00BF6F
:1032A40000E1F50530B587B0044601910D2502957E
:1032B40040230393002304934FF48063059301A9EF
:1032C400FFF7CCFE41F2883229462046FFF726FF5D
:1032D40007B030BD704708B5FFF7FCFF08BD704765
:1032E40008B5FFF7FCFF08BD704708B5FFF7FCFF02
:1032F40008BD000008B502680A4B9A4200D008BD18
:10330400094B1B68632B04DC074A13680133136001
:10331400F5E74FF400710548FDF702FE024B002269
:103324001A60F1E70010004010060020000C014074
:103334004FF0804318647047074B9B6813F0020FEB
:10334400FAD0054BD860044B9B6813F0010FFAD0F8
:10335400014BD868C0B270470038004010B5074C24
:103364004FF0005323614FF000732361C0B2FFF7A5
:10337400E3FF4FF40053236110BD00BF001401406C
:1033840010B5064C4FF0005323614FF400732361D2
:10339400FFF7D2FF4FF40053236110BD0014014026
:1033A40008B5CF20FFF7DAFF0020FFF7E9FF8120FF
:1033B400FFF7E6FF3020FFF7E3FFED20FFF7CEFF36
:1033C4006420FFF7DDFF0320FFF7DAFF1220FFF789
:1033D400D7FF8120FFF7D4FFE820FFF7BFFF852048
:1033E400FFF7CEFF1020FFF7CBFF7820FFF7C8FFD1
:1033F400CB20FFF7B3FF3920FFF7C2FF2C20FFF7E4
:10340400BFFF0020FFF7BCFF3420FFF7B9FF022005
:10341400FFF7B6FFF720FFF7A1FF2020FFF7B0FF6B
:10342400EA20FFF79BFF0020FFF7AAFF0020FFF729
:10343400A7FFB120FFF792FF0020FFF7A1FF1B2099
:10344400FFF79EFFB620FFF789FF0A20FFF798FFDA
:10345400A220FFF795FFC020FFF780FF3520FFF77C
:103464008FFFC120FFF77AFF1120FFF789FFC520E6
:10347400FFF774FF4520FFF783FF4520FFF780FF28
:10348400C720FFF76BFFA220FFF77AFFF220FFF7B8
:1034940065FF0020FFF774FF2620FFF75FFF012080
:1034A400FFF76EFFE020FFF759FF0F20FFF768FFDB
:1034B4002620FFF765FF2420FFF762FF0B20FFF7AC
:1034C4005FFF0E20FFF75CFF0920FFF759FF542030
:1034D400FFF756FFA820FFF753FF4620FFF750FFE2
:1034E4000C20FFF74DFF1720FFF74AFF0920FFF7D5
:1034F40047FF0F20FFF744FF0720FFF741FF00209D
:10350400FFF73EFFE120FFF729FF0020FFF738FF18
:103514001920FFF735FF1B20FFF732FF0420FFF7C8
:103524002FFF1020FFF72CFF0720FFF729FF2A2089
:10353400FFF726FF4720FFF723FF3920FFF720FF7F
:103544000320FFF71DFF0620FFF71AFF0620FFF7F1
:1035540017FF3020FFF714FF3820FFF711FF0F206B
:10356400FFF70EFF3620FFF7F9FEA020FFF708FF54
:103574002A20FFF7F3FE0020FFF702FF0020FFF7E9
:10358400FFFE0020FFF7FCFEEF20FFF7F9FE2B20E3
:10359400FFF7E4FE0020FFF7F3FE0020FFF7F0FE44
:1035A4000120FFF7EDFE3F20FFF7EAFE3A20FFF788
:1035B400D5FE5520FFF7E4FE1120FFF7CFFE78205B
:1035C400FDF760F92920FFF7C9FE08BD38B5134C93
:1035D40000232370A3604FF4F07363804FF4A0734F
:1035E400A380FCF71DFEFCF715FF0D4B1A6813684A
:1035F40043F0400313600B4D4FF000632B616420D4
:10360400FDF740F94FF400632B613220FDF73AF9DE
:10361400FFF7C6FE0123237038BD00BF1406002047
:10362400DC0400200014014038B50446084D4FF076
:1036340000532B614FF400732B61000AFFF77CFEEB
:10364400E0B2FFF779FE4FF400532B6138BD00BFA1
:1036540000140140F8B507460D4616461C462A20BC
:10366400FFF77CFE380AFFF78BFEF8B2FFF788FEFF
:10367400300AFFF785FEF0B2FFF782FE2B20FFF73A
:103684006DFE280AFFF77CFEE8B2FFF779FE200AF8
:10369400FFF776FEE0B2FFF773FE2C20FFF75EFE25
:1036A400F8BD10B50B4614460246FFF7D3FF20467B
:1036B400FFF7BAFF10BD70B5BDF81060151A5C1A9B
:1036C400013405FB0444FFF7C5FF03E03046FFF770
:1036D400ABFF2C46651E002CF8D170BD08B5FDF774
:1036E400ADF8FCF763FEFCF79BFDFDF705F8FCF76E
:1036F400ADFFFCF721FFFFF769FF0548FEF704FC67
:103704000C210448FFF782FA6420FFF711FE08BD7C
:103714007C0500203405002070B582B0FFF7DEFF81
:103724004FF6FF7300934FF4A0734FF4F07200212F
:103734000846FFF7C0FF0026344613E00C4B1A5D21
:10374400611C5B5C02EB032292B2B1B2A8B2FFF738
:10375400A8FF0234A4B20135632DEFDD0120FDF78B
:1037640091F80136632E01DC0025F5E7FEE700BF82
:10377400F03B000870B50D4E0D4D761BB61006D00B
:10378400002455F8043B01349847A642F9D1094E68
:10379400094D00F0D5F8761BB61006D0002455F874
:1037A400043B01349847A642F9D170BD148A00083D
:1037B400148A00081C8A0008148A0008830730B59C
:1037C40048D0541E002A3FD00346CAB201E0013C4F
:1037D4003AD303F8012B9D07F9D1032C2DD9CDB28F
:1037E40045EA05250F2C45EA054536D9A4F1100212
:1037F40022F00F0C03F1200EE6444FEA121C03F1F1
:10380400100242E9045542E9025510327245F8D1DA
:103814000CF1010214F00C0F03EB021204F00F0C74
:1038240013D0ACF1040323F003030433134442F82C
:10383400045B9342FBD10CF003042CB1CAB21C44C8
:1038440003F8012B9C42FBD130BD64461346002C87
:10385400F4D1F9E703461446BFE71A46A446E0E765
:10386400024B13B1024800F005B870470000000095
:1038740085380008002301461A46184600F01AB895
:1038840038B5084B084D5B1B9C1007D0043B1D4406
:10389400013C55F804399847002CF9D1BDE838406B
:1038A40000F054B8208A00081C8A0008704700BF42
:1038B400704700BF2DE9F047DFF87CA00646DAF830
:1038C400000098460F469146FFF7F0FF1B4B1B681C
:1038D400D3F8484124B365681F2D26DC5EB96B1C00
:1038E4000235DAF80000636044F82570FFF7E0FF62
:1038F4000020BDE8F087012304EB8501C1F888901E
:10390400D4F88821AB401A43022EC4F88821C1F8A8
:103914000881E4D1D4F88C211343C4F88C31DEE758
:1039240003F5A674C3F84841D5E7DAF80000FFF7B9
:10393400BFFF4FF0FF30DCE738040020108A000896
:10394400F8B500BFF8BC08BC9E467047F8B500BF88
:08395400F8BC08BC9E46704758
:10395C000000000000000000010203040607080933
:10396C000000000001020304443A5C53544D33320E
:10397C005C50726F6A6563745C546F6F6C5C4472FC
:10398C0069766572735C53544D3332463178785F87
:10399C0048414C5F4472697665725C5372635C7328
:1039AC00746D3332663178785F68616C5F636F7207
:1039BC007465782E63000000443A5C53544D3332E6
:1039CC005C50726F6A6563745C546F6F6C5C4472AC
:1039DC0069766572735C53544D3332463178785F37
:1039EC0048414C5F4472697665725C5372635C73D8
:1039FC00746D3332663178785F68616C5F677069BB
:103A0C006F2E6300443A5C53544D33325C50726FEA
:103A1C006A6563745C546F6F6C5C44726976657232
:103A2C00735C53544D3332463178785F48414C5F68
:103A3C004472697665725C5372635C73746D333275
:103A4C00663178785F68616C5F7263632E63000027
:103A5C0002030405060708090A0B0C0D0E0F1010C3
:103A6C0001020000443A5C53544D33325C50726F87
:103A7C006A6563745C546F6F6C5C447269766572D2
:103A8C00735C53544D3332463178785F48414C5F08
:103A9C004472697665725C5372635C73746D333215
:103AAC00663178785F68616C5F7370692E630000B3
:103ABC00443A5C53544D33325C50726F6A65637494
:103ACC005C546F6F6C5C447269766572735C5354B2
:103ADC004D3332463178785F48414C5F4472697699
:103AEC0065725C5372635C73746D333266317878D3
:103AFC005F68616C5F74696D2E630000443A5C53BF
:103B0C00544D33325C50726F6A6563745C546F6FE2
:103B1C006C5C447269766572735C53544D333246F7
:103B2C003178785F48414C5F4472697665725C53BA
:103B3C0072635C73746D3332663178785F68616C74
:103B4C005F74696D5F65782E63000000443A5C53C6
:103B5C00544D33325C50726F6A6563745C546F6F92
:103B6C006C5C447269766572735C53544D333246A7
:103B7C003178785F48414C5F4472697665725C536A
:103B8C0072635C73746D3332663178785F68616C24
:103B9C005F756172742E6300443A5C53544D33323A
:103BAC005C50726F6A6563745C546F6F6C5C4472CA
:103BBC0069766572735C53544D3332463178785F55
:103BCC0048414C5F4472697665725C5372635C73F6
:103BDC00746D3332663178785F6C6C5F73646D6DC5
:103BEC00632E6300043A043A033A033AC231C231F9
:103BFC00A229A229C229C22903320332433A433AE9
:103C0C00433A433A433A433A64426442644264421C
:103C1C00433A433A433A433A64426442E552E552EA
:103C2C002653665BC76BC76BE773287C28742874B4
:103C3C00487C487C6984698469846984297C297CF2
:103C4C00C873C87327632763E652E652864A864ACE
:103C5C00454A454A654A654A654A654A654A654A20
:103C6C0065426542E439E439E431E431043A043A1A
:103C7C00243A243AA331A3316229622962296229A8
:103C8C008331622942212119A110A11081108110C8
:103C9C00A110A11081088108600860084008400844
:103CAC00200060086008600880108110043A043A13
:103CBC00033A033AC231C231A229A229C229C2292C
:103CCC0003320332433A433A433A433A433A433A90
:103CDC006442644264426442433A433A433A433A4C
:103CEC0064426442C44AE552665B665BC76B087407
:103CFC00287C287C487C487C487C487C6984698486
:103D0C0069846984297C297C0874C873676B276370
:103D1C00E652E652864A864A454A454A654A654A0B
:103D2C00654A654A654A654A65426542E439E43943
:103D3C00E431E431043A043A243A243AE331A3312D
:103D4C006229622941216229622962292119E11023
:103D5C00A110A11081108110A110A110810881085F
:103D6C0060086008400840082000200040086008F7
:103D7C0040088010033A033AE231E231C231C231D9
:103D8C00C229C229C229C22902320232433A433A19
:103D9C00433A433A634263428442844283428342BD
:103DAC00633A633A84428442C44AC44AE54A25537E
:103DBC0086638663E773E773487C487C6884688411
:103DCC00697C697C697C697C287C287CE873E87355
:103DDC00A76BA76B4763476326632663A652A6525D
:103DEC0086528652854A854AA552A552854A854AED
:103DFC00854A854A44424442244224424442644215
:103E0C0064426442E331E3318229822962296229C6
:103E1C006221622121192119C110C110800880086A
:103E2C00A010A010A010A0108008800860086008E6
:103E3C00400040004000400060088008033A033A0C
:103E4C00E231E231C231C231C229C229C229C229AE
:103E5C0002320232433A433A433A433A63426342B0
:103E6C008442844283428342633A633A844284426A
:103E7C00C44AC44A255325538663C76BE773E7735B
:103E8C00487C487C68846884697C697C697C697C32
:103E9C00287C287CE873E873A76BA76B47634763A0
:103EAC0026632663A652A65286528652854A854AB6
:103EBC00A552A552854A854A854A854AA54A854A0E
:103ECC00854A854AA54AA54A64426442243AE331AC
:103EDC0082298229622962296221622121192119F0
:103EEC00C110C11080088008A010A010A010A01054
:103EFC0080088008600860084000400040004000D6
:103F0C0060088010C331C331C231C231C229C22909
:103F1C00C229C229C229C229233A233A433A433A35
:103F2C00433A433A63426342844284428442844229
:103F3C0084428442C44AC44A05530553265326532B
:103F4C00A763A76308740874487C487C4884488439
:103F5C00497C497C487C487CE873E873C873C87317
:103F6C00A86BA86B676B676B676B676BE65AE65A57
:103F7C00E65AE65A065B065B065B065B065B065B6F
:103F8C00065B065BE652E652E652E652E652E65213
:103F9C00A54AA54A24422442C331C331822982292D
:103FAC0082298229622962292221222101190119DF
:103FBC004121412101190119C010C010A010A010FD
:103FCC0080088008600860088008A010C331C331E5
:103FDC00C231C231C229C229C229C229C229C2296D
:103FEC00233A233A433A433A433A433A63426342CD
:103FFC00844284428442844284428442C44AC44AF5
:10400C00055305532653665BA763E76B0874087466
:10401C00487C487C48844884497C497C487C487C62
:10402C00E873E873C873C873A86BA86B676B676B8E
:10403C00676B676BE65AE65AE65AE65A065B065B0E
:10404C00065B065B065B065B065B465B265B265BDC
:10405C00065BE652E652E652A54AA54A24422442A1
:10406C00C331C3318229822982298229622962299A
:10407C00822922214121412141214121011901198A
:10408C00C010C010A010A010800880086008600844
:10409C00A010C010C331C331C231C231C231C231E0
:1040AC00C231C231E231E231023A023A433A433A86
:1040BC006342634263426342844284428442844248
:1040CC00A442A442E54AE54A055305532653665BD0
:1040DC00C76BC76B08740874497C497C6984698414
:1040EC0069846984497C497CE873E873C873C87334
:1040FC00C873C873A873A873886B476B076307638F
:10410C00E65AE65A266326632663266346634663AD
:10411C006763676367636763265B265B065B065BA7
:10412C00C652A54A644A644A24422442E339C3393C
:10413C00C331C331C331C331C331C331C231C231D5
:10414C00C22961214121412121192119001900198C
:10415C00E010E010A010A010C010E018C331C33163
:10416C00C231C231C231C231C231C231E231E2316B
:10417C00023A023A433A433A63426342634263422D
:10418C008442844284428442A442A442E54AE54AE1
:10419C00055305532653665BC76BC76B08740874CD
:1041AC00497C497C6984698469846984497C497C3B
:1041BC00E873E873C873C873C873C873A873A8731B
:1041CC00886B886B07630763E65AE65A2663266397
:1041DC002663266346634663676367636763676347
:1041EC00265B265B065B065BE552A54A644A644A7D
:1041FC006442644223422342234223422342234209
:10420C002342233A233A233A0232C229A2294121DA
:10421C0081216121612160214019E0100011001100
:10422C0000192121A231A231A231A231E231E231B5
:10423C00E231E23102320232233A233A433A433A30
:10424C006342634263426342A442A442A442A44236
:10425C00C44AC44A05530553465B465B465B465B02
:10426C00A763A76308740874497C497C69846984D2
:10427C00898489846984297CE873E873C86BC86B6A
:10428C00E873E87308740874A8736763075B075BCB
:10429C00065B065B2663266346634663666366635A
:1042AC00876B876B876B876B876B876B66636663C4
:1042BC006563E552C552C552E552E552C55284526A
:1042CC00844A844AA44AA452A452A44AA44A844AC2
:1042DC00634263420232E231C229C2290132A1296E
:1042EC00A02960216021602140216121A231A231ED
:1042FC00A231A231E231E231E231E2310232023258
:10430C00233A233A433A433A634263426342634259
:10431C00A442A442A442A442C44AC44A055305532D
:10432C00465B465B465B465BA763A76308740874F1
:10433C00497C497C69846984898489846984698419
:10434C00E873E873C86BC86BE873297C087408744D
:10435C00A86B6763075B075B065B065B26632663DC
:10436C004663466366636663876B876B876B876B95
:10437C00876B876BA76BC66BA66B6563455B455BF1
:10438C00456345634563055BE55AE55A055B055B8B
:10439C00255B255BE452E452C44A6342433A433AF8
:1043AC00223A223A01320132A029A029602160214F
:1043BC0081218129C331C331C331C331E331E331AD
:1043CC00033A033A233A233A434243426342634259
:1043DC006342634284428442A44AA44AC44AC44A03
:1043EC00E44AE44AE54AE54A465B465B465B465B83
:1043FC006763A76309740974497C497C898C898C2F
:10440C00AA94AA948A84497C297C297C497C497C7D
:10441C0069846984497C097C886B886B4763476332
:10442C0027632763476B476B476B676BC973676B76
:10443C00676BE9734B7C876BA773E773077C077C0F
:10444C00067CE673C66BC66BE673E673C673866B47
:10445C006563656366636663866B866B6663255B03
:10446C0004530453C44AC44A834263428242423ACC
:10447C0021322132E131E131A129C129C331C331CA
:10448C00C331C331E331E331033A033A233A233ADC
:10449C0043424342634263426342634284428442E6
:1044AC00A44AA44AC44AC44AE44AE44AE54AE54A4E
:1044BC00465B465B465B465BA763A763097409745E
:1044CC00497C497C898C898CAA94AA948A848A8494
:1044DC00297C297C497C497C69846984497C297CB8
:1044EC00C86B886B47634763276327632B84CD9422
:1044FC00AF8C7DBF9DC7F8B6D9AEDDD738CFF9C626
:10450C007ACF95B6C99467846684067C267C277C12
:10451C00277C477C277CC673C673C673C673A76B90
:10452C00866B866B66636663045304530453C44AF8
:10453C00A44AA44A82428242623A2132E131E131F8
:10454C00C131C231C331C331C331C331E331E33182
:10455C00033A033A43424342644264426442644233
:10456C0064426442A44AA44AE44AE44A055305530B
:10457C0005530553465B465B465B465B465B465BB9
:10458C008763C86B0874497C898C898CCA94CA94DB
:10459C00EA9CEA9CAA8CAA8C8A848A848A848A845F
:1045AC00AA8CAA8C8984497CE873A86B67636763BF
:1045BC00686B309D9BE77BD7BDD7BBDFB6E7B6E713
:1045CC0077CF77CF58C7B9D7B8D778CF52B6E89C42
:1045DC002A9DE89486848784A884A8848784878409
:1045EC00277C267C277CE773E773E773866B866BE7
:1045FC0045634563255B255BE452E452E34AE34A99
:10460C00A242A24222322232E231E231C331C33120
:10461C00C331C331E331E331033A033A43424342FA
:10462C00644264426442644264426442A44AA44ABE
:10463C00E44AE44A0553055305530553465B465B70
:10464C00465B465B465B465B8763C86B497C497C33
:10465C00898C898CCA94CA94EA9CEA9CAA8CAA8CF0
:10466C008A848A848A848A84AA8CAA8C497C497C10
:10467C00E873E87367636763F4B5DDDFFFCFBFBF33
:10468C007E9F7AAFF1AE3AA7F8A691AE4EBE14CF8C
:10469C0032D737BF39B75ACF9AE739CF2A95C78C5B
:1046AC00A884E88CE88C8784878C878C277C277C73
:1046BC00E773E773C76B866B45634563255B255BC7
:1046CC00E452E4520453E34AA242A242223222327E
:1046DC00E231E231C331C331E331E331033A033A1E
:1046EC00233A233A64426442844A844A844A844A80
:1046FC0064426442C44AC44A0553055325532553A6
:10470C00665B665BA763A76387638763876387635F
:10471C00A763C86B497C8A84CA8CCA8CEA9CEA9CC5
:10472C00EB9CEB9CEB94EB94AA8CAA8CEA94EA9409
:10473C00EA94CA8C898C898C497C087CC873519DFD
:10474C00BBCFDEC75BB718A7D89EF99E3AA7F89ED9
:10475C00768E2EA66EBE13DF13CFB1C6D2C634CF63
:10476C00D4C6D4C68BA50895489D489D48954895B8
:10477C00C78CC78C888C888C277CE773A76BA76B3E
:10478C0066636663255B255B455B455B2553044B84
:10479C00C34A623AE231E231C231C231C331C33170
:1047AC00E331E331033A033A233A233A6442644255
:1047BC00844A844A844A844A64426442C44AC44A4D
:1047CC000553055325532553665B665BA763A763A7
:1047DC008763876387638763C86BC86B497C8A84EC
:1047EC00CA8CCA8CEA9CEA9CEB9CEB9CEB94EB94F9
:1047FC00AA8CAA8CEA942B9D2B9DEA94898C898C8B
:10480C00497C497CED949BD7D9D756BF9496949EFE
:10481C00B6A6D89E5586347EB07D0E9E5296B0C6F6
:10482C00B2C6F1CEF1CED2C6D5B6D4C6EDB569A519
:10483C00489D489D48954895C78CC78C888C888C1A
:10484C004784E773A76BA76B66636663255B255B81
:10485C00455B455B25532553C34A623AE231E2314D
:10486C00A129C231033A033A033A033A233A233AD1
:10487C0043424342844A844AA54AA54AA44AA44ACC
:10488C00844A844AC54AC54A0553465B875B875BA5
:10489C00A763A763E86BE86BE86BE86BC86BC86B46
:1048AC00E86BE86B69846984AA8CAA8CEA9CEA9C04
:1048BC000B9D0B9D0B9D0B9D4B9D4B9D4BA54BA59C
:1048CC002B9D2B9DAA94AA94698C0D9D98CF98CF63
:1048DC0076C7F3B6D69E949E749E1386D07D8F7D3C
:1048EC006D6DAE7DEE9D50AE2AC68DCED1CEF2C68C
:1048FC00B1C636D799EF97E7ECAD89A5689D689D51
:10490C00689D689D089DC8946784277CC773866BD7
:10491C0066636663455B455B65636563455B045332
:10492C00A342223AC229C229A129C231033A033A2D
:10493C00033A033A233A233A43424342844A844A91
:10494C00A54AA54AA44AA44A844A844AC54AC54AE7
:10495C00465B465B875B875BA763A763E86BE86B8B
:10496C00E86BE86BC86BC86BE86B29746984698465
:10497C00AA8CAA8CEA9CEA9C0B9D0B9D0B9D0B9D13
:10498C004B9D4B9D4BA54BA56CA52B9DAA94AA9416
:10499C00CB9458D796CF98CFCFAE2E96B6962F965F
:1049AC00108ECE8D4B754E6D6F6D6F6D8C8DEE9D2B
:1049BC00EDA5EAB58ECED1CEAFCEB1C6B4BE97E7DB
:1049CC00D0CE69A5689D689D689D689D48A5089D89
:1049DC00A88C6784077CC773666366636663455BF4
:1049EC0065636563455B0453A34A223AC229C22915
:1049FC00C229E231243A243A43424342644264429B
:104A0C00644A644AA54AA54AC552C552A54AA54A54
:104A1C00844A844AE552E5522653675BC86BC86BDF
:104A2C000874087449744974497C497C2874287446
:104A3C000874697C6A846A84AA8CAA8CEB94EB94C3
:104A4C002BA52BA56CA56CA58CA58CA58CAD8CADC4
:104A5C002B9D2B9DEA942CA579DF75CF57C790AE73
:104A6C00EC95CC8D70A670A60E960E9E6E7DCE8D9E
:104A7C00CE8D2B758B8D0DB629D6CEB52CBEAFCE6B
:104A8C006FC66FC64FB6F5C690BEECAD68A568A5EF
:104A9C0089A589A549A549A5C894888C688C077CEB
:104AAC00C773C773C773C673A66BA66B65632453B2
:104ABC00C34A423AE231E231E231223A243A243A10
:104ACC004342434264426442644A644AA54AA54A4A
:104ADC00C552C552A54AA54A844A844AE552E552B4
:104AEC00675B675BC86BC86B087408744974697C36
:104AFC00497C497C28742874697C8A846A846A8419
:104B0C00AA8CAA8CAA8CEB942BA52BA56CA56CA5B6
:104B1C008CA58CA58CAD8CAD6CA52B9DEB9C73C61C
:104B2C0075CFD0BED2BEED8D4985CC8D0D9E2CA6F9
:104B3C00CC958B95CF954C7D6B85097D04ADC5E5EA
:104B4C0045F621F609C62BC66FC68CD6B0C66FB615
:104B5C0073DFB4EF6FC668A589A589A549A549A5DA
:104B6C00C894C894C894A89447844784077C077C4D
:104B7C00067CE673A56B6563C34A433AE231E231C6
:104B8C00223A824264426442844A844AA44AA44A35
:104B9C00A44AA44AC552C552E552E552E552E55223
:104BAC00C552C552055B055B465BA7630874087468
:104BBC002874697C8A848A848A848A84697C91A515
:104BCC0078AEF59DB1A5CB8CAA8CAA8CAA8CEB9453
:104BDC002BA56CAD8CADADADCDADCDADACADACADA7
:104BEC004CA54CA56DA537C714C7D0CEAB95297D68
:104BFC00E974878D298D298DC884C8844B8D687480
:104C0C002674C4A440ED80F504FEE0F506D606D665
:104C1C008DD6ABD690BE2EAE8CC60FCFB4E7EBB50F
:104C2C0089A589A569A569A529A529A5089D49A5D1
:104C3C00E89CA89488948894678C4784067C856B40
:104C4C0004538342423A423A623AE24A6442644230
:104C5C00844A844AA44AA44AA44AA44AC552C552C6
:104C6C00E552E552E552E552C552C552055B055B6E
:104C7C00A763A7630874497C697CA9848A84CA8C5D
:104C8C008A848A84F4A5F69550A5CDA4E793109553
:104C9C00AA8C6FA50D9DEB946CAD6CAD0DCE8CDE1E
:104CAC00EDBDCDADACADACAD4CA54CA5D4CE54A6A4
:104CBC00D2C6CB9D688D698D6A8DA8A5298D298D4D
:104CCC004895E573257C247CA46B61CC00FD80FDAC
:104CDC00A0FDC0FDA0ED00EEC5F666E66EC610A602
:104CEC00E89446B5CFCE70C689A589A569A569A5F6
:104CFC0069AD29A549A589AD69AD09A5E9A4E8A4C3
:104D0C00C89C87944684C5734463C34A423A423A6A
:104D1C00C242425B844A844AA452A452C452C45232
:104D2C00E552E552055B055B255B255B46634663F7
:104D3C00255B255B66636663A76BE8732874697CE7
:104D4C00AA84EA8C2B952B954E9D16A6B495AF7420
:104D5C00C7938AE5EFAC68B49AB677BE95CE12BE0F
:104D6C004CAD8FDEEBFFE9FF89FF2CCECDB5CDB579
:104D7C00ADADEFB54EB652B6EDA52985CB9DAA9D2E
:104D8C00A8A567A567ADAA9DC8B5089DC27B24845C
:104D9C00C1A360F480FC60FD80FD80FDA0FDA0FD42
:104DAC00EAF686EE8ECEAF95287C4B9D4FBE89AD34
:104DBC0089A589A569A569A589AD89AD89ADAAB56E
:104DCC00AABDAABD69B529AD08A5C79C878C067C70
:104DDC006463045BE34AA242024B8363844A844AC1
:104DEC00A452A452C452C452E552E552055B055B71
:104DFC00255B255B46634663255B255B66636663C3
:104E0C00E873E873697CAA84EA8C0B952B952E9534
:104E1C00EF847285117D4B74D1D57DE73BDF5DCF7F
:104E2C0098B654BED7CE15E7B5FFEDFFE9FFE8FF06
:104E3C00A4FFEDFF2CEF2DC6ADB54FC64EB64EB64A
:104E4C00AB95AB95AA9D4795269DE59486B567AD28
:104E5C00E3C402E582A4A0BBC0E300F400FD00FDA6
:104E6C0080FD80FDA0FDA0FD87F687E66DCEEC8C65
:104E7C00E9738F9D15D74FBE89A589A569A569A52D
:104E8C0089AD89ADAAB5AAB5AABDAABD69B569B5E2
:104E9C0048B508A5A7944684C5736463E34AE34AFE
:104EAC002253A363C452C452E552E552E55AE55A63
:104EBC00055B055B465B465B666366638663866380
:104ECC00876B876BA76BA76B287C287C8984CA8C23
:104EDC002B954D954E6C2933A55BCDA534DFF5FF95
:104EEC007CDF15DF38D719CF78B6B8C638DF5AE76C
:104EFC00D7FFEEFFEBFFE7FFE8FFCBFFC6FFA4FFFA
:104F0C004CCECBADAB9D8A9D09850885A684A68425
:104F1C00079D848404AD64CD85E469DC44CC60DBFE
:104F2C00A0E320F460FCC0FC40FD40FD60FD60FD92
:104F3C0004F645E64CC60D85B06CCAB584DE2DDF93
:104F4C00CAAD6AA5289D289D69AD69ADAABDAABD4B
:104F5C00CAC5CAC589BD89BD48B548B5C79C678C4B
:104F6C00E67BA66B445B445B635BC363C452C45275
:104F7C00E552E552E55AE55A055B055B465B465B37
:104F8C006663666386638663876B876BA76BA76BA9
:104F9C00287C6984CA8C0B95CD842E2BE44A493B22
:104FAC004EB6CCE690DE7CDF17D7FBC6D8CE19CF39
:104FBC00DAC61BCF38DFB3D670FFF1FFEAFFC4FFB0
:104FCC00A1FFA2FF63FF44FF84FF27AD088DE78C90
:104FDC00C8842674457CC794089D83B4A0C4E0F4AF
:104FEC00B9FEBFFFF7ED03ECE0EBE0EB20F460FC67
:104FFC0040FD40FD60FD60FD80ED04DECCAD6E64D7
:10500C004B952EAE26D6AACECFCE499D289D289D57
:10501C0069AD69ADAABDAABDCAC5CAC589BD89BDE0
:10502C0048B508A5C79C678C067CA66B445B445BA3
:10503C00635BC363E55AE55A055B055B055B055B82
:10504C00055B055B4663466386638663A76BA76B4C
:10505C00C773C773087C087C8A848A84EB8C0C9594
:10506C00EE5B2A3B445BD164D0BE33E77DDF5DCF82
:10507C00B7C6F3AD8EB5B8C6FBCEB7C6D7CEF2DE8B
:10508C00C2FEC1FEA5FFA5FF40FF40FFC0FEE2FE31
:10509C00C0FE839CE37BE37BE573C563C56B6584D2
:1050AC0004C5A0F400D42EF597DD9EFFDBFEEBF4D7
:1050BC0060DBA0E360F460F4A0FCA0FCE0FCE0FC8E
:1050CC0000E584CD4B95EB63269D8A9DC9ADE6C565
:1050DC0030DFCCB5299D299D8AAD8AADAABDAABD6C
:1050EC008ABD8ABD29AD29AD28ADE8A4A794678CEB
:1050FC00E673A66B656365638463C363E55AE55A1F
:10510C00055B055B055B055B055B055B4663466301
:10511C0086638663A76BA76BC773C773087C087C11
:10512C008A84CA8CEB8CAB848953A85B076C0ACE3F
:10513C00CDAD3BCF3BD71CCF79AE0D952FA578B617
:10514C0074BE34B692D6E2FE20FE20FEC2FE01FFF3
:10515C0040FF40FF60FE60FEA2EDA273616B809B7E
:10516C00626B235B025BC373A0E420FC03D3F8EDFA
:10517C00CA7AFCFEB9FE73ED81DBA0E300EC60F4AF
:10518C0040FC40FC60FC60FCC0E462D548A5876331
:10519C00C5946A95E6C505CEAECEF3D68BAD6AA5A1
:1051AC008AAD8AADAABDAABD8ABD49B529AD29ADC6
:1051BC00E8A4E8A4678C678CE67385636563656314
:1051CC006463A3634563456325632563055B055BE6
:1051DC00255B255B66636663866B866BC773C773DB
:1051EC00087C087C698469848A8CEB944C95455BBB
:1051FC00643AA642096C4AC675AE1CC7B8BE96C6C0
:10520C0056B638AE79B678BE36B6B1A545EEE0FDE9
:10521C00C0FDC0FD00FE21FFE0FEE0FE00FEA0FD93
:10522C0061FD6093007B408B80AB016BA152C05A37
:10523C0060BB60E310F595DD0EACDBFEB9F653E513
:10524C00C2E340CB60DB60F480FC00FC80FB40FCE4
:10525C00E0F4A2DDA8BD067CA68CEA846B9D12AEA0
:10526C00D7C62CE7D3D64EC6CBB5CAB5CABDCABDB8
:10527C008AB529ADE8A4E8A4C79C86944684067434
:10528C00A66B6563455B455B445B645B456345634B
:10529C0025632563055B055B255B255B66636663A0
:1052AC00866B866BC773C773087C087C69846984BA
:1052BC00EB942C9DE9638342A63A043AC83ACF9DFD
:1052CC0058A69AAED78DD69517A638AE34B633BE3F
:1052DC00F3ADD0ADA4FE00FEC0FDC0FD00FF00FF8D
:1052EC0045FF60FEA0FDA0FDE0FCE18A205A806233
:1052FC00C0A2606A605A605AA08A85E310F5D6E5B0
:10530C00B2C496FED3F5F2CC819AE0BAE0C260DB6F
:10531C0000FCA0FB00FB40FC00FD44CD29A5076C64
:10532C00895B84312329464A119596DFD0FFCDDE67
:10533C00B1D60BBECABDCABD8AB529ADE8A4E8A4D6
:10534C008694668C0674C56B65636563455B455BCB
:10535C00455B445B46634663666B666B46634663BC
:10536C0046634663876B876BC76BC76BE873E873E1
:10537C0029842984698CAB8CAE849264C63AC44A65
:10538C00A832043AC76B2AA5D3A5F895317DAD7C1C
:10539C00F27C7295B1A5B1A56FA54AE60BE663FE4A
:1053AC00E2FE02FFA1FEA1FE60FEA1FE00FD00FDDB
:1053BC00A0F400624031007AE081E081009260BA92
:1053CC00A2D28CF453EDB6ED59F675FEB9FE72E52A
:1053DC0050BCC091C09140AA60EBA0FB00FB20FC2C
:1053EC0000FD86CDA984E431E218A11826526C6B1D
:1053FC00B36C2BA512D714D7D0DED5D62BC6EABDED
:10540C00AAB549A5E8A4C79C668C668C0574A463F0
:10541C0023530453255B255B255B245B4663466362
:10542C00666B666B4663466346634663876B876B46
:10543C00C76BC76BE873E87329842984AB8C2E5C2B
:10544C00B12BC53A8732E452494306538694D5951D
:10545C00919DF88D8D6CAA63AC538F7C748D919556
:10546C00ACBD24EEA3E5C2FEA0FEA0FEA1FEA1FEF3
:10547C00E0FD60FE00ED00FDC0FC00AA208920B913
:10548C00E078C0B040D1C0E1C9F3F4FDB6ED16F63A
:10549C0032E577FE70EDBAF60ADCA5B2C181A079CF
:1054AC0060BA40F300FB20FC20FD46BD296CA7210F
:1054BC00EC3A8521C218A5312D74F9B6EAEE2BEF22
:1054CC008ADE66DE32A6EABDA9AD49A5C79CC79C9B
:1054DC00668C257CE46B635BE34AE34A255B255BC6
:1054EC00255B2453866B866B666B666B66636663A3
:1054FC0067636763C76BC76BE873E873087C087CEA
:10550C0049848A848A530A2B83328332093B675B32
:10551C00685B887449845385189EF6952E5C6B5392
:10552C008E43B26C918DAEA553C60ADE41FE63FE6E
:10553C0020FE20FE40FEA0FE40FDC0FD62F5A0EC6A
:10554C00A0EC80D9C0B860B860A800A040A060B042
:10555C0082EA77FEB3F595E56ED495E598F6B4F549
:10556C0075E50EC480A1E081E091C0DAE0FAE0FBC1
:10557C0020F5849C4A6C6D7CCD7C0F548942F33BA6
:10558C002E648B6C51A6F1B62BBED185D395D18DE3
:10559C00A9AD289DC794A68C247C247CC36B825B0C
:1055AC00E14AE14A04530453255B2453866B866B12
:1055BC00666B666B6663666367636763C76BC76BB3
:1055CC00E873E873087C087C6A848853A33AA922A0
:1055DC004232A532853A4442A54A0864F084AB8C29
:1055EC001896728D8C5BB36CB26CD595D0AD53C6DE
:1055FC00CFBDC9CD6CF6CCFEA6FE20FE40FE40FE13
:10560C0040FD40FD61FDE1B32093C0D1A0C820B0A6
:10561C0000904090A8BA64DA42F28DFCD5F5F1D432
:10562C0052E595DDD0D475DDB7E58EA30159415116
:10563C00C08980CAE0F2E0FB80CC057CCC7426AD3E
:10564C0047A59385B1A5CACD4DC66AC647C6C8DE67
:10565C006A4B0A5C0F8DB0958D95289DA68C658440
:10566C00247C247CE36B825BE14AE14AE34A0453E9
:10567C00055B0553866B866B866B866B666B666B00
:10568C00866B866BC773C77308740874297C297C76
:10569C00CA5B613A833AC92A232A28332A33265310
:1056AC004853A953F8951285958DD0846F74767DE7
:1056BC00D78D7195709DCFB54CAD8ABDEDD52AF6C1
:1056CC00E3FDC0FCC0FC20FDA0FDA0FD40FD246B53
:1056DC00454AA5C280C860B0E2A0C5A1A3A1C3C1C0
:1056EC0062E229FCB2FDF7ED13D54CCC6CDC76D51F
:1056FC00B7DDAB8281208120806160AA00EB20FCA9
:10570C00019C0864AC6CE69C2A85AF950DC669DEDD
:10571C0067E685EEACC628BE4A5CE673C873705C5F
:10572C00527D499D8684457C247C247C0364C26321
:10573C002153E14AC34AC44AE552E552866B866B53
:10574C00866B866B666B666B866B866BC773C77373
:10575C0008740874297C2C6C833A833AC542264B16
:10576C00C832AD3B33340F4CA953E763B68DD17CB3
:10577C0033856E74506C347DEE7C938D328D6EA5BA
:10578C004EAD2AAD86C523D520FD20FD20FDC0FCE5
:10579C00A0FDA0FD60FD286BE9624B83C0A883A12E
:1057AC0029C3EEC3AEB30C93697A468229ECEFECB5
:1057BC000DBC35C5B7D514C5B2BC085A81204110F3
:1057CC00405180AA40DB80E4446308646B5C09545C
:1057DC002232E44ACAAD28DE67E667E66AC62E9E28
:1057EC0088A5C663CF3B885BED5BAB748784457C37
:1057FC00247C247C4474036482532153E24AC44ABB
:10580C00E552E552666B666B666B666B866B866BF8
:10581C00A76BA76BE873E873287C287C297C494329
:10582C00C43A42320833834AE44A484BB22B0D3314
:10583C002843875BB885567DF27CF47C968DD07CB2
:10584C000B6CEF74AE74EB9C2DA5A4D566BD00E576
:10585C0040FD80FC80FC40FD20FD20FD40FD697377
:10586C004B6B0B632B732A7B09528C6A2A5A874128
:10587C00C8498739896ABAEEDCEE7AE6F8D5B3B452
:10588C00CF9B664961186118C17140A2A0DB83836C
:10589C0025530A6468748A5CE08BC07B8453CBA567
:1058AC002BD60AC60AAE27CECBAD0B2B855B655B20
:1058BC00AF2BCA7CA884667CA584A584A57C446C8B
:1058CC00E2636253E24AC44AC44AC44A666B666BDA
:1058DC00666B666B866B866BA76BA76BE873E8735E
:1058EC00287C287C4984AA224232012AE832A4422C
:1058FC00A43AE44A6B434F3B2843064BFA8DB78DD1
:10590C009685D59D929DD07C2D64AF6CAE7427840A
:10591C008894C3DD68BDA0FD80FC80FC80FC80FC0D
:10592C0080FC80FCC0FC4873C9628C7B4D632D6B82
:10593C006B5AED726B62E9510A526739A64192B407
:10594C0056CD19DED8CD56BDAF93A3286118A22031
:10595C000282009A20ABA43AC56B686CA96CEE6409
:10596C0005A5259D8453234B0B758D85EB9D0BB69F
:10597C008D8569532A3BCC33C85B6E640A85A88439
:10598C00C78CE78C0685A57C436CA25BE24AC34AB4
:10599C00A44AA44A666B666B666B666B666B666B39
:1059AC00A76BA76B08740874497C497C6E748C0ACD
:1059BC00A822A82ACB226332E442694B6A4B2C3BC7
:1059CC00073B4B4BB885938DF895729DCE944C7CD0
:1059DC000D640B5CAA7C08A5C3B4A1DDC0FDC0FDA1
:1059EC0000F480FCE0FB20D3A0DB00BBA2B36B6B0C
:1059FC006C6B0B638C8B8C7B4A5A0D7BCC728B6AD9
:105A0C000952E949A7396D93B9CD77C5D9CDF18B39
:105A1C006639211061180239E089409AE35AC44270
:105A2C006B5C088DCA840E6D479D689D45AD447CAA
:105A3C00C5422964F2853586316D0D7C0D54085CA8
:105A4C00A85BA85B316D0A8D29952995678D2685F4
:105A5C00A474E3634353C34A8442844A666B666B03
:105A6C00666B666B666B666BA76BA76B08740874CA
:105A7C00497C6A8432342C234F1B501B501B6D23E2
:105A8C00093BC5426853AE4B054B073B5385357DEF
:105A9C009585137D4C7CEC6BCA5B8853E673C4A470
:105AAC0000D500D5C0FDC0FD80F400FCE0FBC0D3E8
:105ABC00609A0021464A08632E8C6E944D63E872FE
:105ACC00E8492E7B6E8BCC728B6AC8414629A2208A
