:020000040800F2
:1000000000C00020A91E0008251B0008271B0008AF
:10001000291B00082B1B00082D1B000800000000F6
:100020000000000000000000000000002F1B00087E
:10003000311B000800000000331B0008351B0008BE
:10004000F11E0008F11E0008F11E0008F11E000854
:10005000F11E0008F11E0008F11E0008F11E000844
:10006000F11E0008F11E0008F11E0008F11E000834
:10007000F11E0008F11E0008F11E0008F11E000824
:10008000F11E0008F11E0008F11E0008F11E000814
:10009000F11E0008F11E0008F11E0008F11E000804
:1000A000F11E0008F11E0008F11E0008F11E0008F4
:1000B000F11E0008F11E0008F11E0008F11E0008E4
:1000C000F11E0008F11E0008F11E0008F11E0008D4
:1000D000F11E0008F11E0008F11E0008F11E0008C4
:1000E000F11E0008F11E0008F11E0008F11E0008B4
:1000F000F11E0008F11E0008F11E0008F11E0008A4
:10010000F11E00083D1B0008F11E0008F11E00084A
:10011000F11E0008F11E00084D1B0008F11E00082A
:10012000F11E0008F11E0008F11E0008F11E000873
:1001300000000000000000000000000000000000BF
:1001400000000000000000000000000000000000AF
:10015000000000000000000000000000000000009F
:10016000000000000000000000000000000000008F
:10017000000000000000000000000000000000007F
:10018000000000000000000000000000000000006F
:10019000000000000000000000000000000000005F
:1001A000000000000000000000000000000000004F
:1001B000000000000000000000000000000000003F
:1001C000000000000000000000000000000000002F
:1001D000000000000000000000000000000000001F
:0401E0005FF8E0F1F3
:1001E80010B5054C237833B9044B13B10448AFF369
:1001F80000800123237010BD180A002000000000B1
:10020800E8DD020808B5034B1BB103490348AFF307
:10021800008008BD000000001C0A0020E8DD02087C
:1002280081F0004102E000BF83F0004330B54FEA9F
:1002380041044FEA430594EA050F08BF90EA020F0C
:100248001FBF54EA000C55EA020C7FEA645C7FEA9F
:10025800655C00F0E2804FEA5454D4EB5555B8BFC2
:100268006D420CDD2C4480EA020281EA030382EA33
:10027800000083EA010180EA020281EA0303362DC5
:1002880088BF30BD11F0004F4FEA01314FF4801C98
:100298004CEA113102D0404261EB410113F0004FAA
:1002A8004FEA03334CEA133302D0524263EB430361
:1002B80094EA050F00F0A780A4F10104D5F1200EFF
:1002C8000DDB02FA0EFC22FA05F2801841F100015A
:1002D80003FA0EF2801843FA05F359410EE0A5F12E
:1002E80020050EF1200E012A03FA0EFC28BF4CF05F
:1002F800020C43FA05F3C01851EBE37101F0004515
:1003080007D54FF0000EDCF1000C7EEB00006EEB21
:100318000101B1F5801F1BD3B1F5001F0CD34908AB
:100328005FEA30004FEA3C0C04F101044FEA445202
:1003380012F5800F80F09A80BCF1004F08BF5FEA89
:10034800500C50F1000041EB045141EA050130BD69
:100358005FEA4C0C404141EB0101013C28BFB1F57B
:10036800801FE9D291F0000F04BF01460020B1FAC6
:1003780081F308BF2033A3F10B03B3F120020CDA99
:100388000C3208DD02F1140CC2F10C0201FA0CF077
:1003980021FA02F10CE002F11402D8BFC2F1200CDC
:1003A80001FA02F120FA0CFCDCBF41EA0C01904092
:1003B800E41AA2BF01EB0451294330BD6FEA0404DB
:1003C8001F3C1CDA0C340EDC04F11404C4F12002C6
:1003D80020FA04F001FA02F340EA030021FA04F3D8
:1003E80045EA030130BDC4F10C04C4F1200220FA2F
:1003F80002F001FA04F340EA0300294630BD21FA6D
:1004080004F0294630BD94F0000F83F4801306BF32
:1004180081F480110134013D4EE77FEA645C18BF26
:100428007FEA655C29D094EA050F08BF90EA020FBD
:1004380005D054EA000C04BF1946104630BD91EAB5
:10044800030F1EBF0021002030BD5FEA545C05D1B8
:100458004000494128BF41F0004130BD14F58004F7
:100468003CBF01F5801130BD01F0004545F0FE416B
:1004780041F470014FF0000030BD7FEA645C1ABFA0
:10048800194610467FEA655C1CBF0B46024650EAD7
:10049800013406BF52EA033591EA030F41F4002103
:1004A80030BD00BF90F0000F04BF0021704730B589
:1004B8004FF4806404F132044FF000054FF000015E
:1004C80050E700BF90F0000F04BF0021704730B51F
:1004D8004FF4806404F1320410F0004548BF4042F4
:1004E8004FF000013EE700BF42004FEAE2014FEA49
:1004F80031014FEA02701FBF12F07F4393F07F4F24
:1005080081F06051704732F07F4208BF704793F026
:100518007F4F04BF41F40021704730B54FF4607439
:1005280001F0004521F000411CE700BF50EA01023C
:1005380008BF704730B54FF000050AE050EA0102E5
:1005480008BF704730B511F0004502D5404261EB55
:1005580041014FF4806404F132045FEA915C3FF496
:10056800D8AE4FF003025FEADC0C18BF03325FEA33
:10057800DC0C18BF033202EBDC02C2F1200300FAE4
:1005880003FC20FA02F001FA03FE40EA0E0021FA09
:1005980002F11444BDE600BF70B54FF0FF0C4CF4F7
:1005A800E06C1CEA11541DBF1CEA135594EA0C0FA9
:1005B80095EA0C0F00F0DEF82C4481EA030621EAE4
:1005C8004C5123EA4C5350EA013518BF52EA03351F
:1005D80041F4801143F4801338D0A0FB02CE4FF0D1
:1005E8000005E1FB02E506F00042E0FB03E54FF001
:1005F8000006E1FB03569CF0000F18BF4EF0010EF9
:10060800A4F1FF04B6F5007F64F5407404D25FEAF4
:100618004E0E6D4146EB060642EAC62141EA5551A7
:100628004FEAC52040EA5E504FEACE2EB4F1FD0CE9
:1006380088BFBCF5E06F1ED8BEF1004F08BF5FEA67
:10064800500E50F1000041EB045170BD06F0004619
:1006580046EA010140EA020081EA0301B4EB5C04C6
:10066800C2BFD4EB0C0541EA045170BD41F48011BE
:100678004FF0000E013C00F3AB8014F1360FDEBFE3
:10068800002001F0004170BDC4F10004203C35DABF
:100698000C341BDC04F11404C4F1200500FA05F342
:1006A80020FA04F001FA05F240EA020001F00042E3
:1006B80021F0004110EBD37021FA04F642EB060159
:1006C8005EEA430E08BF20EAD37070BDC4F10C0483
:1006D800C4F1200500FA04F320FA05F001FA04F247
:1006E80040EA020001F0004110EBD37041F1000133
:1006F8005EEA430E08BF20EAD37070BDC4F120053E
:1007080000FA05F24EEA020E20FA04F301FA05F2A5
:1007180043EA020321FA04F001F0004121FA04F24D
:1007280020EA020000EBD3705EEA430E08BF20EA1D
:10073800D37070BD94F0000F0FD101F00046400057
:1007480041EB010111F4801F08BF013CF7D041EAD9
:10075800060195F0000F18BF704703F000465200DD
:1007680043EB030313F4801F08BF013DF7D043EAAE
:100778000603704794EA0C0F0CEA135518BF95EA64
:100788000C0F0CD050EA410618BF52EA4306D1D1EB
:1007980081EA030101F000414FF0000070BD50EA0A
:1007A800410606BF1046194652EA430619D094EA94
:1007B8000C0F02D150EA013613D195EA0C0F05D17E
:1007C80052EA03361CBF104619460AD181EA0301D2
:1007D80001F0004141F0FE4141F470014FF000008A
:1007E80070BD41F0FE4141F4780170BD70B54FF025
:1007F800FF0C4CF4E06C1CEA11541DBF1CEA1355A5
:1008080094EA0C0F95EA0C0F00F0A7F8A4EB050486
:1008180081EA030E52EA03354FEA013100F088807D
:100828004FEA03334FF0805545EA131343EA126346
:100838004FEA022245EA111545EA10654FEA0026FB
:100848000EF000419D4208BF964244F1FD0404F5B4
:10085800407402D25B084FEA3202B61A65EB030510
:100868005B084FEA32024FF480104FF4002CB6EBCD
:10087800020E75EB030E22BFB61A754640EA0C004D
:100888005B084FEA3202B6EB020E75EB030E22BF8D
:10089800B61A754640EA5C005B084FEA3202B6EBCE
:1008A800020E75EB030E22BFB61A754640EA9C008D
:1008B8005B084FEA3202B6EB020E75EB030E22BF5D
:1008C800B61A754640EADC0055EA060E18D04FEA1B
:1008D800051545EA16754FEA06164FEAC30343EABB
:1008E80052734FEAC2025FEA1C1CC0D111F4801F88
:1008F8000BD141EA00014FF000004FF0004CB6E781
:1009080011F4801F04BF01430020B4F1FD0C88BF1F
:10091800BCF5E06F3FF6AFAEB5EB030C04BFB6EB2A
:10092800020C5FEA500C50F1000041EB045170BD1D
:100938000EF0004E4EEA113114EB5C04C2BFD4EB4A
:100948000C0541EA045170BD41F480114FF0000ECE
:10095800013C90E645EA060E8DE60CEA135594EA4A
:100968000C0F08BF95EA0C0F3FF43BAF94EA0C0F4D
:100978000AD150EA01347FF434AF95EA0C0F7FF4C2
:1009880025AF104619462CE795EA0C0F06D152EA16
:1009980003353FF4FDAE1046194622E750EA4106FA
:1009A80018BF52EA43067FF4C5AE50EA41047FF40B
:1009B8000DAF52EA43057FF4EBAE12E74FEA41026E
:1009C80012F5001215D211D56FF47873B3EB625299
:1009D80012D94FEAC12343F0004343EA505311F0C0
:1009E800004F23FA02F018BF404270474FF0000052
:1009F800704750EA013005D111F0004008BF6FF090
:100A0800004070474FF00000704700BF80F0004082
:100A180002E000BF81F0004142001FBF5FEA4103CE
:100A280092EA030F7FEA226C7FEA236C6AD04FEACE
:100A38001262D2EB1363C1BFD21841404840414013
:100A4800B8BF5B42192B88BF704710F0004F40F4C5
:100A5800000020F07F4018BF404211F0004F41F4E1
:100A6800000121F07F4118BF494292EA030F3FD0AD
:100A7800A2F1010241FA03FC10EB0C00C3F12003C0
:100A880001FA03F100F0004302D5494260EB40004F
:100A9800B0F5000F13D3B0F1807F06D340084FEABA
:100AA800310102F10102FE2A51D2B1F1004F40EBAF
:100AB800C25008BF20F0010040EA03007047490017
:100AC80040EB0000013A28BFB0F5000FEDD2B0FAB4
:100AD80080FCACF1080CB2EB0C0200FA0CF0AABFD7
:100AE80000EBC25052421843BCBFD0401843704775
:100AF80092F0000F81F4000106BF80F4000001327B
:100B0800013BB5E74FEA41037FEA226C18BF7FEA51
:100B1800236C21D092EA030F04D092F0000F08BF93
:100B28000846704790EA010F1CBF0020704712F07A
:100B38007F4F04D1400028BF40F00040704712F1B9
:100B480000723CBF00F50000704700F0004343F01E
:100B5800FE4040F4000070477FEA226216BF084654
:100B68007FEA23630146420206BF5FEA412390EA17
:100B7800010F40F4800070474FF0000304E000BF0D
:100B880010F0004348BF40425FEA000C08BF7047BE
:100B980043F0964301464FF000001CE050EA010282
:100BA80008BF70474FF000030AE000BF50EA010297
:100BB80008BF704711F0004302D5404261EB410184
:100BC8005FEA010C02BF84460146002043F0B643A9
:100BD80008BFA3F18053A3F50003BCFA8CF2083ACE
:100BE800A3EBC25310DB01FA02FC634400FA02FCD7
:100BF800C2F12002BCF1004F20FA02F243EB0200DE
:100C080008BF20F00100704702F1200201FA02FC3F
:100C1800C2F1200250EA4C0021FA02F243EB020032
:100C280008BF20EADC7070474FF0FF0C1CEAD05276
:100C38001EBF1CEAD15392EA0C0F93EA0C0F6FD037
:100C48001A4480EA010C400218BF5FEA41211ED015
:100C58004FF0006343EA501043EA5111A0FB013101
:100C68000CF00040B1F5000F3EBF490041EAD371D6
:100C78005B0040EA010062F17F02FD2A1DD8B3F152
:100C8800004F40EBC25008BF20F00100704790F0C1
:100C9800000F0CF0004C08BF49024CEA502040EA13
:100CA80051207F3AC2BFD2F1FF0340EAC2507047D9
:100CB80040F400004FF00003013A5DDC12F1190F17
:100CC800DCBF00F000407047C2F10002410021FA89
:100CD80002F1C2F1200200FA02FC5FEA310040F1A1
:100CE800000053EA4C0308BF20EADC70704792F01A
:100CF800000F00F0004C02BF400010F4000F013A52
:100D0800F9D040EA0C0093F0000F01F0004C02BF4C
:100D1800490011F4000F013BF9D041EA0C018FE7BB
:100D28000CEAD15392EA0C0F18BF93EA0C0F0AD0C1
:100D380030F0004C18BF31F0004CD8D180EA0100E7
:100D480000F00040704790F0000F17BF90F0004F80
:100D5800084691F0000F91F0004F14D092EA0C0F62
:100D680001D142020FD193EA0C0F03D14B0218BFF5
:100D7800084608D180EA010000F0004040F0FE403B
:100D880040F40000704740F0FE4040F440007047D7
:100D98004FF0FF0C1CEAD0521EBF1CEAD15392EA56
:100DA8000C0F93EA0C0F69D0A2EB030280EA010C46
:100DB80049024FEA402037D04FF0805343EA1111DF
:100DC80043EA10130CF000408B4238BF5B0042F13D
:100DD8007D024FF4000C8B4224BF5B1A40EA0C00E2
:100DE800B3EB510F24BFA3EB510340EA5C00B3EB14
:100DF800910F24BFA3EB910340EA9C00B3EBD10F02
:100E080024BFA3EBD10340EADC001B0118BF5FEA53
:100E18001C1CE0D1FD2A3FF650AF8B4240EBC2507C
:100E280008BF20F0010070470CF0004C4CEA50203D
:100E38007F32C2BFD2F1FF0340EAC250704740F48C
:100E480000004FF00003013A37E792F0000F00F07E
:100E5800004C02BF400010F4000F013AF9D040EAFC
:100E68000C0093F0000F01F0004C02BF490011F490
:100E7800000F013BF9D041EA0C0195E70CEAD15388
:100E880092EA0C0F08D142027FF47DAF93EA0C0F6F
:100E98007FF470AF084676E793EA0C0F04D14B0253
:100EA8003FF44CAF08466EE730F0004C18BF31F005
:100EB800004CCAD130F000427FF45CAF31F00043FF
:100EC8007FF43CAF5FE700BF4FF0FF3C06E000BF98
:100ED8004FF0010C02E000BF4FF0010C4DF804CDBB
:100EE8004FEA40024FEA41037FEA226C18BF7FEACB
:100EF800236C11D001B052EA530C18BF90EA010FCD
:100F080058BFB2EB030088BFC81738BF6FEAE1705B
:100F180018BF40F0010070477FEA226C02D15FEAF7
:100F2800402C05D17FEA236CE4D15FEA412CE1D063
:100F38005DF8040B704700BF844608466146FFE72A
:100F48000FB5FFF7C9FF002848BF10F1000F0FBD0C
:100F58004DF808EDFFF7F4FF0CBF012000205DF805
:100F680008FB00BF4DF808EDFFF7EAFF34BF01208A
:100F780000205DF808FB00BF4DF808EDFFF7E0FF23
:100F880094BF012000205DF808FB00BF4DF808ED74
:100F9800FFF7D2FF94BF012000205DF808FB00BFD7
:100FA8004DF808EDFFF7C8FF34BF012000205DF8B9
:100FB80008FB00BF42000ED2B2F1FE4F0BD34FF038
:100FC8009E03B3EB126209D44FEA002343F00043B7
:100FD80023FA02F070474FF00000704712F1610FDA
:100FE80001D1420202D14FF0FF3070474FF00000AC
:100FF800704700BF53B94AB9002908BF00281CBF71
:101008004FF0FF314FF0FF3000F076B9ADF1080C2A
:101018006DE904CE00F006F8DDF804E0DDE902230E
:1010280004B070472DE9F047089E0D4604468846EF
:10103800002B4DD18A42944668D9B2FA82F252B155
:1010480001FA02F3C2F1200120FA01F10CFA02FCC4
:1010580041EA030894404FEA1C41B8FBF1F71FFA34
:101068008CFE01FB178807FB0EF0230C43EA0843AC
:1010780098420AD91CEB030307F1FF3580F01E8163
:10108800984240F21B81023F63441B1AB3FBF1F004
:1010980001FB103300FB0EFEA4B244EA0344A6454C
:1010A8000AD91CEB040400F1FF3380F00981A6453E
:1010B80040F20681644402380021A4EB0E0440EAA1
:1010C80007401EB10023D440C6E90043BDE8F087BD
:1010D8008B4208D9002E00F0EE800021C6E90005F9
:1010E8000846BDE8F087B3FA83F100294AD1AB423C
:1010F80002D3824200F2FC80841A65EB03030120CC
:101108009846002EE2D0C6E90048DFE702B9FFDEC4
:10111800B2FA82F2002A40F09180A1EB0C00012182
:101128004FEA1C471FFA8CFEB0FBF7F307FB1300CE
:10113800250C45EA00450EFB03F0A84208D91CEB34
:10114800050503F1FF3802D2A84200F2CE804346DB
:101158002D1AB5FBF7F007FB10550EFB00FEA4B2E5
:1011680044EA0544A64508D91CEB040400F1FF3500
:1011780002D2A64500F2B6802846A4EB0E0440EA47
:1011880003409EE7C1F120078B4022FA07FC4CEA96
:10119800030C25FA07FA4FEA1C49BAFBF9F820FABA
:1011A80007F309FB18AA8D401FFA8CFE1D4300FAAD
:1011B80001F308FB0EF02C0C44EA0A44A04202FAA0
:1011C80001F20BD91CEB040408F1FF3A80F0888087
:1011D800A04240F28580A8F102086444241AB4FBB6
:1011E800F9F009FB104400FB0EFEADB245EA0444D9
:1011F800A64508D91CEB040400F1FF356CD2A645BE
:101208006AD90238644440EA0840A0FB0295A4EB7E
:101218000E04AC42C846AE4656D353D0002E69D011
:10122800B3EB080264EB0E0422FA01F304FA07F7A1
:101238001F43CC40C6E90074002147E70CFA02FCC2
:10124800C2F1200125FA01F34FEA1C4720FA01F107
:1012580095400D43B3FBF7F107FB11331FFA8CFEE2
:10126800280C40EA034001FB0EF3834204FA02F41F
:1012780008D91CEB000001F1FF382FD283422DD989
:1012880002396044C01AB0FBF7F307FB1300ADB294
:1012980045EA004503FB0EF0A84208D91CEB0505FA
:1012A80003F1FF3816D2A84214D9023B6544281A24
:1012B80043EA014138E73146304607E72F46E4E67E
:1012C8001846F9E64B45A9D2B9EB020865EB0C0EB6
:1012D8000138A3E74346EAE7284694E74146D1E7C1
:1012E800D0467BE76444023847E7023B65442FE772
:1012F800084606E73146E9E6704700BF844641EAFA
:10130800000313F0030349D1403A23D30B68036069
:101318004B6843608B688360CB68C3600B6903616B
:101328004B6943618B698361CB69C3610B6A036253
:101338004B6A43628B6A8362CB6AC3620B6B03633B
:101348004B6B43638B6B8363CB6BC3634030403120
:10135800403ADBD230320BD30B6803604B684360F2
:101368008B688360CB68C36010301031103AF3D2B9
:101378000C3205D351F8043B40F8043B043AF9D247
:10138800043208D0D2071CBF11F8013B00F8013B1A
:1013980001D30B8803806046704700BF082A13D327
:1013A8008B07B1D010F00303AED0C3F10403D21AF7
:1013B800DB071CBF11F8013B00F8013BA4D331F84F
:1013C800023B20F8023B9FE7043AD9D3013A11F8CF
:1013D800013B00F8013BF9D20B7803704B7843705E
:1013E8008B7883706046704780EA010C1CF0030F0D
:1013F80037D110F0030C20F0030021F0030150F85E
:10140800042B08BF51F8043B0ED08CF0030C6FF08E
:101418007F434FEACC0C23FA0CFC51F8043B42EA18
:101428000C0243EA0C0300BFA2F1013C9A4201BF3F
:101438002CEA020C1CF0803F50F8042B51F8043BB6
:10144800F2D04FEA02604FEA1222012828BFB0EB1F
:10145800036F08BF1B0AF4D003F0FF03000EC01A85
:10146800704710F0030F0AD010F8012B11F8013B58
:10147800012A28BF9A42F4D0A2EB030070474DF826
:10148800045D50F8042B01F0030521F0030151F825
:10149800043B022D26D04DD822F07F45B5EB132F03
:1014A800A2F1013C2CEA020C0DD11CF0803C08BFD3
:1014B80051F8043B0AD185EA0205B5EB036F0CD15C
:1014C80050F8042BE8E74FEA13235BE03CF07F4C2D
:1014D80054D10B784FEA126554E04FEA126503F0D5
:1014E800FF034FE04FEA0245A2F1013C4FEA1545E0
:1014F8002CEA020CB5EB134F18D11CF0803C08BF46
:1015080051F8043B07D185EA0205B5EB034F09D131
:1015180050F8042BE6E75FEA0C4C2FD10B884FEA12
:1015280012452FE04FEA03434FEA12454FEA1343AF
:1015380028E000BF02F0FF05B5EB136FA2F1013CF4
:101548002CEA020C0DD11CF0803C08BF51F8043B7A
:101558000AD185EA0205B5EB032F0AD150F8042B0E
:10156800E8E74FEA13630DE012F0FF0F06D051F8D9
:10157800043B4FEA122523F07F4303E04FF00000BD
:1015880020BC704705F0FF0203F0FF00012828BFC8
:10159800904204BF2D0A1B0AF4D0A2EB000020BC25
:1015A800704700BF4FF0FF3C06E000BF4FF0010C52
:1015B80002E000BF4FF0010C4DF804CD4FEA410C9A
:1015C8007FEA6C5C4FEA430C18BF7FEA6C5C1BD067
:1015D80001B050EA410C0CBF52EA430C91EA030FE8
:1015E80002BF90EA020F0020704710F1000F91EA45
:1015F800030F58BF994208BF90422CBFD8176FEA13
:10160800E37040F0010070474FEA410C7FEA6C5CE0
:1016180002D150EA013C07D14FEA430C7FEA6C5CE7
:10162800D6D152EA033CD3D05DF8040B704700BF13
:101638008446104662468C461946634600E000BF61
:1016480001B5FFF7B7FF002848BF10F1000F01BD33
:101658004DF808EDFFF7F4FF0CBF012000205DF8FE
:1016680008FB00BF4DF808EDFFF7EAFF34BF012083
:1016780000205DF808FB00BF4DF808EDFFF7E0FF1C
:1016880094BF012000205DF808FB00BF4DF808ED6D
:10169800FFF7CEFF94BF012000205DF808FB00BFD4
:1016A8004DF808EDFFF7C4FF34BF012000205DF8B6
:1016B80008FB00BF4FEA410C7FEA6C5C02D150EA9C
:1016C800013C0AD14FEA430C7FEA6C5C02D152EA32
:1016D800033C02D14FF0000070474FF00100704703
:1016E8002DE9F04F8BB000240694079408940994D0
:1016F800574B9A6942F040029A619A6902F0400297
:101708000192019A9A6942F010029A619A6902F06C
:1017180010020292029A9A6942F004029A619A6946
:1017280002F004020392039A9A6942F008029A614D
:101738009A6902F008020492049A9A6942F0200217
:101748009A619B6903F020030593059BDFF80491D8
:101758002246A021484600F059FFDFF8FC802246C7
:101768001021404600F052FFDFF8F0B022464FF457
:101778002851584600F04AFFDFF8E4A022464FF40B
:101788000071504600F042FF4FF6FF7306930325A1
:10179800079506A9334800F04DFD42F2CF030693A2
:1017A800079506A9404600F045FD4FF61F1306931E
:1017B800079506A9484600F03DFDA023069301279A
:1017C800079708940226099606A9484600F032FDB4
:1017D800402306930794089406A9484600F02AFD7A
:1017E8001023069307970894099606A9404600F027
:1017F80021FD202306930794089406A9404600F08B
:1018080019FD41F23F530693079506A9504600F08B
:1018180011FD4DF2FB530693079506A9584600F0B3
:1018280009FD4FF42853069307970894099606A9CB
:10183800584600F0FFFC4FF400730693079708948E
:10184800099606A9504600F0F5FC0BB0BDE8F08FEC
:10185800001002400008014000100140001401403F
:10186800000C01400018014008B50B480B4B036001
:101878000B4B436000238360C3604FF480420261D6
:1018880043618361C361036201F07CF900B908BD5B
:1018980000F03AF8FBE700BF340A0020005400408B
:1018A800A086010010B586B0002302930393049329
:1018B80005930268114B9A4201D006B010BD104C36
:1018C800A36943F00803A361A36903F00803009325
:1018D800009BC0230293122303930323059302A9B9
:1018E800084800F0A7FCE36943F40013E361E369E7
:1018F80003F400130193019BDFE700BF005400408D
:1019080000100240000C014072B6FEE700B591B02D
:101918002822002106A824F06DFE002301930293DB
:10192800039304930593012206924FF4803307939F
:101938000A9202220D920E934FF4E0130F9306A819
:1019480001F0EEFC80B90F230193022102910023DC
:1019580003934FF480620492059301A801F0AEFF4F
:1019680020B911B05DF804FBFFF7CEFFFFF7CCFFFD
:1019780070470000074B084A1A6000225A609A60B4
:10198800DA604FF4006119615A61062199611A61A0
:10199800704700BF880A00200080014030B589B038
:1019A8000023049305930693079302681E4B9A42FB
:1019B80001D009B030BD03F510435A6942F4806282
:1019C8005A615A6902F480620192019A9A6942F056
:1019D80010029A619A6902F010020292029A9A69B8
:1019E80042F020029A619B6903F020030393039B52
:1019F8004FF4F8530493022505950324079404A98A
:101A08000A4800F017FC042304930595079404A9D9
:101A1800074800F00FFC00221146312000F0E2FADE
:101A2800312000F025FBC4E7008001400010014090
:101A38000014014008B50D480D4B03604FF4827344
:101A4800436000238360C360036143614FF4007205
:101A58008261C3610362436283620A23C36202F044
:101A6800EFFF00B908BDFFF74FFFFBE70C0B0020A5
:101A78000038004010B586B0002302930393049306
:101A880005930268174B9A4201D006B010BD03F5C2
:101A9800EC33DA6942F48042DA61DA6902F48042AE
:101AA8000092009A9A6942F008029A619B6903F0D1
:101AB80008030193019B4FF42043029302230393ED
:101AC80003230593084C02A9204600F0B3FB4FF40A
:101AD8008043029300230393049302A9204600F055
:101AE800A9FBD2E700380040000C014082B00A4B45
:101AF8009A6942F001029A619A6902F00102009221
:101B0800009ADA6942F08052DA61DB6903F08053A7
:101B18000193019B02B0704700100240FEE7FEE708
:101B2800FEE7FEE7FEE770477047704708B500F02C
:101B380015FA08BD08B5024802F09CFE08BD00BFB2
:101B4800880A002008B5024803F011FA08BD00BF52
:101B5800B00B00200120704708B524F041FA162385
:101B680003604FF0FF3008BD08B54FF0FF31FFF7B5
:101B7800F3FFFEE770B50C461646002506E0AFF306
:101B88000080214601F8010B01350C46B542F6DB11
:101B9800304670BD70B50C461646002504E014F8B2
:101BA800010B00F06DF90135B542F8DB304670BD28
:101BB8004FF0FF3070474FF400534B6000207047E0
:101BC800012070470020704710B503460C4A0D49A4
:101BD8000D48006840B10C4800680344521A93420B
:101BE80006D8094A136010BD0748084C0460F2E79C
:101BF80024F0F6F90C2303604FF0FF30F3E700BF41
:101C080000C0002000100000640B0020387600207F
:101C18007047000000B583B00023009301930F487C
:101C28000F4A026040F2CF224260836040F2E732FE
:101C3800C260836103F0A4FA50B9002300930193B2
:101C48006946064804F04CF828B903B05DF804FB6F
:101C5800FFF75AFEF1E7FFF757FEF6E7B00B002053
:101C68000010004000B583B00368B3F1804F05D081
:101C7800124A93420ED003B05DF804FB03F5043317
:101C8800DA6942F00102DA61DB6903F001030093CB
:101C9800009BF0E70A4BDA6942F01002DA61DB696F
:101CA80003F010030193019B00221146362000F037
:101CB80099F9362000F0DCF9DDE700BF001000409C
:101CC8000010024000B587B00023029303930493E9
:101CD80005930368B3F1804F02D007B05DF804FBA9
:101CE80003F504339A6942F008029A619B6903F08C
:101CF80008030193019B4FF40063029302230393AB
:101D0800059302A9064800F095FA064A536823F499
:101D1800407343F0E06343F400735360DDE700BFB2
:101D2800000C01400000014000B58FB000230A9369
:101D38000B930C930D9308930993019302930393C8
:101D4800049305930693079321484FF0804202605D
:101D580040F2CF22426083606422C26003618361E3
:101D680003F00EFA28BB4FF480530A930AA91848C7
:101D780003F0A8FC00BB164803F08EFAF8B900235C
:101D88000893099308A9124803F0AAFFD0B9602361
:101D9800019300230293039305930C2201A90C4895
:101DA80003F066FB88B90A48FFF78CFF0FB05DF8AF
:101DB80004FBFFF7A9FDD6E7FFF7A6FDDBE7FFF772
:101DC800A3FDDCE7FFF7A0FDE1E7FFF79DFDEAE7EC
:101DD800680B002008B50A480A4B03604FF4E1334A
:101DE800436000238360C36003610C224261836106
:101DF800C36104F0BBF800B908BDFFF785FDFBE738
:101E0800F80B00200038014010B586B0002302937B
:101E18000393049305930268174B9A4201D006B0C6
:101E280010BD03F558439A6942F480429A619A6951
:101E380002F480420092009A9A6942F004029A6180
:101E48009B6903F004030193019B4FF40073029311
:101E58000223039303230593084C02A9204600F0AC
:101E6800E9F94FF48063029300230393049302A9D2
:101E7800204600F0DFF9D2E70038014000080140B1
:101E880000B583B001904FF6FF73012201A9034802
:101E980004F0EAF8019803B05DF804FBF80B0020A1
:101EA800FFF7B6FE0B480C490C4A002302E0D45851
:101EB800C4500433C4188C42F9D3094A094C00238E
:101EC80001E013600432A242FBD324F08FF807F03C
:101ED800E5FE704700000020180A0020FC5E030899
:101EE800180A002034760020FEE7000010B50446EA
:101EF8000E4B18784FF47A73B3FBF0F30C4A106862
:101F0800B0FBF3F000F0CCF868B90F2C01D9012030
:101F18000AE0002221464FF0FF3000F063F8054B3D
:101F28001C60002000E0012010BD00BF040000205C
:101F3800000000200800002008B5074A136843F095
:101F480010031360032000F02FF80F20FFF7CEFFD7
:101F5800FFF7CCFD002008BD00200240034A1168AD
:101F6800034B1B780B441360704700BF400C0020E4
:101F780004000020014B1868704700BF400C002087
:101F880038B50446FFF7F6FF0546B4F1FF3F02D027
:101F9800044B1B781C44FFF7EDFF401BA042FAD30B
:101FA80038BD00BF0400002010B50446C31E042B32
:101FB8000FD80A4AD36823F4E0631B041B0C2402DD
:101FC80004F4E064234343F0BF6343F40033D36075
:101FD80010BD91210248FFF7CBFCEAE700ED00E0D5
:101FE8005CDE020870B505460C4616460F2A25D851
:101FF8000F2C28D81B4BDB68C3F30223C3F107015E
:10200800042928BF04211A1D062A21D9033B4FF0B1
:10201800FF3202FA01F124EA01049C4002FA03F3B8
:1020280026EA03063443002D14DB2401E4B205F14B
:10203800604505F5614585F8004370BDA9210A484A
:10204800FFF796FCD4E7AA210748FFF791FCD1E7F0
:102058000023DCE705F00F052401E4B2034B5C55CF
:10206800EBE700BF00ED00E05CDE020814ED00E0E5
:1020780010B5041E0ADB002C07DB04F01F026409FC
:1020880001239340044A42F8243010BDBD2103487F
:10209800FFF76EFCEFE700BF00E100E05CDE02083E
:1020A8000138B0F1807F0BD24FF0E0235861054A28
:1020B800F02182F823100020986107221A617047E6
:1020C8000120704700ED00E008B590F82130DBB240
:1020D800022B03D004238363012008BD0268136820
:1020E80023F00E0313600268136823F001031360E2
:1020F80003684C4A93424ED9783A934224D014321A
:10210800934230D0143293422FD0143293422FD0BE
:10211800143293422FD0143293422FD01432934268
:102128002FD002F5627293422ED0143293422DD0F2
:10213800143293422CD01432934202D04FF480329E
:1021480003E04FF4805200E00122374B5A6001232C
:1021580080F82130002380F82030436B002B5ED0BC
:1021680098470020B9E71022EFE74FF48072ECE7B8
:102178004FF48052E9E74FF48032E6E74FF48012DB
:10218800E3E74FF08072E0E70122DEE71022DCE7A8
:102198004FF48072D9E7254A934224D014329342EF
:1021A80025D01432934224D01432934224D01432CE
:1021B800934224D01432934224D01432934224D030
:1021C80002F56272934223D01432934222D0143221
:1021D800934221D01432934202D04FF4803203E06C
:1021E8004FF4805200E00122114B5A60AFE71022F1
:1021F800FAE74FF48072F7E74FF48052F4E74FF4B0
:102208008032F1E74FF48012EEE74FF08072EBE78F
:102218000122E9E71022E7E74FF48072E4E70020A3
:102228005BE700BF80000240000402400800024053
:10223800000002402DE9F04383B007460E46884B64
:1022480098421BD003F58063984217D003F580634A
:10225800984213D003F5806398420FD003F580634A
:1022680098420BD003F58063984207D003F580634A
:10227800984203D0BD217B48FFF77AFB33689AB2B6
:1022880012B11B0C1B041BB1BE217648FFF770FB73
:102298007368012B1ED9112B1CD0022B1AD0122BBC
:1022A80018D0714A934215D002F58012934211D08A
:1022B80002F5801293420DD0A2F5F812934209D08C
:1022C80002F58012934205D002F58012934201D0A4
:1022D800032B03D14FF000094D46FDE0BF216148B3
:1022E800FFF746FBF6E7614A934210D007D9604AE8
:1022F80093420CD002F58032934208D01AE0A2F53E
:102308008012934203D002F5702293420ED1B36833
:10231800022B00F28D80B368002B00F09580012B12
:1023280000F08B807C614FF0080903E0A2F5801271
:102338009342ECD0B8F1FF0F00F289803846B8F12B
:10234800FF0F00F28680AA0003680F21914023EA5C
:10235800010309FA02F213430360736813F0805F04
:1023680000F0B980434B9A6942F001029A619B6977
:1023780003F001030193019BAA08911C3E4B53F8FB
:10238800210005F0030399000F238B4020EA030086
:10239800334B9F4272D003F580639F4200F0F68072
:1023A80003F580639F4200F0F38003F580639F424A
:1023B80000F0F08003F580639F4200F0ED8003F5A4
:1023C80080639F4249D0062359E0F368013B022B02
:1023D80002D8D6F80C90ADE7D5212248FFF7C8FA05
:1023E800F7E7F368013B022B03D8F36803F104090C
:1023F800A0E7DC211B48FFF7BBFAF6E7F368013BCF
:10240800022B03D8F36803F1080993E7E321154881
:10241800FFF7AEFAF6E7F368013B022B03D8F3683F
:1024280003F10C0986E7EA210E48FFF7A1FAF6E75F
:10243800F7210C48FFF79CFA6DE73C614FF008095B
:1024480078E74FF0000975E74FF0040972E7381D87
:1024580075E7A5F10802920076E705230FE000BFB3
:1024680000080140ACDE0208000011100000221034
:1024780000003110001002400000014000238B4092
:1024880003430232534941F82230736813F4801F22
:1024980000F08480504A936843EA080393607368A5
:1024A80013F4001F00F080804B4AD36843EA080306
:1024B800D360736813F4003F7CD0474A536843EAFB
:1024C80008035360736813F4803F79D0424A136855
:1024D80043EA080313600135336833FA05F275D00F
:1024E8000124AC4003EA040834EA0303F3D13B4B6C
:1024F8009F421BD003F580639F4217D003F580638A
:102508009F4213D003F580639F420FD003F5806389
:102518009F420BD003F580639F4207D003F5806389
:102528009F4203D0CD212E48FFF722FA7368122B61
:102538003FF6D9AE122B3FF6FDAE01A252F823F0BA
:1025480017230008D3230008052400084B2400089B
:102558003D2300083D2300083D2300083D230008D3
:102568003D2300083D2300083D2300083D230008C3
:102578003D2300083D2300083D2300083D230008B3
:102588003D230008EB2300081F240008012376E7F9
:10259800022374E7032372E7042370E70E4A936863
:1025A80023EA080393607AE70B4AD36823EA08030F
:1025B800D3607EE7084A536823EA0803536081E73B
:1025C800054A136823EA0803136084E703B0BDE8EB
:1025D800F08300BF000001400004014000080140F2
:1025E800ACDE020838B504460D4621B1A3681D4289
:1025F80007D0012038BD4FF4DA710348FFF7B8F966
:10260800F4E70020F6E700BFACDE020870B5054627
:1026180014460E4621B1012C08D86CB12E6170BD4C
:102628004FF4EA710648FFF7A3F9F4E740F2D51131
:102638000348FFF79DF9F0E736042E61EFE700BF86
:10264800ACDE020838B505460C4641B1EB6804EA31
:10265800030224EA030444EA02442C6138BD4FF41F
:10266800F6710248FFF784F9F0E700BFACDE020814
:1026780003685A6912F4806F01D1002070476FF423
:1026880080625A6100230363202280F83D2080F88D
:102698003E30026C42F00402026480F83C300120B3
:1026A80070472DE9F04106460C46174698463BE030
:1026B800FFF760FC069BC01A404502D8B8F1000F2E
:1026C80032D1012D18D033689B6924EA03039BB2E9
:1026D800B3FA83F35B099F4226D100233363202298
:1026E80086F83D2086F83E30326C42F02002326493
:1026F80086F83C30012027E033685B6924EA03034D
:102708009BB2B3FA83F35B09E5E733685B6924EAB4
:10271800030C1FFA8CFCBCFA8CFC4FEA5C1C674566
:1027280011D1B8F1FF3FC3D1C4F30745012DECD057
:1027380033689B6924EA030C1FFA8CFCBCFA8CFCF6
:102748004FEA5C1CEBE70020BDE8F0812DE9F84377
:1027580005460E469046994653E01A6842F40072C0
:102768001A602B686FF480625A6100232B63202261
:1027780085F83D2085F83E302A6C42F004022A6430
:1027880085F83C3001204AE0FFF7F4FBA0EB090094
:10279800404502D8B8F1000F33D1012F17D02B686C
:1027A8009B6926EA03039BB2003B18BF012343B38E
:1027B80000232B63202285F83D2085F83E302A6CC3
:1027C80042F020022A6485F83C30012027E02B687B
:1027D8005B6926EA03039BB2003B18BF0123E6E7C7
:1027E8002B689C6926EA0404A4B2003C18BF0124A3
:1027F800A4B12B685A6912F4806FAED1B8F1FF3FCB
:10280800C2D1C6F30747012FEAD12B685C6926EAD3
:102818000404A4B2003C18BF0124E9E70020BDE885
:10282800F88370B504460D46164623685B6913F0B5
:10283800800F21D12046FFF71BFFF8B9B5F1FF3F04
:10284800F3D0FFF797FB801BA84201D8002DECD1ED
:1028580023685B6913F0800FE7D1002323632022EC
:1028680084F83D2084F83E30226C42F02002226435
:1028780084F83C30012000E0002070BD0120FCE716
:102888002DE9F04385B004460D4691461F46DDF814
:1028980030800D9E0368196841F4807119600096B4
:1028A800434600224FF00111FFF7FBFE60B9236891
:1028B80005F0FE051D613346424626492046FFF7CE
:1028C80045FF68B1012008E023681B6813F4807F86
:1028D80002D04FF400732364032005B0BDE8F083F1
:1028E8000023039323685A6903929B690393039B0C
:1028F800324641462046FFF794FF30B9012F0FD1E9
:1029080023685FFA89F61E61E7E7236C042B01D080
:102918000120E2E72268136843F400731360F7E7C5
:1029280023684FEA19221A61324641462046FFF7CA
:1029380078FF20B923685FFA89F61E61CDE7236C1A
:10294800042B01D00120C8E72268136843F4007300
:102958001360F7E7020001002DE9F04784B0044650
:102968000D46164699460C9FDDF8348002681368B8
:1029780043F4806313600368196841F48071196037
:10298800CDF800803B4600224FF00111FFF789FE89
:1029980070B95FFA85FA236805F0FE051D614346A4
:1029A8003A4641492046FFF7D1FE68B1012008E0C8
:1029B80023681B6813F4807F02D04FF400732364EC
:1029C800032004B0BDE8F0870023039323685A6905
:1029D80003929B690393039B424639462046FFF7BF
:1029E80020FF80B9B9F1010F18D12368F6B21E6132
:1029F800424639462046FFF714FF68B3236C042B80
:102A080024D00120DDE7236C042B01D00120D8E776
:102A18002268136843F400731360F7E72368320AE7
:102A28001A61424639462046FFF7FBFE18B923686B
:102A3800F6B21E61DCE7236C042B01D00120C0E74D
:102A48002268136843F400731360F7E72268136879
:102A580043F400731360D4E72268136843F4807367
:102A68001360CDF800803B4600224FF0011120464C
:102A7800FFF717FE68B922684AF00103136143465D
:102A88003A4609492046FFF761FE002899D00120FF
:102A980097E723681B6813F4807F02D04FF4007314
:102AA800236403208DE700BF0200010070B50446CF
:102AB8000D46164623685B6913F0040F21D12046A2
:102AC800FFF7D6FDF8B9B5F1FF3FF3D0FFF752FA9B
:102AD800801BA84201D8002DECD123685B6913F054
:102AE800040FE7D100232363202284F83D2084F8D3
:102AF8003E30226C42F02002226484F83C300120EF
:102B080000E0002070BD0120FCE770B504460D46CA
:102B1800164614E06FF010025A6100232363202246
:102B280084F83D2084F83E30226C226484F83C30DE
:102B3800012025E023685B6913F0400F10D023685B
:102B4800586910F0400F1AD1586910F0100FE1D1F0
:102B5800FFF710FA801BA842ECD8002DEFD1E9E767
:102B680000232363202284F83D2084F83E30226C21
:102B780042F02002226484F83C30012000E000206A
:102B880070BD0000002800F0328170B5044603686B
:102B9800994A934208D002F58062934204D040F2E9
:102BA800DB119648FEF7E4FE6368013B944A9342C2
:102BB80071D8A36813B1B3F5804F72D1E36823F4D9
:102BC8007F7323F00303002B71D12369B3F5804F82
:102BD80002D0B3F5404F70D16369012B73D8A36954
:102BE80033F0FE0375D1E3690BB1402B77D1236A2B
:102BF8000BB1802B79D194F83D30002B7BD0242366
:102C080084F83D302268136823F0010313602268BA
:102C1800136843F4004313602268136823F40043E5
:102C2800136000F065FF6268764B9A4269D8764B6C
:102C380098428CBF00230123002B40F0DA807349AF
:102C4800A1FB00318B0C25686A6822F03F0242EA3A
:102C580091426A6021680A6A22F03F026668694DFB
:102C6800AE4254D8013313430B622168CA6922F477
:102C78004F4222F0FF026668624B9E4251D8431EC3
:102C88007600B3FBF6F3013340F6FC7003427ED0C6
:102C9800C3F30B037CE04FF4EE715848FEF768FE6F
:102CA80087E740F2DD115548FEF762FE86E74FF4EC
:102CB800EF715248FEF75CFE87E740F2DF114F489C
:102CC800FEF756FE88E74FF4F0714C48FEF750FEC9
:102CD80085E740F2E1114948FEF74AFE83E74FF4E1
:102CE800F1714648FEF744FE81E740F2E31143489C
:102CF800FEF73EFE7FE784F83C302046FEF7D2FD23
:102D08007DE7434B98428CBF0023012394E74FF49F
:102D1800967505FB03F33F4DA5FB03539B09013350
:102D2800A1E7A368C3B9451E06EB460CB5FBFCF545
:102D38000135C5F30B05B5FA85F56D09002D54D19C
:102D4800C3B9013806EB4603B0FBF3F30133C3F311
:102D58000B0343F400431BE0451E06EB860C0CEB0B
:102D68008C0CB5FBFCF50135C5F30B05B5FA85F5FB
:102D78006D09E3E7013806EB860303EB8303B0FB39
:102D8800F3F30133C3F30B0343F4404300E004239C
:102D98001343CB6121680B6823F0C003E269206A02
:102DA800024313430B6021688B6823F4034323F029
:102DB800FF032269E068024313438B602168CB68F4
:102DC80023F0FF036269A06902431343CB602268C2
:102DD800136843F00103136000202064202384F863
:102DE8003D30206384F83E0070BD0123D0E7012008
:102DF80070470120F8E700BF00540040F8DE0208E1
:102E08007F1A0600A08601007F841E0083DE1B4314
:102E1800FF083D00D34D62102DE9F04383B004460E
:102E2800884691461F460C9EFFF7A4F80546012FD9
:102E380001D0102F08D194F83D30DBB2202B09D0F7
:102E4800022003B0BDE8F08340F606214E48FEF7A5
:102E58008FFDF0E70095192301224C492046FFF722
:102E680020FC002840F0898094F83C30012B00F0C9
:102E78008680012384F83C3023681A6812F0010F19
:102E880003D11A6842F001021A602268136823F419
:102E980000631360212384F83D30402384F83E30DA
:102EA800002323640A9B6362BDF82C306385638D1D
:102EB8002385374BE362019500963B464A464146D7
:102EC8002046FFF7DDFC00285BD1238D002B35D091
:102ED8002A4631462046FFF7A4FC20BB626A2368D5
:102EE80012781A61626A531C6362218D013989B2B2
:102EF8002185638D9BB2013B9BB26385236858692A
:102F080010F0040FE1D00029DFD052781A61636A0B
:102F180001336362238D013B2385638D9BB2013BA3
:102F28009BB26385D1E7236C042B01D0012088E78D
:102F38002268136843F400731360F7E72A463146A2
:102F48002046FFF7B3FD50B1236C042B01D00120BC
:102F580077E72268136843F400731360F7E7226881
:102F6800136843F400731360202384F83D30002372
:102F780084F83E3084F83C3063E7022061E70220A1
:102F88005FE701205DE700BFF8DE020802001000DD
:102F98000000FFFF2DE9F04389B0044688469146BA
:102FA8001F46129E00230793FEF7E4FF0546012FF4
:102FB80001D0102F09D194F83D30DBB2202B0AD074
:102FC8000227384609B0BDE8F08340F683218548DA
:102FD800FEF7CEFCEFE7009519230122824920462F
:102FE800FFF75FFB002840F0748194F83C30012B18
:102FF80000F07181012384F83C3023681A6812F0CC
:10300800010F03D11A6842F001021A60226813689E
:1030180023F400631360222384F83D30402384F8AE
:103028003E3000232364109B6362BDF844306385FF
:10303800638D23856D4BE362019500963B464A46B6
:1030480041462046FFF788FC0746002840F04581A6
:10305800238D5BB9039323685A6903929A69039293
:10306800039A1A6842F400721A60EFE0012B0FD03D
:10307800022B21D02268136843F480631360002375
:10308800069323685A6906929B690693069BDDE0BE
:103098002268136823F48063136072B600230493D4
:1030A80023685A6904929A690492049A1A6842F445
:1030B80000721A6062B6C9E02268136843F40063BC
:1030C800136072B60023059323685A6905929A69BA
:1030D8000592059A1A6822F480621A6062B6B5E011
:1030E8002A4631462046FFF710FD002840F0F780B9
:1030F80023681A69636A1A70636A01336362238DED
:10310800013B2385638D9BB2013B9BB263859DE0A8
:1031180000953346002236492046FFF7C2FA0028B8
:1031280040F0E1802268136823F48063136072B66C
:1031380023681A69636A1A70636A01336362238DAC
:10314800013B2385638D9BB2013B9BB26385294B71
:103158001B68DB08284AA2FB03231B0A03EB830333
:10316800C3EBC3030793079B013B0793079B002B04
:1031780028D023685A6912F0040FF4D01A6842F470
:1031880000721A6023681A69636A1A70636A0133E5
:103198006362238D013B2385638D9BB2013B9BB208
:1031A800638562B623681A69636A1A70636A0133B1
:1031B8006362238D013B2385638D9BB2013B9BB2E8
:1031C800638543E02363202284F83D2084F83E3061
:1031D800226C42F02002226462B684F83C30012757
:1031E800EFE600BFF8DE0208020010000000FFFF53
:1031F800040001000000002089B5F8142A46314671
:103208002046FFF782FC00286FD123681A69636A99
:103218001A70626A531C6362238D013B2385638D98
:103228009BB2013B9BB263852368596911F0040F77
:103238000CD01B695370636A01336362238D013BB1
:103248002385638D9BB2013B9BB26385238D002B45
:1032580036D0032BD2D8012B3FF442AF022B7FF498
:1032680057AF00953346002221492046FFF719FA47
:10327800002836D172B62268136843F400731360CD
:1032880023681A69636A1A70636A01336362238D5B
:10329800013B2385638D9BB2013B9BB2638562B67C
:1032A80023681A69636A1A70636A01336362238D3B
:1032B800013B2385638D9BB2013B9BB26385C5E7C8
:1032C800202384F83D30002384F83E3084F83C30D5
:1032D80077E6022775E6022773E6012771E60127DC
:1032E8006FE601276DE601276BE6012769E600BF57
:1032F8000400010082B0084B1B68084AA2FB0323A4
:103308005B0A00FB03F3019300BF019B5A1E019265
:10331800002BF9D102B0704700000020D34D621095
:10332800002800F0898270B582B00446036813B1A2
:1033380013F00F0F2AD0236813F0010F40D06368F1
:103348002BB1B3F5803F02D0B3F5A02F24D19C4B0D
:103358005B6803F00C03042B29D0994B5B6803F0DE
:103368000C03082B1ED06368B3F5803F55D0002BA3
:1033780069D103F1804303F504331A6822F48032DB
:103388001A601A6822F480221A604BE040F2651134
:103398008C48FEF7EDFACEE740F26B118948FEF74C
:1033A800E7FAD4E7864B5B6813F4803FDBD0844BA5
:1033B8001B6813F4003F03D06368002B00F03E82C3
:1033C800236813F0020F00F089802369012B63D86A
:1033D80063691F2B66D87A4B5B6813F00C0F6CD0AF
:1033E800774B5B6803F00C03082B61D02369002B33
:1033F80000F09A80744B01221A60FEF7BBFD054667
:103408006F4B1B6813F0020F40F08580FEF7B2FD8A
:10341800401B0228F4D9032015E2694A136843F4D3
:1034280080331360636843B3FEF7A4FD0546644B1D
:103438001B6813F4003FC3D1FEF79CFD401B6428B2
:10344800F5D90320FFE1B3F5A02F09D05C4B1A682A
:1034580022F480321A601A6822F480221A60E1E7A6
:1034680003F18043A3F53C331A6842F480221A60C2
:103478001A6842F480321A60D4E7FEF77BFD0546ED
:103488004F4B1B6813F4003F9AD0FEF773FD401BA7
:103498006428F5D90320D6E140F29F114948FEF788
:1034A80067FA95E74FF4D0714648FEF761FA92E75C
:1034B800434B5B6813F4803F98D1414B1B6813F072
:1034C800020F03D02369012B40F0BA813C4A1368EC
:1034D80023F0F803616943EAC1031360236813F01A
:1034E800080F3CD0A369012B30D8A369002B6FD0FB
:1034F800354B0122C3F88024FEF73CFD0546304BCE
:103508005B6A13F0020F27D1FEF734FD401B022837
:10351800F5D9032097E12A4A136823F0F803616973
:1035280043EAC1031360D9E7274B00221A60FEF76C
:1035380021FD0546224B1B6813F0020FCED0FEF783
:1035480019FD401B0228F5D903207CE14FF4F071E6
:103558001C48FEF70DFAC8E70120FFF7CBFE2368E9
:1035680013F0040F00F0A480E368012B01D9052BA8
:1035780041D1134BDB6913F0805F42D1104BDA69FC
:1035880042F08052DA61DB6903F080530193019BBA
:1035980001250E4B1B6813F4807F34D0E368012BA0
:1035A80045D0002B5BD103F1804303F504331A6A3D
:1035B80022F001021A621A6A22F004021A623BE03F
:1035C8000010024044DF0208000042420070004040
:1035D800A14B0022C3F88024FEF7CCFC05469F4B84
:1035E8005B6A13F0020FBAD0FEF7C4FC401B022836
:1035F800F5D9032027E140F20F219948FEF7B8F9E1
:10360800B7E70025C5E7974A136843F4807313604A
:10361800FEF7B0FC0646934B1B6813F4807FBDD1C0
:10362800FEF7A8FC801B6428F5D903200BE18B4A20
:10363800136A43F001031362E36833B3FEF79AFC9D
:103648000646864B1B6A13F0020F2FD1FEF792FC39
:10365800801B41F288339842F3D90320F3E0052B0D
:1036680009D07E4B1A6A22F001021A621A6A22F005
:1036780004021A62E0E7794B1A6A42F004021A62FD
:103688001A6A42F001021A62D6E7FEF773FC064690
:10369800724B1B6A13F0020F08D0FEF76BFC801BFD
:1036A80041F288339842F3D90320CCE0002D53D15E
:1036B800E369022B56D8E369002B00F0C380674A00
:1036C800526802F00C02082A00F0A680022B40F093
:1036D8008F80236A13B1B3F5803F49D1636A4BB336
:1036E800B3F5802F26D0B3F5002F23D0B3F5402FA4
:1036F80020D0B3F5801F1DD0B3F5A01F1AD0B3F5A5
:10370800C01F17D0B3F5E01F14D0B3F5001F11D0B8
:10371800B3F5101F0ED0B3F5201F0BD0B3F5301F33
:1037280008D0B3F5401F05D0B3F5501F02D0B3F54C
:10373800601F23D1484B00221A66FEF71BFC054682
:10374800464B1B6813F0007F1ED0FEF713FC401B8E
:103758000228F5D9032076E0404AD36923F0805344
:10376800D361A5E740F2AD213D48FEF701F9A2E794
:1037780040F2B6213A48FEF7FBF8AFE740F2B7212E
:103788003748FEF7F5F8D5E7236AB3F5803F1AD036
:1037980032494B6823F47413226A606A0243134364
:1037A8004B602D4B01221A66FEF7E4FB04462B4BB7
:1037B8001B6813F0007F19D1FEF7DCFB001B022801
:1037C800F5D903203FE0A36813B1B3F5003F07D153
:1037D800224A536823F40033A1680B435360D7E7A8
:1037E80040F2CD211E48FEF7C3F8F1E700202AE099
:1037F800194B00221A66FEF7BDFB0446174B1B68DF
:1038080013F0007F06D0FEF7B5FB001B0228F5D9A0
:10381800032018E0002016E0012B16D00F4B5B6840
:1038280003F48031226A914211D103F47013626A61
:1038380093420ED1002006E001207047012002E0EB
:10384800012000E0002002B070BD0120FBE701204C
:10385800F9E70120F7E700BF0000424200100240EC
:1038680044DF0208007000400F4B5B6803F00C0255
:10387800082A01D00D487047C3F383420C49885C7D
:1038880013F4803F0BD0084B5B68C3F34043094AED
:10389800D35C064A02FB00F0B0FBF3F07047064B1E
:1038A80003FB00F0704700BF0010024000127A00CE
:1038B80090DF0208A0DF020800093D00002800F0A0
:1038C800FC8070B50D460446036813F00F0F6DD0E9
:1038D800022D71D87D4B1B6803F00703AB420BD256
:1038E8007A4A136823F007032B431360136803F025
:1038F8000703AB4240F0E380236813F0020F29D09E
:1039080013F0040F04D0724A536843F4E063536021
:10391800236813F0080F04D06D4A536843F46053CA
:103928005360A3687BB1802B0DD0902B0BD0A02BBC
:1039380009D0B02B07D0C02B05D0D02B03D0E02B5B
:1039480001D0F02B3ED1624A536823F0F003A168FE
:103958000B435360236813F0010F4DD06368022BAB
:1039680036D86368012B39D0022B3ED0584A1268EA
:1039780012F0020F00F0A58055494A6822F00302B0
:1039880013434B60FEF7F6FA0646514B5B6803F0AB
:103998000C036268B3EB820F2ED0FEF7EBFA801BA4
:1039A80041F288339842F0D9032079E040F2363169
:1039B8004848FDF7DDFF8BE740F237314548FDF712
:1039C800D7FF87E740F25D314248FDF7D1FFBAE7FC
:1039D8004FF459713F48FDF7CBFFC2E73C4A1268E4
:1039E80012F4003FC8D101205AE0394A126812F097
:1039F800007FC1D1012053E0344B1B6803F007035B
:103A0800AB420AD9314A136823F007032B431360EA
:103A1800136803F00703AB4255D1236813F0040F72
:103A280014D0E3685BB1B3F5806F08D0B3F5A06F2D
:103A380005D0B3F5C06F02D0B3F5E06F31D1244A99
:103A4800536823F4E063E1680B435360236813F081
:103A5800080F15D023695BB1B3F5806F08D0B3F5B3
:103A6800A06F05D0B3F5C06F02D0B3F5E06F1ED1DB
:103A7800174A536823F46053216943EAC10353602A
:103A8800FFF7F2FE124B5B68C3F30313124AD35CD1
:103A9800D840124B1860124B1868FEF727FA00201E
:103AA80070BD40F2A2310B48FDF762FFC7E740F254
:103AB800A9310848FDF75CFFDAE7012070470120CB
:103AC800EEE70120ECE70120EAE700BF0020024012
:103AD8000010024044DF020844DE02080000002013
:103AE80008000020014B1868704700BF0000002044
:103AF80008B5FFF7F7FF044B5B68C3F30223034ADB
:103B0800D35CD84008BD00BF0010024054DE020854
:103B180008B5FFF7E7FF044B5B68C3F3C223034A0A
:103B2800D35CD84008BD00BF0010024054DE020834
:103B380070B582B0044600230193006802F04EFC81
:103B4800054610B1284602B070BD206802F040FF5B
:103B580038B90123A364A36C012B0BD02E46284649
:103B680014E00023A364206802F038FC0028F2D097
:103B78000546E7E70021206802F098FD0028EDD00F
:103B88004FF08055DEE7019B01330193019A4FF610
:103B9800FE739A4213D896B90021206802F086FD78
:103BA800E0B91249206802F05FFE0646C0B900215C
:103BB800206802F09BFBC30FE5D01E46E3E7019A9D
:103BC8004FF6FE739A420ED810F0804302D00123BC
:103BD8006364B7E7002262641D46B3E70546B1E7B0
:103BE8004FF08055AEE74FF08075ABE7000010C18D
:103BF800F8B5846AC66AA6B9F8BD386802F01CFB35
:103C08002070C0F307236370C0F30743A370000E4E
:103C1800E0700434043E0135072DEED9BC62FE6223
:103C2800EAE707460025F7E7F0B583B0046A466A75
:103C3800DEB903B0F0BD23780193627843EA02232A
:103C48000193A27843EA02430193E27843EA0263CC
:103C580001930434043E01A9386802F0F0FA0135F2
:103C6800072DE8D93C627E62E3E707460025F7E7BF
:103C7800F0B589B004460F46FEF77CF906460023E6
:103C8800009301930821206802F066FC054610B1F4
:103C9800284609B0F0BD216D0904206802F006FD30
:103CA80005460028F4D14FF0FF330293082303930D
:103CB80030230493022305930023069301230793DB
:103CC80002A9206802F028FB206802F01FFD0546C3
:103CD80058B1DDE702F0B0FA4DF825000135FEF7DE
:103CE80049F9831BB3F1FF3F3FD02068436B13F0C2
:103CF8002A0F07D1436B13F4001FEBD1436B13F466
:103D0800005FECD1436B13F0080F25D1436B13F020
:103D1800020F24D1456B15F0200523D140F23A5308
:103D28008363019A130203F47F0343EA0263110ACF
:103D380001F47F410B4343EA12633B60009A13028C
:103D480003F47F0343EA0263110A01F47F410B4342
:103D580043EA12637B609BE70825856398E70225A1
:103D6800856395E72025856392E74FF000458FE747
:103D780010B582B00446002100910191006802F05C
:103D8800B5FA10F0007F13D169462046FFF770FF9F
:103D980080B9019B13F4802F0ED0216D090420688F
:103DA80002F084FC30B90221206802F097FC01E09F
:103DB8004FF4006002B010BD4FF08060FAE710B514
:103DC80082B00446002100910191006802F08EFA49
:103DD80010F0007F13D169462046FFF749FF80B9EC
:103DE800019B13F4803F0ED0216D0904206802F076
:103DF8005DFC30B90021206802F070FC01E04FF44E
:103E0800006002B010BD4FF08060FAE770B581B174
:103E180004460E46016D0904006802F08FFC054651
:103E280008B1284670BD0021206802F05FFA3060B2
:103E3800F7E74FF00065F4E72DE9F04F87B0054646
:103E48000C4616469B46DDF840A0FEF793F8002C7A
:103E580036D0814695F83470FFB2012F40F00581C5
:103E68000023AB6306EB0B03EA6D93422ED80323C2
:103E780085F834302B680022DA626B6C012B00D095
:103E880076024FF0FF3300934FEA4B2301939023C0
:103E980002930223039300230493012305936946A5
:103EA800286802F039FABBF1010F14D902232B63F9
:103EB8003146286802F080FBA0B9DDF8048038E0BC
:103EC800AB6B43F00063AB630127D3E0AB6B43F00C
:103ED8000073AB63CEE001232B633146286802F000
:103EE80053FBE9E72B68654A9A63AB6B1843A863F1
:103EF800012385F8343000232B63BBE0286802F0E7
:103F08009BF92070C0F307236370C0F30743A370C5
:103F1800000EE0700434A8F104080136072EEDD92C
:103F2800FEF728F8A0EB0900504510D2BAF1000FAF
:103F38000DD02868466B40F22A331E4015D1436BDA
:103F480013F4004FECD0B8F1000FE9D0E6E72B6886
:103F58004A4A9A63AB6B43F00043AB63012385F88D
:103F6800343000232B63032784E0436B13F4807FF2
:103F780005D0BBF1010F02D96B6C032B38D12B682C
:103F88005A6B12F0080F44D15A6B12F0020F4CD141
:103F98005A6B12F0200F54D12868436B13F4001F9A
:103FA8005BD0B8F1000F58D002F046F92070C0F38A
:103FB80007236370C0F30743A370000EE070043456
:103FC800A8F10408FDF7D6FFA0EB0900504502D27E
:103FD800BAF1000FE0D12B68284A9A63AB6B43F023
:103FE8000043AB63012385F8343000232B6341E0A1
:103FF80002F02AFB03460028C1D02A681F499163B2
:10400800AA6B1343AB63012385F8343000232B6379
:1040180030E01A4A9A63AB6B43F00803AB630123A1
:1040280085F8343000232B6324E0144A9A63AB6B81
:1040380043F00203AB63012385F8343000232B637C
:1040480018E00E4A9A63AB6B43F02003AB6301237D
:1040580085F8343000232B630CE040F23A53836335
:10406800012385F83430002704E0AB6B43F000539C
:10407800AB630127384607B0BDE8F08FFF05400065
:104088002DE9F04F8BB005460C4616469B46DDF8E9
:1040980050A0FDF76FFF002C37D0804695F834709C
:1040A800FFB2012F40F0E2800023AB6306EB0B0365
:1040B800EA6D93422FD8032385F834302B68002209
:1040C800DA626B6C012B00D076024FF0FF33049359
:1040D8004FEA4B23059390230693002307930893F5
:1040E8000123099304A9286802F016F9BBF1010F0E
:1040F80016D920232B633146286802F08DFA0190E7
:10410800019BABB9DDF8149040E0AB6B43F0006362
:10411800AB630127AFE0AB6B43F00073AB63AAE07E
:1041280010232B633146286802F05EFA0190E7E716
:104138002B68534A9A63A86B019B1843A863012311
:1041480085F8343000232B6395E023780393627855
:1041580043EA02230393A27843EA02430393E278F3
:1041680043EA026303930434A9F1040903A9286804
:1041780002F065F80136072EE7D9FDF7FBFEA0EB44
:104188000800504510D2BAF1000F0DD02868466BD0
:1041980040F21A331E4015D1436B13F4804FECD014
:1041A800B9F1000FE9D0E6E72B68354A9A63A86BA6
:1041B800019B1843A863012385F8343000232B633F
:1041C800032758E0436B13F4807F05D0BBF1010F40
:1041D80002D96B6C032B18D12B685A6B12F0080F9D
:1041E80024D15A6B12F0020F2CD15A6B12F0100F17
:1041F80034D0234A9A63AB6B43F01003AB630123BB
:1042080085F8343000232B6335E002F01DFA0346AD
:104218000028E1D02A681A499163AA6B1343AB635B
:10422800012385F8343000232B6324E0144A9A6371
:10423800AB6B43F00803AB63012385F834300023EC
:104248002B6318E00E4A9A63AB6B43F00203AB632F
:10425800012385F8343000232B630CE040F23A52F6
:104268009A63012385F83430002704E0AB6B43F0F0
:104278000053AB63012738460BB0BDE8F08F00BF91
:10428800FF05400070470000436E9B0F0B70436EA4
:10429800C3F383634B7090F8673003F003038B70AC
:1042A80090F86630CB7090F865300B7190F86430F8
:1042B8004B71836E1B0DCB80B0F86A3003F00F038F
:1042C8000B72836EC3F3C0334B72836EC3F38033B8
:1042D8008B72836EC3F34033CB72836EC3F30033A8
:1042E8000B7300234B73436C002B40F08680826E67
:1042F80040F6FC7303EA8203C26E43EA92730B61D1
:10430800C36EC3F3C2630B7590F86F3003F00703F5
:104318004B75C36EC3F342538B75C36EC3F38243AD
:10432800CB75C36EC3F3C2330B760B690133436598
:104338000A7E02F007020232934043650A7A02F0CD
:104348000F0C012202FA0CF28265520A02FB03F3F7
:10435800C3654FF400730366C36EC3F380334B76B3
:10436800C36EC3F3C6138B76C36E03F07F03CB769D
:10437800036FDB0F0B77036FC3F341734B77036F47
:10438800C3F382638B77036FC3F38353CB77036FD6
:10439800C3F3405381F82030002381F82130B0F86E
:1043A800722002F0010281F82220026FC2F3C032AB
:1043B80081F82320026FC2F3803281F82420026F33
:1043C800C2F3403281F82520026FC2F3003281F82F
:1043D8002620026FC2F3812281F82720026FC2F3E0
:1043E800012281F82820026FC2F3460281F82920B1
:1043F800012281F82A2018467047012B11D1836EBB
:104408001B0403F47C13B0F86E2013430B610B6993
:1044180001339B024365C3654FF4007383650366EC
:104428009AE70368054A9A63836B43F08053836372
:10443800012380F834301846704700BFFF0540005C
:1044480070B590B004460123ADF81230006801F051
:10445800FFFE00286CD0636C032B45D1636C032BE3
:104468005DD1636C032B1DD0BDF8121021650904C2
:10447800206802F0BEF9054600285BD100212068BB
:1044880001F034FF60660421206801F02FFFA06668
:104498000821206801F02AFFE0660C21206801F05D
:1044A80025FF20670421206801F020FF000DE0644B
:1044B80005A92046FFF7E8FE00283ED1226D120428
:1044C8000023206802F0DAF8054698BB234653F823
:1044D800106B93E807008DE80700043494E80E0099
:1044E800304601F03DFE25E0206802F06DF90546F2
:1044F80000BB0021206801F0F9FE606704212068F4
:1045080001F0F4FEA0670821206801F0EFFEE067E3
:104518000C21206801F0EAFEC4F880009EE70DF146
:104528001201206802F00AFA0546002899D001E035
:104538004FF08065284610B070BD4FF08055F9E700
:1045480070B58AB004460023049305930693079335
:104558000893762309930AAB13E907008DE807004F
:1045680004AB0ECB206801F0FBFD18B101252846ED
:104578000AB070BD05461A4E0023C6F8A030206860
:1045880001F062FE0123C6F8A0300220FDF7F8FC16
:104598002046FFF7CDFA30B1012584F83450A36BDB
:1045A8000343A363E3E72046FFF74AFF30B1012541
:1045B80084F83450A36B0343A363D8E74FF4007126
:1045C800206801F0C9FF0028D1D023680549996304
:1045D800A36B0343A363012584F83450C7E700BFE6
:1045E80000003042FF054000002862D010B50446A4
:1045F8000268324B9A4204D04FF4AC713048FDF750
:10460800B7F9636813B1B3F5005F29D1A36813B193
:10461800B3F5806F2AD1E36813B1B3F5007F2BD1CE
:1046280023692BB1B3F5006F02D0B3F5805F29D1B0
:10463800636913B1B3F5804F2AD1A369FF2B2DD835
:1046480094F8343083B3032384F834302046FFF7DA
:1046580077FF80BBA0632063012384F8343010BD4A
:1046680040F259111648FDF783F9CFE74FF4AD71C1
:104678001348FDF77DF9CEE740F25B111048FDF7CE
:1046880077F9CDE74FF4AE710D48FDF771F9CFE733
:1046980040F25D110A48FDF76BF9CEE74FF4AF71B0
:1046A8000748FDF765F9CBE723772046FDF776F94C
:1046B800C9E7012070470120D1E700BF0080014011
:1046C800A4DF0208436C0B60836C4B60C36C8B6087
:1046D800036DCB60436D0B61836D4B61C36D8B6163
:1046E800036ECB610020704730B58BB004460D4691
:1046F80029B1B1F5006F02D0B1F5805F11D1032364
:1047080084F83430636C032B24D0B5F5805F0ED069
:10471800B5F5006F10D0B5B1A36B43F00063A36388
:104728001CE040F68F012648FDF722F9E7E7A36B66
:1047380043F08053A36311E02046FFF719FBA36BF6
:104748000343A3630AE02046FFF739FBA36B034347
:10475800A36303E0A36B43F08053A363A36BC3B1CC
:104768002368184A9A63012584F834504FF400717D
:10477800206801F0F1FE30B1236812499963A36BF8
:104788000343A3630125012384F8343028460BB082
:1047980030BD63680493A3680593E368069307959F
:1047A80063690893A36909930AAB13E907008DE8C5
:1047B800070004AB0ECB206801F0D2FC0025D5E73A
:1047C800A4DF0208FF05400010B582B004460023AC
:1047D800019301A9FFF71AFB10B1A36B0343A3636D
:1047E8000198C0F3432002B010BD10B5446A236895
:1047F80040F23A529A632046FFF7E6FF012384F815
:104808003430002323630538012805D9A36B53B935
:10481800204602F038F910BD206801F015FFA36B9F
:104828000343A363F2E72046FFF72CFDF3E710B537
:10483800446A236840F23A529A632046FFF7C4FF5D
:10484800012384F83430002323630538012805D96F
:10485800A36B53B9204602F016F910BD206801F089
:10486800F3FEA36B0343A363F2E72046FFF70AFDB9
:10487800F3E7000038B50446056B03685A6B12F479
:10488800004F02D015F0080F28D15A6B12F4807F20
:104898005AD04FF480729A632268D36B23F4414351
:1048A80023F03A03D3632268D36A23F00103D36267
:1048B80015F0080F26D015F0220F12D1236840F208
:1048C8003A529A63012384F834300023236315F0A5
:1048D800030F13D0204602F0E0F801E0FFF788F953
:1048E80038BD206801F0B0FE03460028E6D0A26B70
:1048F8001343A3632046FFF7C5FCDFE7204602F019
:10490800C7F8EDE715F0800FEAD015F0200F0ED1AB
:1049180015F0030FE4D12268D36A23F00803D362A9
:10492800012384F83430204602F0B2F8D8E7206832
:1049380001F08AFE03460028EAD0A26B1343A36362
:104948002046FFF79FFCE3E75A6B12F4804F02D032
:1049580015F0080F4CD15A6B12F03A0FC0D05A6BB1
:1049680012F0020F03D0A26B42F00202A2635A6B4C
:1049780012F0080F03D0A26B42F00802A2635A6B30
:1049880012F0200F03D0A26B42F02002A2635A6BF0
:1049980012F0100F03D0A26B42F01002A26340F293
:1049A8003A729A632268D36B23F44E7323F002039E
:1049B800D363206801F048FEA36B0343A36315F09B
:1049C800080F19D115F0800F8AD015F0300F1CD1BF
:1049D80015F0030F26D0236C174A5A63206CFDF795
:1049E80073FB00283FF47CAF206CFFF720FF77E7CC
:1049F8002046FFF719F973E7012384F834300023C0
:104A080023632046FFF73EFC6AE7E36B0B4A5A63D1
:104A1800E06BFDF759FB00283FF462AFE06BFFF74E
:104A2800E4FE5DE70023A363012284F834202363B6
:104A3800204602F028F853E737480008F3470008F3
:104A4800002800F0048110B504460368814A9342A7
:104A58000CD0A2F57842934208D002F580629342C6
:104A680004D04FF4AB717C48FCF782FF636813B144
:104A7800B3F5827F3DD1A3682BB1B3F5806F02D027
:104A8800B3F5004F3BD1E368B3F5006F01D0002BBD
:104A98003BD1A369B3F5007F03D013B1B3F5802FE1
:104AA80039D1E3696BB1082B0BD0102B09D0182B27
:104AB80007D0202B05D0282B03D0302B01D0382B42
:104AC8002FD1236A0BB1802B31D1636A002B34D1EB
:104AD800636A002B59D123690BB1022B33D1636967
:104AE800012B36D86368B3F5827F38D00023E361A1
:104AF8005EE040F257115848FCF73AFFBBE74FF425
:104B0800AC715548FCF734FFBDE740F259115248E3
:104B1800FCF72EFFBDE74FF4AD714F48FCF728FFB7
:104B2800BFE740F25B114C48FCF722FFC9E74FF49E
:104B3800AE714948FCF71CFFC7E740F25F114648D1
:104B4800FCF716FFC4E74FF4B1714348FCF710FFB8
:104B5800C5E740F263114048FCF70AFFC2E7E36982
:104B680033B3082B24D0102B22D0182B20D0202B85
:104B78001ED0282B1CD0302B1AD0382B18D040F23E
:104B880067113548FCF7F4FE12E0E3696BB1082BB6
:104B98000BD0102B09D0182B07D0202B05D0282B91
:104BA80003D0302B01D0382B45D10023236163611A
:104BB8000023A36294F85130002B42D0022384F8DA
:104BC80051302268136823F040031360636803F4CC
:104BD8008273A26802F404421343E26802F400629A
:104BE8001343226902F002021343626902F00102D0
:104BF8001343A26902F400721343E26902F0380217
:104C08001343226A02F080021343A26A02F400529C
:104C1800216813430B60638B226803F0040353601D
:104C28002268D36923F40063D361002060650123FF
:104C380084F8513010BD40F271110748FCF798FE16
:104C4800B3E784F850302046FCF714FFB6E701209C
:104C5800704700BF00300140F0DF020810B4036A5B
:104C6800046A24F001040462846924F0F00C4CEA1C
:104C7800021223F00A030B438261036210BC7047DF
:104C880010B4036A046A24F010040462846924F4EA
:104C9800704C4CEA023223F0A00343EA011382610C
:104CA800036210BC7047836823F070030B4343F022
:104CB80007038360704700002DE9F04104460D4664
:104CC800066A036A23F0010303624768836923F0D5
:104CD80073080B6843EA080826F002038E681E432F
:104CE800204B984203D003F50063984209D1EB6842
:104CF8000BB1082B24D126F00806EB681E4326F0DA
:104D08000406184B9C4203D003F500639C420FD164
:104D1800AB69B3F5007F00D0C3B96B69B3F5807F89
:104D280000D0CBB927F440776B693B43AF691F4389
:104D38006760C4F818806B6863632662BDE8F08119
:104D480041F6C4210848FCF713FED4E741F6D12107
:104D58000548FCF70DFEE0E741F6D2210248FCF7D2
:104D680007FEDFE7002C01403CE002082DE9F04196
:104D780004460E46056A036A23F480730362476893
:104D8800C36923F073080B6843EA080825F4007523
:104D98008B6845EA0325224B984203D003F500634C
:104DA80098420AD1F3680BB1082B27D125F4006586
:104DB800F36845EA032525F48065194B9C4203D026
:104DC80003F500639C4211D1B369B3F5007F00D0AD
:104DD800D3B97369B3F5807F00D0DBB927F44057A6
:104DE800736947EA0317B36947EA03176760C4F8AA
:104DF8001C807368E3632562BDE8F08141F65C318D
:104E08000848FCF7B5FDD1E741F669310548FCF7DC
:104E1800AFFDDEE741F66A310248FCF7A9FDDDE7A0
:104E2800002C01403CE002082DE9F04104460D4603
:104E3800066A036A23F480530362D0F80480C769C2
:104E480027F4E6470B6847EA032726F400568B68E1
:104E580046EA03360F4B984203D003F500639842A5
:104E680009D16B69B3F5807F00D063B928F4804815
:104E78006B6948EA8318C4F80480E7616B682364A7
:104E88002662BDE8F08141F6A9310348FCF770FDC0
:104E9800ECE700BF002C01403CE0020810B50446D6
:104EA80003682E4A93421FD002F5006293421BD03A
:104EB800B3F1804F18D0A2F59832934214D002F57E
:104EC8008062934210D002F5806293420CD002F5C2
:104ED8008062934208D002F58062934204D04FF476
:104EE800E8711F48FCF744FD94F83D30DBB2012B14
:104EF8002FD1022384F83D302268D36843F00103A0
:104F0800D3602368154A934218D002F50062934291
:104F180014D0B3F1804F11D0A2F5983293420DD03E
:104F280002F58062934209D002F58062934205D06F
:104F38001A6842F001021A6000200BE09A6802F039
:104F48000702062A07D01A6842F001021A600020F8
:104F580000E0012010BD0020FCE700BF002C01404C
:104F68003CE002087047704770477047704710B5BB
:104F7800044603681A6912F0020F11D0DA6812F0B9
:104F8800020F0DD06FF002021A6101230377036844
:104F98009B6913F0030F70D0FFF7E6FF0023237718
:104FA80023681A6912F0040F12D0DA6812F0040F9D
:104FB8000ED06FF004021A610223237723689B69DD
:104FC80013F4407F5FD02046FFF7CEFF00232377FE
:104FD80023681A6912F0080F12D0DA6812F0080F65
:104FE8000ED06FF008021A61042323772368DB6967
:104FF80013F0030F4ED02046FFF7B6FF00232377A8
:1050080023681A6912F0100F12D0DA6812F0100F24
:105018000ED06FF010021A61082323772368DB692A
:1050280013F4407F3DD02046FFF79EFF00232377EF
:1050380023681A6912F0010F03D0DA6812F0010F21
:1050480036D123681A6912F0800F03D0DA6812F09B
:10505800800F34D123681A6912F0400F03D0DA6840
:1050680012F0400F32D123681A6912F0200F03D0D2
:10507800DA6812F0200F30D110BDFFF774FF204618
:10508800FFF773FF8AE72046FFF76DFF2046FFF71B
:105098006CFF9BE72046FFF766FF2046FFF765FF9A
:1050A800ACE72046FFF75FFF2046FFF75EFFBDE74E
:1050B8006FF001021A61204604F004F9C1E76FF0AD
:1050C80080021A61204600F090FEC3E76FF04002AC
:1050D8001A612046FFF74AFFC5E76FF020021A6100
:1050E800204600F081FEC7E70368244A904212D0A8
:1050F80002F5006290420ED0B0F1804F0BD0A2F5BD
:105108009832904207D002F58062904203D002F5AF
:105118008062904203D123F070034A681343174A10
:10512800904212D002F5006290420ED0B0F1804F4A
:105138000BD0A2F59832904207D002F580629042D7
:1051480003D002F58062904203D123F44073CA6809
:10515800134323F080034A69134303608B68C362D7
:105168000B688362054B984203D003F500639842AD
:1051780001D10B690363012343617047002C01408F
:10518800002800F0828010B504460368404A934224
:105198001FD002F5006293421BD0B3F1804F18D0A4
:1051A800A2F59832934214D002F58062934210D04F
:1051B80002F5806293420CD002F58062934208D0D7
:1051C80002F58062934204D040F213113148FCF793
:1051D800CFFBA3683BB1102B05D0202B03D0402B6D
:1051E80001D0602B33D123692BB1B3F5807F02D076
:1051F800B3F5007F31D1E368013B4FF6FE7293426D
:1052080031D8A3690BB1802B33D194F83D30B3B3B7
:10521800022384F83D30214651F8040BFFF764FF60
:10522800012384F8463084F83E3084F83F3084F80F
:10523800403084F8413084F8423084F8433084F8B0
:10524800443084F8453084F83D30002010BD4FF4D8
:105258008A711048FCF78CFBC5E740F215110D4820
:10526800FCF786FBC7E74FF48B710A48FCF780FB15
:10527800C7E740F217110748FCF77AFBC5E784F83F
:105288003C302046FCF7EEFCC2E70120704700BF27
:10529800002C01403CE00208002800F0828010B594
:1052A80004460368404A93421FD002F500629342C5
:1052B8001BD0B3F1804F18D0A2F59832934214D086
:1052C80002F58062934210D002F5806293420CD0BE
:1052D80002F58062934208D002F58062934204D0BE
:1052E80040F22C513148FCF743FBA3683BB1102B2B
:1052F80005D0202B03D0402B01D0602B33D123695C
:105308002BB1B3F5807F02D0B3F5007F31D1E368CC
:10531800013B4FF6FE72934231D8A3690BB1802B43
:1053280033D194F83D30B3B3022384F83D3021469D
:1053380051F8040BFFF7D8FE012384F8463084F8AF
:105348003E3084F83F3084F8403084F8413084F8A7
:10535800423084F8433084F8443084F8453084F887
:105368003D30002010BD40F22D511048FCF700FBE5
:10537800C5E740F22E510D48FCF7FAFAC7E740F2AC
:105388002F510A48FCF7F4FAC7E74FF4A66107481B
:10539800FCF7EEFAC5E784F83C302046FFF7E2FD5B
:1053A800C2E70120704700BF002C01403CE0020822
:1053B8002DE9F04104460E46056A036A23F01003FE
:1053C8000362D0F80480876927F4E6470B6847EA48
:1053D800032725F020058B6845EA0315224B9842E0
:1053E80003D003F5006398420AD1F3680BB1082B88
:1053F80027D125F08005F36845EA031525F0400517
:10540800194B9C4203D003F500639C4211D1B36948
:10541800B3F5007F00D0D3B97369B3F5807F00D0AE
:10542800DBB928F44068736948EA8308B36948EA35
:105438008308C4F80480A7617368A3632562BDE884
:10544800F08141F610310948FCF792FAD1E741F6AC
:105458001E310648FCF78CFADEE741F61F31034897
:10546800FCF786FADDE700BF002C01403CE00208AB
:1054780070B504460D4616463AB1042A05D0082AE6
:1054880003D00C2A01D03C2A26D12B68602B01D0EE
:10549800702B27D1AB680BB1022B29D12B690BB12B
:1054A800042B2BD194F83C30012B00F0F880012319
:1054B80084F83C300C2E00F2ED80DFE816F0250071
:1054C800EB00EB00EB005600EB00EB00EB00880074
:1054D800EB00EB00EB00B90041F27E017148FCF7EC
:1054E80047FAD2E741F27F016E48FCF741FAD1E76B
:1054F8004FF484516B48FCF73BFACFE741F2810146
:105508006848FCF735FACDE72368674A934217D015
:1055180002F50062934213D0B3F1804F10D0A2F588
:10552800983293420CD002F58062934208D002F57B
:105538008062934204D041F28B015A48FCF718FA72
:1055480029462068FFF7B8FB2268936943F00803EF
:1055580093612268936923F0040393612268936935
:1055680029690B439361002095E023684E4A9342D2
:1055780017D002F50062934213D0B3F1804F10D0D8
:10558800A2F5983293420CD002F58062934208D07B
:1055980002F58062934204D041F29C014148FCF735
:1055A800E7F929462068FFF703FF2268936943F467
:1055B800006393612268936923F48063936122688E
:1055C8009369296943EA01239361002063E0236812
:1055D800354A934217D002F50062934213D0B3F1D3
:1055E800804F10D0A2F5983293420CD002F5806219
:1055F800934208D002F58062934204D041F2AD0193
:105608002848FCF7B5F929462068FFF7AFFB226860
:10561800D36943F00803D3612268D36923F00403F4
:10562800D3612268D36929690B43D361002032E032
:1056380023681D4A934217D002F50062934213D0A3
:10564800B3F1804F10D0A2F5983293420CD002F5F6
:105658008062934208D002F58062934204D041F2FE
:10566800BE011048FCF784F929462068FFF7DCFBE7
:105678002268D36943F40063D3612268D36923F4B1
:105688008063D3612268D369296943EA0123D3611E
:10569800002000E00120002384F83C3070BD022087
:1056A800FCE700BF3CE00208002C014010B484680D
:1056B80024F47F4C42EA03220A4342EA0C02826045
:1056C80010BC704738B590F83C30012B00F02082B0
:1056D80004460D46012380F83C30022380F83D3013
:1056E8000B68B3F5805F11D0702B0FD0B3F5005F56
:1056F8000CD0402B0AD0502B08D0602B06D02BB1F1
:10570800102B03D0202B01D0302B46D12268936870
:1057180023F47F4323F0770393602B68602B00F01A
:10572800698176D8402B00F0A4813CD9502B6ED1EA
:105738002368A24A934217D002F50062934213D01D
:10574800B3F1804F10D0A2F5983293420CD002F5F5
:105758008062934208D002F58062934204D041F2FD
:10576800FD419748FCF704F96B68B3F5004F05D085
:1057780023B1022B02D00A2B40F03081EB680F2BAB
:1057880000F23281EA6869682068FFF767FA5021F9
:105798002068FFF788FA00200BE041F2BE418848F4
:1057A800FCF7E6F8B2E7202B0DD009D9302B0AD048
:1057B8000120012384F83D30002384F83C3038BDB3
:1057C8000BB1102B21D123687C4A934217D002F5E4
:1057D8000062934213D0B3F1804F10D0A2F59832F3
:1057E80093420CD002F58062934208D002F58062A1
:1057F800934204D041F230517148FCF7B9F8296856
:105808002068FFF750FA0020D3E70120D1E70120F4
:10581800CFE7B3F5805F00F08A80B3F5005F42D12F
:105828002368664A934217D002F50062934213D068
:10583800B3F1804F10D0A2F5983293420CD002F504
:105848008062934208D002F58062934204D041F20C
:10585800E9415B48FCF78CF8AB684BB1B3F5805F66
:1058680006D0B3F5005F03D0B3F5405F40F09F80EA
:105878006B68B3F5004F05D023B1022B02D00A2B79
:1058880040F0A080EB680F2B00F2A280EB686A68FA
:10589800A9682068FFF70AFF2268936843F48043E9
:1058A8009360002085E7702B3FD12368434A9342D9
:1058B80017D002F50062934213D0B3F1804F10D095
:1058C800A2F5983293420CD002F58062934208D038
:1058D80002F58062934204D041F2D1413848FCF786
:1058E80047F8AB6843B1B3F5805F05D0B3F5005F07
:1058F80002D0B3F5405F48D16B68B3F5004F04D0D0
:105908001BB1022B01D00A2B45D1EB680F2B48D8CD
:10591800EB686A68A9682068FFF7C8FE2268936880
:1059280043F077039360002043E7012041E72368B1
:10593800224A934200F0DC8002F50062934200F0B4
:10594800D980B3F1804F00F0D780A2F59832934206
:1059580000F0D48002F58062934200F0D18002F515
:105968008062934200F0CE8002F58062934200F09C
:10597800CB8002F58062934200F0C88041F2CA41B0
:105988000F48FBF7F5FF002013E741F2D4410C481C
:10599800FBF7EEFFB0E741F2D5410948FBF7E8FF16
:1059A800B3E741F2D6410648FBF7E2FFB0E741F220
:1059B800EC410348FBF7DCFF5AE700BF002C01402D
:1059C8003CE0020841F2ED415248FBF7D1FF59E7AC
:1059D80041F2EE414F48FBF7CBFF57E74FF4A85190
:1059E8004C48FBF7C5FFC9E641F201514948FBF7AE
:1059F800BFFFC7E62368484A934217D002F5006202
:105A0800934213D0B3F1804F10D0A2F5983293424D
:105A18000CD002F58062934208D002F5806293426E
:105A280004D041F20D513B48FBF7A2FF6B68B3F578
:105A3800004F04D01BB1022B01D00A2B0DD1EB680B
:105A48000F2B10D8EA6869682068FFF719F96021F8
:105A58002068FFF728F90020ABE641F210512D48E5
:105A6800FBF786FFEBE741F211512A48FBF780FF6D
:105A7800E8E72368284A934217D002F50062934268
:105A880013D0B3F1804F10D0A2F5983293420CD0C6
:105A980002F58062934208D002F58062934204D0F6
:105AA80041F21D511B48FBF763FF6B68B3F5004FCC
:105AB80004D01BB1022B01D00A2B0DD1EB680F2BA0
:105AC80010D8EA6869682068FFF7C8F8402120689C
