:020000040800F2
:1000000000C00020CD1400082512000827120008A7
:10001000291200082B1200082D1200080000000011
:100020000000000000000000000000002F12000887
:1000300031120008000000003312000835120008D9
:1000400015150008151500081515000815150008E8
:1000500015150008151500081515000815150008D8
:1000600015150008151500081515000815150008C8
:1000700015150008151500081515000815150008B8
:1000800015150008151500081515000815150008A8
:100090001515000815150008151500081515000898
:1000A0001515000815150008151500081515000888
:1000B0001515000815150008151500081515000878
:1000C0001515000815150008151500081515000868
:1000D0001515000815150008151500081515000858
:1000E0001515000815150008151500081515000848
:1000F0001515000815150008151500081515000838
:100100001515000815150008151500081515000827
:1001100015150008151500083D12000815150008F2
:100120001515000815150008151500081515000807
:1001300000000000000000000000000000000000BF
:1001400000000000000000000000000000000000AF
:10015000000000000000000000000000000000009F
:10016000000000000000000000000000000000008F
:10017000000000000000000000000000000000007F
:10018000000000000000000000000000000000006F
:10019000000000000000000000000000000000005F
:1001A000000000000000000000000000000000004F
:1001B000000000000000000000000000000000003F
:1001C000000000000000000000000000000000002F
:1001D000000000000000000000000000000000001F
:0401E0005FF8E0F1F3
:1001E80010B5054C237833B9044B13B10448AFF369
:1001F80000800123237010BDB80900200000000012
:100208006C9F000808B5034B1BB103490348AFF3C3
:10021800008008BD00000000BC0900206C9F000899
:10022800844641EA000313F0030349D1403A23D33B
:100238000B6803604B6843608B688360CB68C3605E
:100248000B6903614B6943618B698361CB69C36146
:100258000B6A03624B6A43628B6A8362CB6AC3622E
:100268000B6B03634B6B43638B6B8363CB6BC36316
:1002780040304031403ADBD230320BD30B68036058
:100288004B6843608B688360CB68C3601030103163
:10029800103AF3D20C3205D351F8043B40F8043B32
:1002A800043AF9D2043208D0D2071CBF11F8013B36
:1002B80000F8013B01D30B8803806046704700BFFC
:1002C800082A13D38B07B1D010F00303AED0C3F1C3
:1002D8000403D21ADB071CBF11F8013B00F8013BED
:1002E800A4D331F8023B20F8023B9FE7043AD9D364
:1002F800013A11F8013B00F8013BF9D20B78037081
:100308004B7843708B7883706046704781F000416A
:1003180002E000BF83F0004330B54FEA41044FEAE2
:10032800430594EA050F08BF90EA020F1FBF54EA7D
:10033800000C55EA020C7FEA645C7FEA655C00F019
:10034800E2804FEA5454D4EB5555B8BF6D420CDDEA
:100358002C4480EA020281EA030382EA000083EA6D
:10036800010180EA020281EA0303362D88BF30BD0D
:1003780011F0004F4FEA01314FF4801C4CEA113163
:1003880002D0404261EB410113F0004F4FEA0333C2
:100398004CEA133302D0524263EB430394EA050F4D
:1003A80000F0A780A4F10104D5F1200E0DDB02FABC
:1003B8000EFC22FA05F2801841F1000103FA0EF250
:1003C800801843FA05F359410EE0A5F120050EF116
:1003D800200E012A03FA0EFC28BF4CF0020C43FA47
:1003E80005F3C01851EBE37101F0004507D54FF054
:1003F800000EDCF1000C7EEB00006EEB0101B1F5A4
:10040800801F1BD3B1F5001F0CD349085FEA3000E9
:100418004FEA3C0C04F101044FEA445212F5800FF4
:1004280080F09A80BCF1004F08BF5FEA500C50F191
:10043800000041EB045141EA050130BD5FEA4C0C74
:10044800404141EB0101013C28BFB1F5801FE9D2D1
:1004580091F0000F04BF01460020B1FA81F308BFF4
:100468002033A3F10B03B3F120020CDA0C3208DDC0
:1004780002F1140CC2F10C0201FA0CF021FA02F19B
:100488000CE002F11402D8BFC2F1200C01FA02F10B
:1004980020FA0CFCDCBF41EA0C019040E41AA2BF30
:1004A80001EB0451294330BD6FEA04041F3C1CDAF8
:1004B8000C340EDC04F11404C4F1200220FA04F018
:1004C80001FA02F340EA030021FA04F345EA0301C2
:1004D80030BDC4F10C04C4F1200220FA02F001FA84
:1004E80004F340EA0300294630BD21FA04F0294606
:1004F80030BD94F0000F83F4801306BF81F480119F
:100508000134013D4EE77FEA645C18BF7FEA655C11
:1005180029D094EA050F08BF90EA020F05D054EAE3
:10052800000C04BF1946104630BD91EA030F1EBFE8
:100538000021002030BD5FEA545C05D140004941EC
:1005480028BF41F0004130BD14F580043CBF01F5DF
:10055800801130BD01F0004545F0FE4141F47001C5
:100568004FF0000030BD7FEA645C1ABF19461046A0
:100578007FEA655C1CBF0B46024650EA013406BFA1
:1005880052EA033591EA030F41F4002130BD00BF60
:1005980090F0000F04BF0021704730B54FF480641D
:1005A80004F132044FF000054FF0000150E700BF9E
:1005B80090F0000F04BF0021704730B54FF48064FD
:1005C80004F1320410F0004548BF40424FF00001EA
:1005D8003EE700BF42004FEAE2014FEA31014FEA2D
:1005E80002701FBF12F07F4393F07F4F81F060517C
:1005F800704732F07F4208BF704793F07F4F04BFC7
:1006080041F40021704730B54FF4607401F00045A3
:1006180021F000411CE700BF50EA010208BF704703
:1006280030B54FF000050AE050EA010208BF7047F4
:1006380030B511F0004502D5404261EB41014FF45D
:10064800806404F132045FEA915C3FF4D8AE4FF065
:1006580003025FEADC0C18BF03325FEADC0C18BF48
:10066800033202EBDC02C2F1200300FA03FC20FA99
:1006780002F001FA03FE40EA0E0021FA02F11444E6
:10068800BDE600BF70B54FF0FF0C4CF4E06C1CEAFF
:1006980011541DBF1CEA135594EA0C0F95EA0C0F70
:1006A80000F0DEF82C4481EA030621EA4C5123EAE3
:1006B8004C5350EA013518BF52EA033541F4801112
:1006C80043F4801338D0A0FB02CE4FF00005E1FBC5
:1006D80002E506F00042E0FB03E54FF00006E1FB0F
:1006E80003569CF0000F18BF4EF0010EA4F1FF0452
:1006F800B6F5007F64F5407404D25FEA4E0E6D4192
:1007080046EB060642EAC62141EA55514FEAC520A2
:1007180040EA5E504FEACE2EB4F1FD0C88BFBCF51E
:10072800E06F1ED8BEF1004F08BF5FEA500E50F1CF
:10073800000041EB045170BD06F0004646EA010195
:1007480040EA020081EA0301B4EB5C04C2BFD4EBC7
:100758000C0541EA045170BD41F480114FF0000EC0
:10076800013C00F3AB8014F1360FDEBF002001F02E
:10077800004170BDC4F10004203C35DA0C341BDCA8
:1007880004F11404C4F1200500FA05F320FA04F07A
:1007980001FA05F240EA020001F0004221F00041AE
:1007A80010EBD37021FA04F642EB06015EEA430E21
:1007B80008BF20EAD37070BDC4F10C04C4F1200551
:1007C80000FA04F320FA05F001FA04F240EA020004
:1007D80001F0004110EBD37041F100015EEA430ED5
:1007E80008BF20EAD37070BDC4F1200500FA05F2F5
:1007F8004EEA020E20FA04F301FA05F243EA020374
:1008080021FA04F001F0004121FA04F220EA020082
:1008180000EBD3705EEA430E08BF20EAD37070BDC8
:1008280094F0000F0FD101F00046400041EB0101A8
:1008380011F4801F08BF013CF7D041EA060195F08A
:10084800000F18BF704703F00046520043EB030344
:1008580013F4801F08BF013DF7D043EA0603704731
:1008680094EA0C0F0CEA135518BF95EA0C0F0CD03C
:1008780050EA410618BF52EA4306D1D181EA030182
:1008880001F000414FF0000070BD50EA410606BF7C
:100898001046194652EA430619D094EA0C0F02D1C1
:1008A80050EA013613D195EA0C0F05D152EA033606
:1008B8001CBF104619460AD181EA030101F0004124
:1008C80041F0FE4141F470014FF0000070BD41F06D
:1008D800FE4141F4780170BD70B54FF0FF0C4CF447
:1008E800E06C1CEA11541DBF1CEA135594EA0C0F66
:1008F80095EA0C0F00F0A7F8A4EB050481EA030EB3
:1009080052EA03354FEA013100F088804FEA033399
:100918004FF0805545EA131343EA12634FEA022267
:1009280045EA111545EA10654FEA00260EF0004128
:100938009D4208BF964244F1FD0404F5407402D27A
:100948005B084FEA3202B61A65EB03055B084FEA0B
:1009580032024FF480104FF4002CB6EB020E75EB08
:10096800030E22BFB61A754640EA0C005B084FEA30
:100978003202B6EB020E75EB030E22BFB61A7546AD
:1009880040EA5C005B084FEA3202B6EB020E75EBF8
:10099800030E22BFB61A754640EA9C005B084FEA70
:1009A8003202B6EB020E75EB030E22BFB61A75467D
:1009B80040EADC0055EA060E18D04FEA051545EA6C
:1009C80016754FEA06164FEAC30343EA52734FEA15
:1009D800C2025FEA1C1CC0D111F4801F0BD141EA8E
:1009E80000014FF000004FF0004CB6E711F4801FF3
:1009F80004BF01430020B4F1FD0C88BFBCF5E06FD3
:100A08003FF6AFAEB5EB030C04BFB6EB020C5FEAE2
:100A1800500C50F1000041EB045170BD0EF0004E37
:100A28004EEA113114EB5C04C2BFD4EB0C0541EA69
:100A3800045170BD41F480114FF0000E013C90E666
:100A480045EA060E8DE60CEA135594EA0C0F08BF2A
:100A580095EA0C0F3FF43BAF94EA0C0F0AD150EA29
:100A680001347FF434AF95EA0C0F7FF425AF1046BC
:100A780019462CE795EA0C0F06D152EA03353FF4E4
:100A8800FDAE1046194622E750EA410618BF52EA61
:100A980043067FF4C5AE50EA41047FF40DAF52EA35
:100AA80043057FF4EBAE12E74FF0FF3C06E000BFD2
:100AB8004FF0010C02E000BF4FF0010C4DF804CDDF
:100AC8004FEA410C7FEA6C5C4FEA430C18BF7FEA9F
:100AD8006C5C1BD001B050EA410C0CBF52EA430CCD
:100AE80091EA030F02BF90EA020F0020704710F14D
:100AF800000F91EA030F58BF994208BF90422CBFDC
:100B0800D8176FEAE37040F0010070474FEA410CD4
:100B18007FEA6C5C02D150EA013C07D14FEA430CF2
:100B28007FEA6C5CD6D152EA033CD3D05DF8040B63
:100B3800704700BF8446104662468C461946634695
:100B480000E000BF01B5FFF7B7FF002848BF10F16C
:100B5800000F01BD4DF808EDFFF7F4FF0CBF0120B1
:100B680000205DF808FB00BF4DF808EDFFF7EAFF2D
:100B780034BF012000205DF808FB00BF4DF808EDE8
:100B8800FFF7E0FF94BF012000205DF808FB00BFDD
:100B98004DF808EDFFF7CEFF94BF012000205DF867
:100BA80008FB00BF4DF808EDFFF7C4FF34BF012074
:100BB80000205DF808FB00BF4FEA410C7FEA6C5C3F
:100BC80002D150EA013C0AD14FEA430C7FEA6C5C3F
:100BD80002D152EA033C02D14FF0000070474FF0B7
:100BE800010070474FEA410212F5001215D211D5E3
:100BF8006FF47873B3EB625212D94FEAC12343F012
:100C0800004343EA505311F0004F23FA02F018BF93
:100C1800404270474FF00000704750EA013005D15C
:100C280011F0004008BF6FF0004070474FF000001F
:100C3800704700BF53B94AB9002908BF00281CBF34
:100C48004FF0FF314FF0FF3000F076B9ADF1080CEE
:100C58006DE904CE00F006F8DDF804E0DDE90223D2
:100C680004B070472DE9F047089E0D4604468846B3
:100C7800002B4DD18A42944668D9B2FA82F252B119
:100C880001FA02F3C2F1200120FA01F10CFA02FC88
:100C980041EA030894404FEA1C41B8FBF1F71FFAF8
:100CA8008CFE01FB178807FB0EF0230C43EA084370
:100CB80098420AD91CEB030307F1FF3580F01E8127
:100CC800984240F21B81023F63441B1AB3FBF1F0C8
:100CD80001FB103300FB0EFEA4B244EA0344A64510
:100CE8000AD91CEB040400F1FF3380F00981A64502
:100CF80040F20681644402380021A4EB0E0440EA65
:100D080007401EB10023D440C6E90043BDE8F08780
:100D18008B4208D9002E00F0EE800021C6E90005BC
:100D28000846BDE8F087B3FA83F100294AD1AB42FF
:100D380002D3824200F2FC80841A65EB030301208F
:100D48009846002EE2D0C6E90048DFE702B9FFDE88
:100D5800B2FA82F2002A40F09180A1EB0C00012146
:100D68004FEA1C471FFA8CFEB0FBF7F307FB130092
:100D7800250C45EA00450EFB03F0A84208D91CEBF8
:100D8800050503F1FF3802D2A84200F2CE8043469F
:100D98002D1AB5FBF7F007FB10550EFB00FEA4B2A9
:100DA80044EA0544A64508D91CEB040400F1FF35C4
:100DB80002D2A64500F2B6802846A4EB0E0440EA0B
:100DC80003409EE7C1F120078B4022FA07FC4CEA5A
:100DD800030C25FA07FA4FEA1C49BAFBF9F820FA7E
:100DE80007F309FB18AA8D401FFA8CFE1D4300FA71
:100DF80001F308FB0EF02C0C44EA0A44A04202FA64
:100E080001F20BD91CEB040408F1FF3A80F088804A
:100E1800A04240F28580A8F102086444241AB4FB79
:100E2800F9F009FB104400FB0EFEADB245EA04449C
:100E3800A64508D91CEB040400F1FF356CD2A64581
:100E48006AD90238644440EA0840A0FB0295A4EB42
:100E58000E04AC42C846AE4656D353D0002E69D0D5
:100E6800B3EB080264EB0E0422FA01F304FA07F765
:100E78001F43CC40C6E90074002147E70CFA02FC86
:100E8800C2F1200125FA01F34FEA1C4720FA01F1CB
:100E980095400D43B3FBF7F107FB11331FFA8CFEA6
:100EA800280C40EA034001FB0EF3834204FA02F4E3
:100EB80008D91CEB000001F1FF382FD283422DD94D
:100EC80002396044C01AB0FBF7F307FB1300ADB258
:100ED80045EA004503FB0EF0A84208D91CEB0505BE
:100EE80003F1FF3816D2A84214D9023B6544281AE8
:100EF80043EA014138E73146304607E72F46E4E642
:100F08001846F9E64B45A9D2B9EB020865EB0C0E79
:100F18000138A3E74346EAE7284694E74146D1E784
:100F2800D0467BE76444023847E7023B65442FE735
:100F3800084606E73146E9E6704700BF2DE9F04F5D
:100F48008BB000240694079408940994584B9A6926
:100F580042F040029A619A6902F040020192019AB5
:100F68009A6942F010029A619A6902F0100202929C
:100F7800029A9A6942F004029A619A6902F004029C
:100F88000392039A9A6942F008029A619A6902F0F8
:100F980008020492049A9A6942F020029A619B69B5
:100FA80003F020030593059BDFF808B122462021B2
:100FB800584600F073FDDFF8008122464FF40171B6
:100FC800404600F06BFDDFF8F4A022468021504631
:100FD80000F064FDDFF8E89022464FF428514846B7
:100FE80000F05CFD4FF67F7306930327079706A969
:100FF800504600F07BFB42F2DF030693079706A9F1
:10100800584600F073FB4FF65F73069307972D4D14
:1010180006A9284600F06AFBA023069307940894C3
:1010280006A9284600F062FB2023069301250795B0
:1010380008950226099606A9584600F057FB41F282
:101048003B530693079706A9404600F04FFB04233D
:10105800069307950895099606A9404600F046FBB1
:101068008023069307950895099606A9504600F02F
:101078003DFB4DF2FB530693079706A9484600F03F
:1010880035FB4FF42853069307950894099606A94B
:10109800484600F02BFB4FF400730693079508941D
:1010A800099606A9404600F021FB0BB0BDE8F08F79
:1010B8000010024000100140000C014000180140DF
:1010C800001401400008014072B6FEE700B591B077
:1010D8002822002106A803F011FA002301930293A5
:1010E800039304930593012206924FF480330793E8
:1010F8000A9202220D920E934FF4E0130F9306A862
:1011080000F014FD80B90F230193022102910023FE
:1011180003934FF480620492059301A800F0D4FF72
:1011280020B911B05DF804FBFFF7CEFFFFF7CCFF45
:101138007047000008B50D480D4B03604FF48273EB
:10114800436000238360C360036143614FF400720E
:101158008261C3610362436283620A23C36201F04E
:10116800CDF800B908BDFFF7AFFFFBE7D4090020B1
:101178000038004010B586B000230293039304930F
:1011880005930268174B9A4201D006B010BD03F5CB
:10119800EC33DA6942F48042DA61DA6902F48042B7
:1011A8000092009A9A6942F008029A619B6903F0DA
:1011B80008030193019B4FF42043029302230393F6
:1011C80003230593084C02A9204600F08FFA4FF438
:1011D8008043029300230393049302A9204600F05E
:1011E80085FAD2E700380040000C014082B00A4B73
:1011F8009A6942F001029A619A6902F0010200922A
:10120800009ADA6942F08052DA61DB6903F08053B0
:101218000193019B02B0704700100240FEE7FEE711
:10122800FEE7FEE7FEE770477047704708B500F035
:10123800A7F908BD08B5024801F0F7FA08BD00BFD4
:10124800780A00200120704708B502F081FE1623B5
:1012580003604FF0FF3008BD08B54FF0FF31FFF7CE
:10126800F3FFFEE770B50C461646002506E0AFF31F
:101278000080214601F8010B01350C46B542F6DB2A
:10128800304670BD70B50C461646002504E014F8CB
:10129800010BAFF300800135B542F8DB304670BD75
:1012A8004FF0FF3070474FF400534B6000207047F9
:1012B800012070470020704710B503460C4A0D49BD
:1012C8000D48006840B10C4800680344521A934224
:1012D80006D8094A136010BD0748084C0460F2E7B5
:1012E80002F036FE0C2303604FF0FF30F3E700BF37
:1012F80000C00020001000002C0A0020280B00204D
:101308007047000000B583B00023009301930F4895
:101318000F4A026040F2CF224260836040F2E73217
:10132800C260836101F08AFB50B9002300930193E6
:101338006946064802F032F928B903B05DF804FBA3
:10134800FFF7C2FEF1E7FFF7BFFEF6E7780A0020D5
:101358000010004000B583B00368B3F1804F05D09A
:10136800124A93420ED003B05DF804FB03F5043330
:10137800DA6942F00102DA61DB6903F001030093E4
:10138800009BF0E70A4BDA6942F01002DA61DB6988
:1013980003F010030193019B00221146362000F050
:1013A80033F9362000F076F9DDE700BF0010004081
:1013B8000010024000B587B0002302930393049302
:1013C80005930368B3F1804F02D007B05DF804FBC2
:1013D80003F504339A6942F008029A619B6903F0A5
:1013E80008030193019B4FF40063029302230393C4
:1013F800059302A9064800F079F9064A536823F4D0
:10140800407343F0E06343F400735360DDE700BFCB
:10141800000C01400000014000B58FB000230A9382
:101428000B930C930D9308930993019302930393E1
:10143800049305930693079321484FF08042026076
:1014480040F2CF22426083606422C26003618361FC
:1014580001F0F4FA28BB4FF480530A930AA91848FC
:1014680001F08EFD00BB164801F074FBF8B90023AB
:101478000893099308A9124802F090F8D0B960239C
:10148800019300230293039305930C2201A90C48AE
:1014980001F04CFC88B90A48FFF78CFF0FB05DF8E3
:1014A80004FBFFF711FED6E7FFF70EFEDBE7FFF7B9
:1014B8000BFEDCE7FFF708FEE1E7FFF705FEEAE7CA
:1014C800300A0020FFF71CFF0B480C490C4A002388
:1014D80002E0D458C4500433C4188C42F9D3094AE2
:1014E800094C002301E013600432A242FBD302F04E
:1014F80035FD02F04FFC704700000020B8090020BD
:101508001CD50008B8090020240B0020FEE70000C5
:1015180010B504460E4B18784FF47A73B3FBF0F30A
:101528000C4A1068B0FBF3F000F0CCF868B90F2C47
:1015380001D901200AE0002221464FF0FF3000F0D7
:1015480063F8054B1C60002000E0012010BD00BFBF
:1015580004000020000000200800002008B5074A09
:10156800136843F010031360032000F02FF80F20D6
:10157800FFF7CEFFFFF73AFE002008BD002002402B
:10158800034A1168034B1B780B441360704700BF74
:10159800C00A002004000020014B1868704700BFF3
:1015A800C00A002038B50446FFF7F6FF0546B4F137
:1015B800FF3F02D0044B1B781C44FFF7EDFF401B94
:1015C800A042FAD338BD00BF0400002010B504467D
:1015D800C31E042B0FD80A4AD36823F4E0631B0404
:1015E8001B0C240204F4E064234343F0BF6343F478
:1015F8000033D36010BD91210248FFF799FDEAE757
:1016080000ED00E0989F000870B505460C461646A8
:101618000F2A25D80F2C28D81B4BDB68C3F30223CD
:10162800C3F10701042928BF04211A1D062A21D95C
:10163800033B4FF0FF3202FA01F124EA01049C4017
:1016480002FA03F326EA03063443002D14DB2401CF
:10165800E4B205F1604505F5614585F8004370BDC4
:10166800A9210A48FFF764FDD4E7AA210748FFF734
:101678005FFDD1E70023DCE705F00F052401E4B2A4
:10168800034B5C55EBE700BF00ED00E0989F0008B6
:1016980014ED00E010B5041E0ADB002C07DB04F093
:1016A8001F02640901239340044A42F8243010BD04
:1016B800BD210348FFF73CFDEFE700BF00E100E074
:1016C800989F00080138B0F1807F0BD24FF0E023DB
:1016D8005861054AF02182F82310002098610722FA
:1016E8001A6170470120704700ED00E02DE9F043D2
:1016F80083B007460E46884B98421BD003F580639B
:10170800984217D003F58063984213D003F580639D
:1017180098420FD003F5806398420BD003F580639D
:10172800984207D003F58063984203D0BD217B48D7
:10173800FFF7FEFC33689AB212B11B0C1B041BB1F5
:10174800BE217648FFF7F4FC7368012B1ED9112BD4
:101758001CD0022B1AD0122B18D0714A934215D0E4
:1017680002F58012934211D002F5801293420DD0F7
:10177800A2F5F812934209D002F58012934205D0DF
:1017880002F58012934201D0032B03D14FF00009D8
:101798004D46FDE0BF216148FFF7CAFCF6E7614A04
:1017A800934210D007D9604A93420CD002F5803298
:1017B800934208D01AE0A2F58012934203D002F5B2
:1017C800702293420ED1B368022B00F28D80B36869
:1017D800002B00F09580012B00F08B807C614FF08E
:1017E800080903E0A2F580129342ECD0B8F1FF0F8C
:1017F80000F289803846B8F1FF0F00F28680AA000F
:1018080003680F21914023EA010309FA02F2134306
:101818000360736813F0805F00F0B980434B9A69E6
:1018280042F001029A619B6903F001030193019B55
:10183800AA08911C3E4B53F8210005F003039900B8
:101848000F238B4020EA0300334B9F4272D003F5ED
:1018580080639F4200F0F68003F580639F4200F0AA
:10186800F38003F580639F4200F0F08003F5806306
:101878009F4200F0ED8003F580639F4249D0062324
:1018880059E0F368013B022B02D8D6F80C90ADE77B
:10189800D5212248FFF74CFCF7E7F368013B022B00
:1018A80003D8F36803F10409A0E7DC211B48FFF71C
:1018B8003FFCF6E7F368013B022B03D8F36803F11A
:1018C800080993E7E3211548FFF732FCF6E7F368C8
:1018D800013B022B03D8F36803F10C0986E7EA21E0
:1018E8000E48FFF725FCF6E7F7210C48FFF720FC28
:1018F8006DE73C614FF0080978E74FF0000975E79C
:101908004FF0040972E7381D75E7A5F10802920047
:1019180076E705230FE000BF00080140E89F0008B4
:1019280000001110000022100000311000100240C9
:101938000000014000238B4003430232534941F821
:101948002230736813F4801F00F08480504A936833
:1019580043EA08039360736813F4001F00F0808063
:101968004B4AD36843EA0803D360736813F4003F13
:101978007CD0474A536843EA08035360736813F4FA
:10198800803F79D0424A136843EA0803136001355F
:10199800336833FA05F275D00124AC4003EA040831
:1019A80034EA0303F3D13B4B9F421BD003F580631A
:1019B8009F4217D003F580639F4213D003F58063DD
:1019C8009F420FD003F580639F420BD003F58063DD
:1019D8009F4207D003F580639F4203D0CD212E4854
:1019E800FFF7A6FB7368122B3FF6D9AE122B3FF612
:1019F800FDAE01A252F823F0CF1700088B1800089B
:101A0800BD18000803190008F5170008F5170008A5
:101A1800F5170008F5170008F5170008F51700086E
:101A2800F5170008F5170008F5170008F51700085E
:101A3800F5170008F5170008F5170008A31800089F
:101A4800D7180008012376E7022374E7032372E717
:101A5800042370E70E4A936823EA080393607AE741
:101A68000B4AD36823EA0803D3607EE7084A536821
:101A780023EA0803536081E7054A136823EA080349
:101A8800136084E703B0BDE8F08300BF00000140A5
:101A98000004014000080140E89F000870B50546B1
:101AA80014460E4621B1012C08D86CB12E6170BDC8
:101AB8004FF4EA710648FFF73BFBF4E740F2D51113
:101AC8000348FFF735FBF0E736042E61EFE700BF68
:101AD800E89F000838B505460C4641B1EB6804EAB2
:101AE800030224EA030444EA02442C6138BD4FF49B
:101AF800F6710248FFF71CFBF0E700BFE89F0008FB
:101B080082B0084B1B68084AA2FB03235B0A00FB50
:101B180003F3019300BF019B5A1E0192002BF9D1D8
:101B280002B0704700000020D34D6210002800F07A
:101B3800898270B582B00446036813B113F00F0FA1
:101B48002AD0236813F0010F40D063682BB1B3F596
:101B5800803F02D0B3F5A02F24D19C4B5B6803F0E3
:101B68000C03042B29D0994B5B6803F00C03082B5A
:101B78001ED06368B3F5803F55D0002B69D103F1BF
:101B8800804303F504331A6822F480321A601A6815
:101B980022F480221A604BE040F265118C48FFF76E
:101BA800C7FACEE740F26B118948FFF7C1FAD4E7CC
:101BB800864B5B6813F4803FDBD0844B1B6813F4BF
:101BC800003F03D06368002B00F03E82236813F0C7
:101BD800020F00F089802369012B63D863691F2BEA
:101BE80066D87A4B5B6813F00C0F6CD0774B5B6848
:101BF80003F00C03082B61D02369002B00F09A80B6
:101C0800744B01221A60FFF7C7FC05466F4B1B682F
:101C180013F0020F40F08580FFF7BEFC401B02283E
:101C2800F4D9032015E2694A136843F4803313603A
:101C3800636843B3FFF7B0FC0546644B1B6813F4B5
:101C4800003FC3D1FFF7A8FC401B6428F5D9032047
:101C5800FFE1B3F5A02F09D05C4B1A6822F480325B
:101C68001A601A6822F480221A60E1E703F18043BF
:101C7800A3F53C331A6842F480221A601A6842F4C9
:101C880080321A60D4E7FFF787FC05464F4B1B6884
:101C980013F4003F9AD0FFF77FFC401B6428F5D966
:101CA8000320D6E140F29F114948FFF741FA95E732
:101CB8004FF4D0714648FFF73BFA92E7434B5B6815
:101CC80013F4803F98D1414B1B6813F0020F03D0E7
:101CD8002369012B40F0BA813C4A136823F0F803CA
:101CE800616943EAC1031360236813F0080F3CD00D
:101CF800A369012B30D8A369002B6FD0354B012283
:101D0800C3F88024FFF748FC0546304B5B6A13F0A4
:101D1800020F27D1FFF740FC401B0228F5D903200A
:101D280097E12A4A136823F0F803616943EAC1037B
:101D38001360D9E7274B00221A60FFF72DFC0546F0
:101D4800224B1B6813F0020FCED0FFF725FC401B77
:101D58000228F5D903207CE14FF4F0711C48FFF705
:101D6800E7F9C8E70120FFF7CBFE236813F0040F5B
:101D780000F0A480E368012B01D9052B41D1134B56
:101D8800DB6913F0805F42D1104BDA6942F0805270
:101D9800DA61DB6903F080530193019B01250E4B47
:101DA8001B6813F4807F34D0E368012B45D0002BE7
:101DB8005BD103F1804303F504331A6A22F0010270
:101DC8001A621A6A22F004021A623BE0001002400A
:101DD80034A000080000424200700040A14B0022DD
:101DE800C3F88024FFF7D8FB05469F4B5B6A13F0C6
:101DF800020FBAD0FFF7D0FB401B0228F5D9032009
:101E080027E140F20F219948FFF792F9B7E700253B
:101E1800C5E7974A136843F480731360FFF7BCFB68
:101E28000646934B1B6813F4807FBDD1FFF7B4FBC4
:101E3800801B6428F5D903200BE18B4A136A43F011
:101E480001031362E36833B3FFF7A6FB0646864B2C
:101E58001B6A13F0020F2FD1FFF79EFB801B41F284
:101E680088339842F3D90320F3E0052B09D07E4B41
:101E78001A6A22F001021A621A6A22F004021A622D
:101E8800E0E7794B1A6A42F004021A621A6A42F0D1
:101E980001021A62D6E7FFF77FFB0646724B1B6A00
:101EA80013F0020F08D0FFF777FB801B41F288334D
:101EB8009842F3D90320CCE0002D53D1E369022BDB
:101EC80056D8E369002B00F0C380674A526802F0D5
:101ED8000C02082A00F0A680022B40F08F80236AAB
:101EE80013B1B3F5803F49D1636A4BB3B3F5802F83
:101EF80026D0B3F5002F23D0B3F5402F20D0B3F56B
:101F0800801F1DD0B3F5A01F1AD0B3F5C01F17D07E
:101F1800B3F5E01F14D0B3F5001F11D0B3F5101FAF
:101F28000ED0B3F5201F0BD0B3F5301F08D0B3F592
:101F3800401F05D0B3F5501F02D0B3F5601F23D161
:101F4800484B00221A66FFF727FB0546464B1B68DD
:101F580013F0007F1ED0FFF71FFB401B0228F5D9A6
:101F6800032076E0404AD36923F08053D361A5E784
:101F780040F2AD213D48FFF7DBF8A2E740F2B62179
:101F88003A48FFF7D5F8AFE740F2B7213748FFF7EF
:101F9800CFF8D5E7236AB3F5803F1AD032494B68AA
:101FA80023F47413226A606A024313434B602D4B77
:101FB80001221A66FFF7F0FA04462B4B1B6813F050
:101FC800007F19D1FFF7E8FA001B0228F5D9032092
:101FD8003FE0A36813B1B3F5003F07D1224A536825
:101FE80023F40033A1680B435360D7E740F2CD21B7
:101FF8001E48FFF79DF8F1E700202AE0194B002260
:102008001A66FFF7C9FA0446174B1B6813F0007FDE
:1020180006D0FFF7C1FA001B0228F5D9032018E003
:10202800002016E0012B16D00F4B5B6803F48031BB
:10203800226A914211D103F47013626A93420ED15D
:10204800002006E001207047012002E0012000E0A6
:10205800002002B070BD0120FBE70120F9E7012054
:10206800F7E700BF000042420010024034A0000819
:10207800007000400F4B5B6803F00C02082A01D087
:102088000D487047C3F383420C49885C13F4803FC2
:102098000BD0084B5B68C3F34043094AD35C064A3C
:1020A80002FB00F0B0FBF3F07047064B03FB00F0B7
:1020B800704700BF0010024000127A0080A000089C
:1020C80090A0000800093D00002800F0FC8070B5D1
:1020D8000D460446036813F00F0F6DD0022D71D81A
:1020E8007D4B1B6803F00703AB420BD27A4A136897
:1020F80023F007032B431360136803F00703AB4275
:1021080040F0E380236813F0020F29D013F0040F86
:1021180004D0724A536843F4E0635360236813F0B1
:10212800080F04D06D4A536843F460535360A368A2
:102138007BB1802B0DD0902B0BD0A02B09D0B02BCE
:1021480007D0C02B05D0D02B03D0E02B01D0F02B2B
:102158003ED1624A536823F0F003A1680B435360F1
:10216800236813F0010F4DD06368022B36D86368DB
:10217800012B39D0022B3ED0584A126812F0020FB8
:1021880000F0A58055494A6822F0030213434B60CA
:10219800FFF702FA0646514B5B6803F00C036268CE
:1021A800B3EB820F2ED0FFF7F7F9801B41F288338B
:1021B8009842F0D9032079E040F236314848FEF7DA
:1021C800B7FF8BE740F237314548FEF7B1FF87E7A5
:1021D80040F25D314248FEF7ABFFBAE74FF4597160
:1021E8003F48FEF7A5FFC2E73C4A126812F4003FD9
:1021F800C8D101205AE0394A126812F0007FC1D1D3
:10220800012053E0344B1B6803F00703AB420AD9A3
:10221800314A136823F007032B431360136803F054
:102228000703AB4255D1236813F0040F14D0E368B9
:102238005BB1B3F5806F08D0B3F5A06F05D0B3F5E7
:10224800C06F02D0B3F5E06F31D1244A536823F44C
:10225800E063E1680B435360236813F0080F15D05F
:1022680023695BB1B3F5806F08D0B3F5A06F05D0D3
:10227800B3F5C06F02D0B3F5E06F1ED1174A5368AB
:1022880023F46053216943EAC1035360FFF7F2FE68
:10229800124B5B68C3F30313124AD35CD840124B4A
:1022A8001860124B1868FFF733F9002070BD40F230
:1022B800A2310B48FEF73CFFC7E740F2A9310848B6
:1022C800FEF736FFDAE7012070470120EEE701202C
:1022D800ECE70120EAE700BF0020024000100240BE
:1022E80034A00008889F0008000000200800002093
:1022F800014B1868704700BF00000020002800F05C
:10230800048110B504460368814A93420CD0A2F5B3
:102318007842934208D002F58062934204D04FF489
:10232800AB717C48FEF704FF636813B1B3F5827F95
:102338003DD1A3682BB1B3F5806F02D0B3F5004F40
:102348003BD1E368B3F5006F01D0002B3BD1A36903
:10235800B3F5007F03D013B1B3F5802F39D1E3690A
:102368006BB1082B0BD0102B09D0182B07D0202BC2
:1023780005D0282B03D0302B01D0382B2FD1236A3E
:102388000BB1802B31D1636A002B34D1636A002BE7
:1023980059D123690BB1022B33D16369012B36D88C
:1023A8006368B3F5827F38D00023E3615EE040F2D2
:1023B80057115848FEF7BCFEBBE74FF4AC715548BF
:1023C800FEF7B6FEBDE740F259115248FEF7B0FEDF
:1023D800BDE74FF4AD714F48FEF7AAFEBFE740F2E4
:1023E8005B114C48FEF7A4FEC9E74FF4AE714948AB
:1023F800FEF79EFEC7E740F25F114648FEF798FEDB
:10240800C4E74FF4B1714348FEF792FEC5E740F2C6
:1024180063114048FEF78CFEC2E7E36933B3082B2B
:1024280024D0102B22D0182B20D0202B1ED0282BC4
:102438001CD0302B1AD0382B18D040F267113548F1
:10244800FEF776FE12E0E3696BB1082B0BD0102B78
:1024580009D0182B07D0202B05D0282B03D0302BE0
:1024680001D0382B45D10023236163610023A36287
:1024780094F85130002B42D0022384F8513022685E
:10248800136823F040031360636803F48273A2683F
:1024980002F404421343E26802F40062134322691F
:1024A80002F002021343626902F001021343A269B7
:1024B80002F400721343E26902F038021343226AFD
:1024C80002F080021343A26A02F400522168134307
:1024D8000B60638B226803F0040353602268D3699E
:1024E80023F40063D36100206065012384F8513030
:1024F80010BD40F271110748FEF71AFEB3E784F8E1
:1025080050302046FEF736FEB6E70120704700BF80
:102518000030014094A0000810B4036A046A24F053
:1025280001040462846924F0F00C4CEA021223F0DE
:102538000A030B438261036210BC704710B4036A3C
:10254800046A24F010040462846924F4704C4CEA90
:10255800023223F0A00343EA01138261036210BC34
:102568007047836823F070030B4343F007038360CD
:10257800704700002DE9F04104460D46066A036ADB
:1025880023F0010303624768836923F073080B682B
:1025980043EA080826F002038E681E43204B98423F
:1025A80003D003F50063984209D1EB680BB1082BFF
:1025B80024D126F00806EB681E4326F00406184BC3
:1025C8009C4203D003F500639C420FD1AB69B3F57D
:1025D800007F00D0C3B96B69B3F5807F00D0CBB959
:1025E80027F440776B693B43AF691F436760C4F8C2
:1025F80018806B6863632662BDE8F08141F6C421E8
:102608000848FEF795FDD4E741F6D1210548FEF7C5
:102618008FFDE0E741F6D2210248FEF789FDDFE7AA
:10262800002C0140E0A000082DE9F04104460E46C8
:10263800056A036A23F4807303624768C36923F059
:1026480073080B6843EA080825F400758B6845EAA7
:102658000325224B984203D003F5006398420AD120
:10266800F3680BB1082B27D125F40065F36845EA18
:10267800032525F48065194B9C4203D003F50063BC
:102688009C4211D1B369B3F5007F00D0D3B9736907
:10269800B3F5807F00D0DBB927F44057736947EA68
:1026A8000317B36947EA03176760C4F81C807368A7
:1026B800E3632562BDE8F08141F65C310848FEF726
:1026C80037FDD1E741F669310548FEF731FDDEE710
:1026D80041F66A310248FEF72BFDDDE7002C014088
:1026E800E0A000082DE9F04104460D46066A036A99
:1026F80023F480530362D0F80480C76927F4E647BF
:102708000B6847EA032726F400568B6846EA033627
:102718000F4B984203D003F50063984209D16B69C7
:10272800B3F5807F00D063B928F480486B6948EA24
:102738008318C4F80480E7616B6823642662BDE8E7
:10274800F08141F6A9310348FEF7F2FCECE700BF3F
:10275800002C0140E0A0000810B5044603682E4A8A
:1027680093421FD002F5006293421BD0B3F1804F11
:1027780018D0A2F59832934214D002F580629342A1
:1027880010D002F5806293420CD002F58062934229
:1027980008D002F58062934204D04FF4E8711F48D4
:1027A800FEF7C6FC94F83D30DBB2012B2FD1022393
:1027B80084F83D302268D36843F00103D36023686E
:1027C800154A934218D002F50062934214D0B3F12F
:1027D800804F11D0A2F5983293420DD002F5806255
:1027E800934209D002F58062934205D01A6842F0FC
:1027F80001021A6000200BE09A6802F00702062A1C
:1028080007D01A6842F001021A60002000E0012097
:1028180010BD0020FCE700BF002C0140E0A000082C
:102828007047704770477047704710B50446036893
:102838001A6912F0020F11D0DA6812F0020F0DD0E7
:102848006FF002021A610123037703689B6913F092
:10285800030F70D0FFF7E6FF0023237723681A6978
:1028680012F0040F12D0DA6812F0040F0ED06FF0D5
:1028780004021A610223237723689B6913F4407FBB
:102888005FD02046FFF7CEFF0023237723681A691D
:1028980012F0080F12D0DA6812F0080F0ED06FF09D
:1028A80008021A61042323772368DB6913F0030FF6
:1028B8004ED02046FFF7B6FF0023237723681A6916
:1028C80012F0100F12D0DA6812F0100F0ED06FF05D
:1028D80010021A61082323772368DB6913F4407F09
:1028E8003DD02046FFF79EFF0023237723681A690F
:1028F80012F0010F03D0DA6812F0010F36D1236805
:102908001A6912F0800F03D0DA6812F0800F34D100
:1029180023681A6912F0400F03D0DA6812F0400FEA
:1029280032D123681A6912F0200F03D0DA6812F046
:10293800200F30D110BDFFF774FF2046FFF773FF5B
:102948008AE72046FFF76DFF2046FFF76CFF9BE7FD
:102958002046FFF766FF2046FFF765FFACE72046F5
:10296800FFF75FFF2046FFF75EFFBDE76FF001024C
:102978001A61204600F098FEC1E76FF080021A61E4
:10298800204600F090FEC3E76FF040021A6120462F
:10299800FFF74AFFC5E76FF020021A61204600F0F2
:1029A80081FEC7E70368244A904212D002F500620C
:1029B80090420ED0B0F1804F0BD0A2F598329042E1
:1029C80007D002F58062904203D002F580629042FF
:1029D80003D123F070034A681343174A904212D078
:1029E80002F5006290420ED0B0F1804F0BD0A2F5F4
:1029F8009832904207D002F58062904203D002F5E7
:102A08008062904203D123F44073CA68134323F0D1
:102A180080034A69134303608B68C3620B6883624F
:102A2800054B984203D003F50063984201D10B6926
:102A38000363012343617047002C0140002800F024
:102A4800828010B504460368404A93421FD002F5BD
:102A5800006293421BD0B3F1804F18D0A2F5983290
:102A6800934214D002F58062934210D002F580623E
:102A780093420CD002F58062934208D002F580623E
:102A8800934204D040F213113148FEF751FBA3687A
:102A98003BB1102B05D0202B03D0402B01D0602B4D
:102AA80033D123692BB1B3F5807F02D0B3F5007F12
:102AB80031D1E368013B4FF6FE72934231D8A369E6
:102AC8000BB1802B33D194F83D30B3B3022384F893
:102AD8003D30214651F8040BFFF764FF012384F8C9
:102AE800463084F83E3084F83F3084F8403084F82B
:102AF800413084F8423084F8433084F8443084F814
:102B0800453084F83D30002010BD4FF48A711048DC
:102B1800FEF70EFBC5E740F215110D48FEF708FB5E
:102B2800C7E74FF48B710A48FEF702FBC7E740F28C
:102B380017110748FEF7FCFAC5E784F83C30204631
:102B4800FEF708FCC2E70120704700BF002C0140D7
:102B5800E0A00008002800F0828010B50446036851
:102B6800404A93421FD002F5006293421BD0B3F152
:102B7800804F18D0A2F59832934214D002F58062A3
:102B8800934210D002F5806293420CD002F5806225
:102B9800934208D002F58062934204D040F22C514F
:102BA8003148FEF7C5FAA3683BB1102B05D0202B9E
:102BB80003D0402B01D0602B33D123692BB1B3F55F
:102BC800807F02D0B3F5007F31D1E368013B4FF637
:102BD800FE72934231D8A3690BB1802B33D194F89C
:102BE8003D30B3B3022384F83D30214651F8040B3D
:102BF800FFF7D8FE012384F8463084F83E3084F885
:102C08003F3084F8403084F8413084F8423084F80A
:102C1800433084F8443084F8453084F83D3000204F
:102C280010BD40F22D511048FEF782FAC5E740F278
:102C38002E510D48FEF77CFAC7E740F22F510A489B
:102C4800FEF776FAC7E74FF4A6610748FEF770FA71
:102C5800C5E784F83C302046FFF7E2FDC2E70120D3
:102C6800704700BF002C0140E0A000082DE9F041AA
:102C780004460E46056A036A23F010030362D0F87F
:102C88000480876927F4E6470B6847EA032725F09D
:102C980020058B6845EA0315224B984203D003F5BB
:102CA800006398420AD1F3680BB1082B27D125F0AD
:102CB8008005F36845EA031525F04005194B9C4249
:102CC80003D003F500639C4211D1B369B3F5007FCB
:102CD80000D0D3B97369B3F5807F00D0DBB928F48D
:102CE8004068736948EA8308B36948EA8308C4F806
:102CF8000480A7617368A3632562BDE8F08141F68B
:102D080010310948FEF714FAD1E741F61E3106489A
:102D1800FEF70EFADEE741F61F310348FEF708FA20
:102D2800DDE700BF002C0140E0A0000870B50446B4
:102D38000D4616463AB1042A05D0082A03D00C2AB3
:102D480001D03C2A26D12B68602B01D0702B27D1CB
:102D5800AB680BB1022B29D12B690BB1042B2BD1FA
:102D680094F83C30012B00F0F880012384F83C30C3
:102D78000C2E00F2ED80DFE816F02500EB00EB00EA
:102D8800EB005600EB00EB00EB008800EB00EB00DB
:102D9800EB00B90041F27E017148FEF7C9F9D2E7AC
:102DA80041F27F016E48FEF7C3F9D1E74FF4845131
:102DB8006B48FEF7BDF9CFE741F281016848FEF79D
:102DC800B7F9CDE72368674A934217D002F5006246
:102DD800934213D0B3F1804F10D0A2F598329342AA
:102DE8000CD002F58062934208D002F580629342CB
:102DF80004D041F28B015A48FEF79AF92946206817
:102E0800FFF7B8FB2268936943F0080393612268CF
:102E1800936923F0040393612268936929690B433A
:102E28009361002095E023684E4A934217D002F53B
:102E38000062934213D0B3F1804F10D0A2F59832BC
:102E480093420CD002F58062934208D002F580626A
:102E5800934204D041F29C014148FEF769F92946A2
:102E68002068FFF703FF2268936943F400639361C6
:102E78002268936923F480639361226893692969BE
:102E880043EA01239361002063E02368354A9342B3
:102E980017D002F50062934213D0B3F1804F10D0DF
:102EA800A2F5983293420CD002F58062934208D082
:102EB80002F58062934204D041F2AD012848FEF742
:102EC80037F929462068FFF7AFFB2268D36943F03A
:102ED8000803D3612268D36923F00403D36122680D
:102EE800D36929690B43D361002032E023681D4A66
:102EF800934217D002F50062934213D0B3F1804F8A
:102F080010D0A2F5983293420CD002F58062934219
:102F180008D002F58062934204D041F2BE01104805
:102F2800FEF706F929462068FFF7DCFB2268D3691B
:102F380043F40063D3612268D36923F48063D361C7
:102F48002268D369296943EA0123D361002000E09C
:102F58000120002384F83C3070BD0220FCE700BF4C
:102F6800E0A00008002C014010B4846824F47F4CD1
:102F780042EA03220A4342EA0C02826010BC70470C
:102F880038B590F83C30012B00F0208204460D46FD
:102F9800012380F83C30022380F83D300B68B3F5FC
:102FA800805F11D0702B0FD0B3F5005F0CD0402B91
:102FB8000AD0502B08D0602B06D02BB1102B03D091
:102FC800202B01D0302B46D12268936823F47F430D
:102FD80023F0770393602B68602B00F0698176D823
:102FE800402B00F0A4813CD9502B6ED12368A24A13
:102FF800934217D002F50062934213D0B3F1804F89
:1030080010D0A2F5983293420CD002F58062934218
:1030180008D002F58062934204D041F2FD419748FE
:10302800FEF786F86B68B3F5004F05D023B1022B85
:1030380002D00A2B40F03081EB680F2B00F232816E
:10304800EA6869682068FFF767FA50212068FFF787
:1030580088FA00200BE041F2BE418848FEF768F884
:10306800B2E7202B0DD009D9302B0AD0012001233B
:1030780084F83D30002384F83C3038BD0BB1102B68
:1030880021D123687C4A934217D002F5006293420B
:1030980013D0B3F1804F10D0A2F5983293420CD0E0
:1030A80002F58062934208D002F58062934204D010
:1030B80041F230517148FEF73BF829682068FFF764
:1030C80050FA0020D3E70120D1E70120CFE7B3F57C
:1030D800805F00F08A80B3F5005F42D12368664ABA
:1030E800934217D002F50062934213D0B3F1804F98
:1030F80010D0A2F5983293420CD002F58062934228
:1031080008D002F58062934204D041F2E9415B485D
:10311800FEF70EF8AB684BB1B3F5805F06D0B3F598
:10312800005F03D0B3F5405F40F09F806B68B3F554
:10313800004F05D023B1022B02D00A2B40F0A0800B
:10314800EB680F2B00F2A280EB686A68A968206818
:10315800FFF70AFF2268936843F4804393600020D6
:1031680085E7702B3FD12368434A934217D002F575
:103178000062934213D0B3F1804F10D0A2F5983279
:1031880093420CD002F58062934208D002F5806227
:10319800934204D041F2D1413848FDF7C9FFAB68EA
:1031A80043B1B3F5805F05D0B3F5005F02D0B3F546
:1031B800405F48D16B68B3F5004F04D01BB1022BB8
:1031C80001D00A2B45D1EB680F2B48D8EB686A6809
:1031D800A9682068FFF7C8FE2268936843F0770360
:1031E8009360002043E7012041E72368224A934285
:1031F80000F0DC8002F50062934200F0D980B3F160
:10320800804F00F0D780A2F59832934200F0D48026
:1032180002F58062934200F0D18002F58062934209
:1032280000F0CE8002F58062934200F0CB8002F578
:103238008062934200F0C88041F2CA410F48FDF70E
:1032480077FF002013E741F2D4410C48FDF770FFE7
:10325800B0E741F2D5410948FDF76AFFB3E741F20B
:10326800D6410648FDF764FFB0E741F2EC41034858
:10327800FDF75EFF5AE700BF002C0140E0A0000800
:1032880041F2ED415248FDF753FF59E741F2EE4153
:103298004F48FDF74DFF57E74FF4A8514C48FDF74D
:1032A80047FFC9E641F201514948FDF741FFC7E62A
:1032B8002368484A934217D002F50062934213D01C
:1032C800B3F1804F10D0A2F5983293420CD002F59A
:1032D8008062934208D002F58062934204D041F2A2
:1032E8000D513B48FDF724FF6B68B3F5004F04D040
:1032F8001BB1022B01D00A2B0DD1EB680F2B10D874
:10330800EA6869682068FFF719F960212068FFF703
:1033180028F90020ABE641F210512D48FDF708FFCF
:10332800EBE741F211512A48FDF702FFE8E723686D
:10333800284A934217D002F50062934213D0B3F1A2
:10334800804F10D0A2F5983293420CD002F58062DB
:10335800934208D002F58062934204D041F21D5195
:103368001B48FDF7E5FE6B68B3F5004F04D01BB1B1
:10337800022B01D00A2B0DD1EB680F2B10D8EA686D
:1033880069682068FFF7C8F840212068FFF7E9F866
:1033980000206CE64FF4A9510D48FDF7C9FEEBE794
:1033A80041F221510A48FDF7C3FEE8E700205EE636
:1033B80000205CE600205AE6002058E6002056E689
:1033C800002054E6002052E6002050E6022054E691
:1033D800E0A00008002C014070B504460D461646D2
:1033E8001C4B984217D003F50063984213D0B0F1F4
:1033F800804F10D0A3F5983398420CD003F5806322
:10340800984208D003F58063984204D041F692515F
:103418001148FDF78DFE3DB1042D05D0082D03D0D0
:103428000C2D01D03C2D0ED105F01F05012303FA08
:1034380005F2236A23EA02032362236A06FA05F5E2
:103448001D43256270BD41F693510348FDF770FE98
:10345800EAE700BF002C0140E0A0000838B50546A7
:103468000C4603684B4A934212D002F5006293421D
:103478000ED0B3F1804F0BD0A2F59832934207D00B
:1034880002F58062934203D002F58062934206D12E
:1034980054B1042C08D0082C06D00C2C04D040F2CF
:1034A800B3513D48FDF744FE002C3AD195F83E3023
:1034B800DBB2013B18BF0123002B66D1002C49D198
:1034C800022385F83E30012221462868FFF784FF51
:1034D8002B68304A934203D002F50062934203D12D
:1034E8005A6C42F400425A642B682A4A934241D0EB
:1034F80002F5006293423DD0B3F1804F3AD0A2F575
:103508009832934236D002F58062934232D002F567
:10351800806293422ED01A6842F001021A6000209D
:1035280032E0042C08D0082C0DD095F84130DBB2DD
:10353800013B18BF0123BFE795F83F30DBB2013BE1
:1035480018BF0123B8E795F84030DBB2013B18BF3C
:103558000123B1E7042C05D0082C07D0022385F8F5
:103568004130B0E7022385F83F30ACE7022385F805
:103578004030A8E79A6802F00702062A07D01A68BE
:1035880042F001021A60002038BD0120FCE700204B
:10359800FAE700BF002C0140E0A0000838B5044657
:1035A8000D4603683D4A93421FD002F500629342DC
:1035B8001BD0B3F1804F18D0A2F59832934214D0A3
:1035C80002F58062934210D002F5806293420CD0DB
:1035D80002F58062934208D002F58062934204D0DB
:1035E80040F2B4712E48FDF7A3FD2B686BB1102B88
:1035F8000BD0202B09D0302B07D0402B05D0502BD7
:1036080003D0602B01D0702B39D16B68802B01D08F
:10361800002B3AD194F83C30012B3CD0012384F89C
:103628003C30022384F83D3023685968986821F0BB
:1036380070012A680A435A602368184A934212D0D4
:1036480002F5006293420ED0B3F1804F0BD0A2F581
:103658009832934207D002F58062934203D002F574
:103668008062934204D120F080006A681043986019
:10367800012384F83D30002084F83C0038BD40F236
:10368800B5710748FDF754FDBFE740F2B67104482D
:10369800FDF74EFDBEE70220F0E700BF002C014019
:1036A8002CA100087047704708B502680A4B9A4277
:1036B80000D008BD094B1B68632B04DC074A13685C
:1036C80001331360F5E74FF400710548FEF702FA7D
:1036D800024B00221A60F1E700100040C40A0020E3
:1036E800000C01404FF0804318647047074B9B68FB
:1036F80013F0020FFAD0054BD860044B9B6813F007
:10370800010FFAD0014BD868C0B2704700380040AA
:1037180010B5074C4FF0005323614FF0007323613D
:10372800C0B2FFF7E3FF4FF40053236110BD00BFA1
:103738000014014010B5064C4FF0005323614FF4BC
:1037480000732361FFF7D2FF4FF40053236110BDCC
:103758000014014008B5CF20FFF7DAFF0020FFF77B
:10376800E9FF8120FFF7E6FF3020FFF7E3FFED20B8
:10377800FFF7CEFF6420FFF7DDFF0320FFF7DAFF36
:103788001220FFF7D7FF8120FFF7D4FFE820FFF7CB
:10379800BFFF8520FFF7CEFF1020FFF7CBFF782073
:1037A800FFF7C8FFCB20FFF7B3FF3920FFF7C2FFB1
:1037B8002C20FFF7BFFF0020FFF7BCFF3420FFF7E6
:1037C800B9FF0220FFF7B6FFF720FFF7A1FF20207F
:1037D800FFF7B0FFEA20FFF79BFF0020FFF7AAFFE3
:1037E8000020FFF7A7FFB120FFF792FF0020FFF7A7
:1037F800A1FF1B20FFF79EFFB620FFF789FF0A20D5
:10380800FFF798FFA220FFF795FFC020FFF780FF82
:103818003520FFF78FFFC120FFF77AFF1120FFF750
:1038280089FFC520FFF774FF4520FFF783FF452078
:10383800FFF780FFC720FFF76BFFA220FFF77AFF93
:10384800F220FFF765FF0020FFF774FF2620FFF73F
:103858005FFF0120FFF76EFFE020FFF759FF0F2001
:10386800FFF768FF2620FFF765FF2420FFF762FFB8
:103878000B20FFF75FFF0E20FFF75CFF0920FFF723
:1038880059FF5420FFF756FFA820FFF753FF4620A3
:10389800FFF750FF0C20FFF74DFF1720FFF74AFFF7
:1038A8000920FFF747FF0F20FFF744FF0720FFF726
:1038B80041FF0020FFF73EFFE120FFF729FF00202E
:1038C800FFF738FF1920FFF735FF1B20FFF732FFFE
:1038D8000420FFF72FFF1020FFF72CFF0720FFF72A
:1038E80029FF2A20FFF726FF4720FFF723FF39206B
:1038F800FFF720FF0320FFF71DFF0620FFF71AFF41
:103908000620FFF717FF3020FFF714FF3820FFF7D6
:1039180011FF0F20FFF70EFF3620FFF7F9FE60209A
:10392800FFF708FF2A20FFF7F3FE0020FFF702FF4A
:103938000020FFF7FFFE0020FFF7FCFEEF20FFF757
:10394800F9FE2B20FFF7E4FE0020FFF7F3FE00202E
:10395800FFF7F0FE0120FFF7EDFE3F20FFF7EAFE3C
:103968003A20FFF7D5FE5520FFF7E4FE1120FFF7B8
:10397800CFFE7820FDF716FE2920FFF7C9FE08BD07
:1039880038B5134C00232370A3604FF4A0736380F1
:103998004FF4F073A380FDF7D1FAFDF7CBFB0D4B85
:1039A8001A68136843F0400313600B4D4FF000632F
:1039B8002B616420FDF7F6FD4FF400632B61322084
:1039C800FDF7F0FDFFF7C6FE0123237038BD00BFE9
:1039D800C80A0020D40900200014014038B5044664
:1039E800084D4FF000532B614FF400732B61000A10
:1039F800FFF77CFEE0B2FFF779FE4FF400532B612E
:103A080038BD00BF00140140F8B507460D461646FC
:103A18001C462A20FFF77CFE380AFFF78BFEF8B217
:103A2800FFF788FE300AFFF785FEF0B2FFF782FE47
:103A38002B20FFF76DFE280AFFF77CFEE8B2FFF7A0
:103A480079FE200AFFF776FEE0B2FFF773FE2C201E
:103A5800FFF75EFEF8BD10B50B4614460246FFF7A9
:103A6800D3FF2046FFF7BAFF10BD70B5BDF8106050
:103A7800151A5C1A013405FB0444FFF7C5FF03E07F
:103A88003046FFF7ABFF2C46651E002CF8D170BD01
:103A98002DE9F04F83B01F46374B1B78002B68D0B9
:103AA8008046894617F0070318BF012303EBD703A5
:103AB800790801FB03F3DBB20193203A5FFA82FB3A
:103AC8004C464FF0000A43E00BEB4B032B4A02EB4A
:103AD800830313F80A50002621E0294B03EB0B134C
:103AE80013F80A50F7E70BEBCB03264A02EB8303E4
:103AF80013F80A50EFE70D9B9AB221464046FFF7AC
:103B0800AAFF6D00EDB20134A4B21B4B9B88A342FF
:103B18002FD9A4EB0903BB420DD00136F6B2072E0C
:103B280012D815F0800FE6D00C9B9AB22146404679
:103B3800FFF791FFE5E708F101081FFA88F80E4B37
:103B48005B88434515D94C460AF1010A5FFA8AFA9F
:103B5800019B9A450DD20C2FB6D0102FBDD0182F2F
:103B6800C1D0202F05D1084B03EB8B1313F80A5053
:103B7800B1E703B0BDE8F08FC80A00207CA10008B7
:103B8800F0A50008E0AB00083CB900082DE9F047B3
:103B980082B01D46DDF82890DDF82CA01B4B1B7861
:103BA8008BB380460E4617460C2D06D0102D04D038
:103BB800182D02D0202D00D01825444609E0134BBB
:103BC8009B881B1A9E421EDC7E2A0ED902372C4483
:103BD800A4B23A78BAB10D4B59882846491B8C4291
:103BE800EDDD2E44B6B24446E9E7CDF804A0CDF8A1
:103BF80000902B4631462046FFF74AFF013704EB79
:103C08005504A4B2E5E702B0BDE8F087C80A002071
:103C180010B50446FEF76CFB054BA3FB00231B0DF8
:103C280004FB03F003460138002BFBD110BD00BF95
:103C380083DE1B4338B5044600250DE00E4B0022F9
:103C4800C3F894216400E4B201200C4BC3F89C0132
:103C5800FFF7DEFF0135EDB2072D0CD8074B002228
:103C6800C3F89C2114F0800FE8D0A3F5803301221B
:103C7800C3F89421E6E738BD000022420000234241
:103C880070B500241E4BC3F8884103F50043C3F800
:103C980094411C4DC5F89C41FFF7CCFF0A20FFF763
:103CA800B7FFC5F89C410120FFF7B2FF0120C5F816
:103CB8009C01FFF7ADFF254601E00135EDB20F2D60
:103CC80015D8104E0023C6F89C310120FFF7A0FF3D
:103CD8000120C6F89C01FFF79BFF6400A4B20A4BC1
:103CE800D3F81C31002BE8D044F00104E5E724099F
:103CF8000120034BC3F88801FFF78AFF204670BDF7
:103D08000080214200002342000021420A4BD3F8E0
:103D180014310BB10020704710B59020FFF7B0FFA9
:103D2800064C2080D020FFF7ABFF60802388A3805B
:103D3800E080012010BD00BF00002142D40A00200D
:103D480000B583B0FDF70AFCFDF7C0F9FDF7F6F8FA
:103D5800FDF762FBFDF7D6FA0C48FEF7FDFC0C21D7
:103D68000B48FFF77BFBFFF70BFE4FF6FF73009343
:103D78004FF4A0734FF4F07200210846FFF775FE68
:103D88006420FFF7AFFC03B05DF804FB780A00205D
:103D9800300A002070B58AB0FFF7D2FF002308E090
:103DA8000AAA02EB8302002122F8101C22F80E1C3A
:103DB8000133032BF4DD0025032D62DC05EBD572FE
:103DC80022F0010303EB620303EBC303D800A0EB6B
:103DD8006200400080B2002D05F00101B8BF4942E1
:103DE80001EBC101C1EB0111490089B201F11E03C8
:103DF8009BB200F11E0292B2143189B2143080B223
:103E08004FF478440094FFF730FE01240CB34C4B78
:103E1800D3F81431002BF9D11420FDF7C3FB484B1C
:103E2800D3F81431002BF1D10CE09020FFF728FFD4
:103E38000AAB03EB850424F8100CD020FFF720FF11
:103E480024F80E0C3E4BD3F814310024002BECD090
:103E5800DCE701350126002EAED0394BD3F81431FA
:103E6800012BF8D11420FDF79DFB354BD3F8143105
:103E7800012BF0D1324BD3F81431012BFAD026465E
:103E8800E9E700241BE00AAB03EB840232F80E3C9E
:103E980032F8102C2B4903A800F0A0FB04EB840196
:103EA8008900323189B24FF6FF73019300230093E2
:103EB8000C230DEB03023220FFF768FE0134032CBC
:103EC800E1DD18E0FFF722FF1F4AD38892881F49D7
:103ED80003A800F083FB4FF6FF73019300230093C0
:103EE8000C230DEB03024FF496716420FFF74EFE8E
:103EF800C820FDF757FB4FF6FF7300934FF4C873C4
:103F0800C8224FF496716420FFF7AFFD0C4BD3F82D
:103F18001431002BD6D000231A460C4903A800F010
:103F28005DFB4FF6FF730193002300930C230DEB09
:103F380003024FF496716420FFF728FED8E700BF0C
:103F480000002142FCD00008D40A002004D1000857
:103F5800014B1868704700BF0C00002070B50D4E6B
:103F68000D4D761BB61006D0002455F8043B0134DD
:103F78009847A642F9D1094E094D05F0F3FF761B83
:103F8800B61006D0002455F8043B01349847A642E1
:103F9800F9D170BD10D5000810D5000818D5000853
:103FA80010D500082DE9F04F01F10B05162D064636
:103FB80083B025D8102900F2B88000F0F1FA102556
:103FC80018224FF0020CB54F3A445368A2F1080189
:103FD8008B4200F0B7805A68D96822F003021A446D
:103FE8009C683046E1608C60516803F1080441F038
:103FF8000101516000F0DAFA204603B0BDE8F08F05
:1040080035F0070500F19180A94200F28E8000F09A
:10401800C7FAB5F5FC7FC0F094816B0A00F08C807C
:10402800042B00F26A81AB0903F1390C03F138045F
:104038004FEACC00994F384443680838984206D173
:104048000CE0002980F22681DB68984206D05A6885
:1040580022F00302511B0F29F3DDA4463C69DFF867
:1040680040E274457AD0626822F00302531B0F2B9A
:1040780000F37681002BC7E904EE80F26781B2F580
:10408800007F80F019810121D30852090B44914027
:104098007A6857F833000A4307EBC3010839A06070
:1040A800E1607A6047F83340C46001214FEAAC030D
:1040B8009940914259D8114206D12CF0030C49007D
:1040C80011420CF1040CFAD007EBCC0948466446BF
:1040D800D0F80C80404508D11CE1002B80F22181EA
:1040E800D8F80C80404500F01581D8F8042022F05B
:1040F8000302531B0F2BF0DD08EB050145F001050A
:10410800C8F804503046D8E90264F460A66043F069
:104118000104C7E904114C60C1E902EE48F8023015
:1041280000F044FA08F1080402E00C23002433608C
:10413800204603B0BDE8F08F4FF400704FF0400CFC
:104148003F2477E7D3689A4208BF0CF1020C7FF44A
:1041580042AF3C69DFF848E1744584D101217A68AF
:104168004FEAAC0399409142A5D9BC68636823F033
:1041780003094D4503D8A9EB05030F2B7ADCDFF8BB
:1041880024B1494BDBF800201B6801322B4404EBB7
:10419800090A00F02F8103F580530F3323F47F6859
:1041A80028F00F084146304600F006FA411C024646
:1041B80000F0EF80824500F2EA803C4B19684144E8
:1041C8000846196000F04981DBF8001001930131BD
:1041D8001BBFA2EB0A0A5044CBF80020186012F06B
:1041E800070B00F01181CBF108010A44CBF580518F
:1041F80090440831A1EB0801C1F30B0A514630463F
:10420800009200F0D9F9421CDDE9002300F04B814F
:10421800801A00EB0A08196848F001005144BC42B2
:10422800BA601960506000F02481B9F10F0F40F2B4
:1042380022814FF0050E6068A9F10C0C2CF0070CD8
:1042480000F0010040EA0C006060BCF10F0F04EBC5
:104258000C00C0E901EE00F22E8114465068144BA0
:104268001A688A4238BF1960124B1A688A4238BFE6
:10427800196090E0621943F0010345F0010565609B
:104288003046BA600834536000F090F9204603B015
:10429800BDE8F08FD9681A44A2E600BF38040020B0
:1042A80040040020400800200C0B0020DC0A0020FD
:1042B800040B0020080B0020B2F5206F4FEA5223B0
:1042C8005FD3142B00F2B18003F15C01C9005B33AA
:1042D800781879580838884200F08F804B6823F0A6
:1042E8000303934202D989688842F7D1C8687A687B
:1042F800C4E902108460CC60D7E6142B59D9542B3A
:1043080000F29B802B0B03F16F0C03F16E044FEA54
:10431800CC008FE60134A30700F108007FF4D8AE83
:1043280053E0444642445368D8F80C1043F0010364
:10433800536054F8083F3046D9608B6000F036F976
:10434800F6E64FEAD50C05F108023CE6224453682C
:10435800304643F00103536000F028F90834E7E6DB
:10436800611945F00105656043F00105C7E90411CD
:104378003046C1E902EE4D60A35000F017F9083449
:10438800D6E6930903F13901C9003833A0E7BC42E6
:104398005ED0BC68606820F003084545A8EB0503BB
:1043A80002D80F2B3FF766AF304600F0FFF8002425
:1043B800BEE603F15C0C03F15B044FEACC0039E67E
:1043C80059F808394B4540F095801CF0030F0CF163
:1043D800FF3CF5D17B6823EA01037B6049009942E1
:1043E8003FF6C3AE11B9C0E6490004341942FBD008
:1043F800A44669E603F11008D4E601229B109A400E
:104408007B681A437A6073E702EB08014942C1F3FB
:104418000B0A51463046009200F0CEF8431CDDE905
:1044280000237FF4F5AEDA46F5E6542B26D8130BB5
:1044380003F16F01C9006E334AE7B3F5AA7F26D8A6
:10444800EB0B03F1780C03F177044FEACC00F1E5AC
:10445800294B186840441860B6E6CAF30B0CBCF147
:10446800000F7FF4B1AEBC68C84448F0010060603A
:10447800F5E61446F3E60123536095E7B3F5AA7F02
:1044880024D8D30B03F17801C900773320E740F231
:104498005452934224D8AB0C03F17D0C03F17C04F5
:1044A8004FEACC00C6E5ABF1080BD8444FF0000A40
:1044B800A8EB0208AFE604F108013046009302F0C9
:1044C80073FEBC68009B60681968C8E640F25451E6
:1044D8008B420BD8930C03F17D01C9007C33F7E6BE
:1044E8004FF47E704FF07F0C7E24A3E54FF47E716D
:1044F8007E23EDE67B6871E7DC0A0020830730B590
:1045080048D0541E002A3FD00346CAB201E0013CFD
:104518003AD303F8012B9D07F9D1032C2DD9CDB23D
:1045280045EA05250F2C45EA054536D9A4F11002C0
:1045380022F00F0C03F1200EE6444FEA121C03F19F
:10454800100242E9045542E9025510327245F8D189
:104558000CF1010214F00C0F03EB021204F00F0C23
:1045680013D0ACF1040323F003030433134442F8DB
:10457800045B9342FBD10CF003042CB1CAB21C4477
:1045880003F8012B9C42FBD130BD64461346002C36
:10459800F4D1F9E703461446BFE71A46A446E0E714
:1045A800014802F009BF00BF140B0020014802F0C7
:1045B80005BF00BF140B0020002238B5064D044685
:1045C80008462A60FCF778FE431C00D038BD2B68EB
:1045D800002BFBD0236038BD200B00200EB430B573
:1045E80004466FF000459CB00B4A1FAB0B4905927F
:1045F80053F8042B086802A9CDE9013407950495FE
:10460800069400F00DF80022029B1A701CB0BDE859
:10461800304003B0704700BF0802FFFF0C000020C5
:104628002DE9F04FD5B00C460C9191460E930A90A7
:1046380002F0BAFE03681846179303F0E5FAA38957
:104648001690190603D52369002B00F08F870024E4
:104658002BAB224698464D46CDE92944289312941F
:1046680000230024CDE914342B78CDE91922CDE9B3
:104678001B2218920892002B00F0CE81AA4604E073
:104688001AF8013F002B00F00981252BF8D1BAEB6D
:10469800050640F007819AF80030002B00F0BC8135
:1046A80000234FF0FF324FF02B0920241F469AF8C1
:1046B800016007920AF1010A8DF8833009930AF123
:1046C800010AA6F120035A2B00F22081DFE813F03B
:1046D800CA021E011E01C5021E011E011E01A302FF
:1046E8001E011E016A00F3021E014702D9021E01C3
:1046F800D4025B005B005B005B005B005B005B005F
:104708005B005B001E011E011E011E011E011E0131
:104718001E01B0011E010B027A00B001B001B00108
:104728001E011E011E011E019E021E011E01B60071
:104738001E011E011E0119021E014C021E011E014E
:104748003F071E011E011E011E011E011E011E0142
:104758001E01B0011E010B027C00B001B001B001C6
:1047680091027C0075001E0184021E017002B800CF
:104778005E0275001E01190272001C071E011E014F
:104788001F071E0172000022A6F130031AF8016B00
:1047980002EB820203EB4202A6F13003092BF5D9A2
:1047A80009928EE70E9B53F8042B002A09920E9368
:1047B800C0F2D2819AF8006081E79AF8006047F069
:1047C80020077CE747F01007BA060E9B40F17D8171
:1047D800073323F007031A465B6852F8084B9946DB
:1047E8000E92002BC0F27F85079B013301F03980C0
:1047F80054EA090327F0800B00F005850A2C79F1AB
:10480800000380F0938701235F4630348DF84F41D1
:104818000B930DF24F15079A0B9900238A42B8BFE4
:104828000A4606929DF883200D930F9313931093D5
:10483800002A7CD0069B0133069378E047F01007E6
:1048480017F0200900F032810E9B073323F007038D
:10485800D3F8049053F8084B0E93002327F4806B89
:1048680000228DF88320079A511C00F02A8254EA0E
:1048780009012BF0800740F02382002A41F02B80A9
:10488800002B40F0C5841BF001030B9300F0548506
:1048980030230DF24F158DF84F31BCE7BAEB050602
:1048A80000F0BA802A9BC8E9005633442A93299B12
:1048B8000133072B299305DC08F10808089B3344CA
:1048C8000893E8E60C990A9828AA03F0FFF980B93A
:1048D8000DF1AC08F2E70C990A9828AA03F0F6F94A
:1048E800002800F08A800D9B1BB10D990A9802F0F0
:1048F8005BFC0C9B9B8913F0400F089B18BF4FF083
:10490800FF330893089855B0BDE8F08F002E00F0EB
:104918008380012300228DF8EC6006933BAD8DF86F
:1049280083200B930D9207920F921392109217F017
:10493800020302D006990231069117F0840B07D1C1
:1049480009990698A1EB0009B9F1000F00F3368325
:104958002A9C82B10122C8F80420299A0134013224
:104968000DF18301072A2A942992C8F8001000F350
:10497800698308F108087BB10223C8F80430299B31
:104988000234013321AA072B2A942993C8F800205E
:1049980000F36C8308F10808BBF1800F00F02E8249
:1049A800079B0B9AA3EB020BBBF1000F00F371827C
:1049B800FB0500F1C5810B9BC8F800501C44C8F8E2
:1049C8000430299B2A940133072B299300F3EA82A8
:1049D80008F108087B0705D5099B069A9D1A002D42
:1049E80000F35083DDE9083206998A42ACBF9B1870
:1049F8005B180893002C7FF46EAF002329930D9B5E
:104A08001BB10D990A9802F0CFFB55460DF1AC0881
:104A18002B78002B7FF432AE2A9B002B3FF469AF32
:104A28000C9C0A98214628AA03F050F9A38962E74A
:104A38000E9B073323F00702F2E80234CDE9143461
:104A4800DDE9143424F00044994618460E922146B4
:104A58004FF0FF32B64BFCF7AFF8002840F09684D1
:104A6800484621464FF0FF32B14BFCF787F8002843
:104A780040F08C84DDE9140100220023FCF774F86F
:104A8800002840F0A6879DF8832000210320A94D27
:104A9800A94B27F080070D910690472EC8BF1D46E9
:104AA80007910B900F9113911091C1E617F0100325
:104AB80040F0628417F0400200F07B870E9A994616
:104AC80052F8044B0E92A4B2C7E653F8044B0E9367
:104AD800FB0600F141847D0640F13B8444F3C03974
:104AE8004B4624B27DE6012000220E9B069053F827
:104AF800041B3BAD8DF883208DF8EC100E930B90C2
:104B080010E74FF000090E9C079B54F8045B8DF8E2
:104B18008390002D00F0EE865A1C00F060851A463E
:104B28004946284602F04CFC0D90002801F09E8072
:104B38000D9B9DF883205B1B0B9323EAE373CDF851
:104B48001C900E940693CDF83490CDF83C90CDF897
:104B58004C90CDF840906BE6099B5B4209939AF81C
:104B6800006047F00407AAE547F0100B1BF0200986
:104B780000F0AA830E9B073323F007031A4652F866
:104B8800084BD3F804900E92012369E63022782668
:104B98000E9B8DF8842053F8044B684A0E934FF00F
:104BA8000009022347F0020B8DF88560189257E63A
:104BB800BD0600F1D683FC0600F19386780600F165
:104BC8005D87B90540F18D860E9B089953F8042B33
:104BD800554611700E931BE79AF800606C2E03BFC0
:104BE8009AF8016047F020070AF1010A47F0100718
:104BF80065E59AF80060682E03BF9AF8016047F4EB
:104C080000770AF1010A47F0400758E59AF8006072
:104C180047F0080753E50A9E304602F0C5FB436893
:104C280018461B9302F0F0FF034630461C931E46BD
:104C380002F0BAFB83681993002E3FF4BBAD199BB1
:104C4800002B3FF4B7AD199B1B78002B3FF4B2AD96
:104C58009AF8006047F4806731E59AF8006047F0F9
:104C680001072CE59DF88330002B7FF4A3AD9AF85B
:104C780000608DF8834022E59AF8006047F08007CD
:104C88001DE5524612F8016B2A2E01F0EB81A6F1C0
:104C98003003092B924698BF002201F203801AF8CC
:104CA800016B02EB820203EB4202A6F13003092BEF
:104CB800F5D9079205E59AF800608DF88390FEE42F
:104CC800BB46012B3FF49AAD022B54AD12D1189A72
:104CD80004F00F03D35C240944EA09744FEA191954
:104CE80005F8013D54EA0903F2D154AB5B1B5F465A
:104CF8000B9390E504F00703E40844EA49744FEA8B
:104D0800D909303354EA09012A4605F8013DF1D1A1
:104D18001BF0010FE9D0302BE7D03023023A05F819
:104D2800013C54AB9B1A5F4615460B9373E500BFD5
:104D3800FFFFEF7F10D1000814D1000820D1000830
:104D4800652E40F3E980DDE9140100220023FBF71A
:104D580001FF002800F0D2810123C8F80430299B04
:104D6800BF4A01330134072B2A942993C8F800203D
:104D780000F37A8508F10808229B129A934280F280
:104D8800D782169B179A1C44C8E90023299B2A94AA
:104D98000133072B299300F3DD8308F10808129BE0
:104DA8005D1E002D7FF716AE102D41F34181DFF80F
:104DB800B492224649461026B946299B0F46DDF88B
:104DC80028B00C9C05E008F10808103D102D40F3B0
:104DD800588501331032072BC8E90076CDE929320E
:104DE800F1DD2146584628AA02F070FF00287FF41A
:104DF8007AADDDE929320DF1AC08E6E7099B069AA0
:104E0800A3EB020BBBF1000F7FF7CAADBBF1100F8C
:104E180041F30580DFF84C9241462046A8464C46AF
:104E28001023299A0C9DDDF8289006E0ABF1100BB1
:104E3800BBF1100F01F1080119DD01321030072A0A
:104E4800C1E90043CDE92920F0DD2946484628AAD2
:104E580002F03CFF00287FF446ADDDE92920ABF1E4
:104E6800100BBBF1100F4FF010032BA9E5DC4546E2
:104E7800A1468846044601325C44072ACDE9292424
:104E8800C8F80090C8F804B000F3188508F10808BD
:104E980086E5BBF1100F40F39785DFF8C8914146CE
:104EA8002046A8464C461023299A0C9DDDF82890E8
:104EB80006E0ABF1100BBBF1100F01F1080119DD91
:104EC80001321030072AC1E90043CDE92920F0DD7D
:104ED8002946484628AA02F0F9FE00287FF403ADC7
:104EE800DDE92920ABF1100BBBF1100F4FF01003D7
:104EF8002BA9E5DC4546A1468846044601325C44B8
:104F0800072ACDE92924C8F80090C8F804B000F3AE
:104F1800CE8108F108084BE5129B012B40F37E81F6
:104F28000123299E01341E44072EC8F800502A94F4
:104F3800C8F80430299600F3E18108F10808169BA7
:104F48000136179A1C44072EC8E90023CDE92964C5
:104F580000F3E18108F108080022DDE914010023CB
:104F6800FBF7F8FD002840F07681129B0136013BE3
:104F780001351C44072EC8F800502996C8F804309B
:104F88002A9400F35B8108F108081A9B01361C4437
:104F9800C8F80430072E24ABCDE92964C8F80030DE
:104FA8007FF716AD0C990A9828AA02F08FFE002800
:104FB8007FF499AC2A9C0DF1AC080BE5B9F1100F00
:104FC80040F35086DDE929214046CDE91D36B84633
:104FD80010244F460C9EA9460A9D04E0103F102F4E
:104FE80000F1080016DD01321F4B1031072AC0E915
:104FF8000034CDE92921F1DD3146284628AA02F0FE
:1050080065FE00287FF46FACDDE92921103F102FE1
:105018002BA8E8DC4D46DDE91D36B94647468046F3
:1050280009EB010401321049072ACDE92924C8F8FF
:105038000490C8F8001000F3C3839DF8832008F19A
:10504800080886E40C990A9828AA1D9302F03EFEE7
:1050580000287FF448AC2A9C1D9B0DF1AC088AE41B
:1050680050D1000864D1000854D100080C990A985E
:1050780028AA02F02BFE00287FF435AC2A9C0DF1FB
:10508800AC0889E4102D40F3C4861026299B0A9F9A
:10509800DDF8309004E0103D102D08F1080817DD08
:1050A8000133B84A1034072BC8E90026CDE9293462
:1050B800F1DD4946384628AA02F008FE00287FF4A8
:1050C80012ACDDE92934103D102D0DF1AC08E7DCF8
:1050D8000133AC4A2C44072BCDE92934C8F80450D5
:1050E800C8F800207FF77EAC0C990A9828AA02F02D
:1050F800EDFD00287FF4F7AB2A9C73E42299002980
:1051080040F36F83DDF84090129B9945A8BF9946FC
:10511800B9F1000F0BDD299B4C440133072BC8E97B
:1051280000592A94299300F31D8508F10808109E58
:10513800B9F1000FA8BFA6EB0906002E00F32582DF
:10514800DDF840B07805AB4400F15F82229B129AEB
:10515800934202DBF90740F17684169A17991444B2
:10516800C8E90012299A2A940132072A299200F3E1
:10517800138508F10808129AAE18A6EB0B06D51A83
:10518800AE42A8BF2E46002E0DDD299B34440133C4
:10519800072BC8F800B0C8F804602A94299300F3D4
:1051A800718508F10808002EA8BFAD1B002D7FF7F8
:1051B80011AC102D40F33C87DFF8CC9122464946CC
:1051C8001026B946299B0F46DDF828B00C9C05E04F
:1051D80008F10808103D102D40F3538301331032B5
:1051E800072BC8E90076CDE92932F1DD214658467A
:1051F80028AA02F06BFD00287FF475ABDDE929329F
:105208000DF1AC08E6E7079B002B7FF4FCAA5F468C
:10521800002354AD07930B93FFF7FDBAFA073FF548
:105228007FAE0123299E01341E44072EC8F8005082
:105238002A94C8F8043029967FF7A5AE0C990A98E5
:1052480028AA02F043FD00287FF44DABDDE929646C
:105258000DF1AC0899E6129B5D1E002D7FF795AE07
:10526800102D40F3DF86224607974FF0100BDFF82A
:1052780018910A9C0C9F05E008F10808103D102DB4
:1052880040F37F8301361032072EC8E9009BCDE931
:105298002962F1DD3946204628AA02F017FD0028C8
:1052A8007FF421ABDDE929620DF1AC08E6E70C9942
:1052B8000A9828AA02F00AFD00287FF414AB2A9C59
:1052C8000DF1AC08FFF774BB1BF010030E9A3AD12E
:1052D8001BF0400133D052F8044B99460E9201233B
:1052E800A4B2FFF7BDBA2D2364428DF88330BB46C4
:1052F8004FF0010369EB4909FFF7B5BA0C990A9811
:1053080028AA02F0E3FC00287FF4EDAADDE929646D
:105318000DF1AC0813E60C990A9828AA02F0D6FCFD
:1053280000287FF4E0AADDE929640DF1AC0813E652
:10533800FD077FF54FAB24E554ADFFF76CBA1BF4BE
:10534800007940F08A8352F8044B01230E92FFF74C
:1053580087BAB80500F19B834FEAE4794B46FFF71B
:1053680040BA0E9B089853F8041BC2175546C1E96A
:1053780000020E93FFF74CBB0E9B53F8044B0E93A1
:10538800FFF76BBA54D1000864D10008DDE91401B5
:1053980002460B46FBF710FC002840F0E985612E19
:1053A80000F07D85412E00F08B84079B013300F0CF
:1053B8008F8326F02003472B069300F08F85DDE9C5
:1053C800141247F480730F931346002BC0F2B08574
:1053D8000B9300238B461D930D93069B462B00F0E1
:1053E800E983452B00F0468507990B9B0191022123
:1053F800009126A9049123A9039122A95A460A9843
:10540800029100F005FF069B0546472B40F03A86BF
:1054180017F0010FB9460F9F40F0FE84269B5B1BD7
:105428001293069B472B00F06E83069B462B00F0D9
:10543800F083229B1093109B069A013B412A2293EA
:1054480000F0BB850021F2B2002B8DF89020B6BF8A
:105458002D222B22109B8DF89120B8BFC3F1010398
:10546800092B40F39B850DF19F0C6246B64F1C46F5
:10547800104687FB0312D917C1EBA20101EB810289
:10548800A3EB42023032632C00F8012C0B4600F1EA
:10549800FF32ECDC3033811EDBB28C4502F8013C74
:1054A80040F2F9850DF1920101E012F8013B9445B3
:1054B80001F8013BF9D10DF1A1030DF192021B1A7C
:1054C800134424AA9B1A1A93129B1A9A012B1A4462
:1054D8000B9240F381850B9B169A13440B93002380
:1054E8000B9A29F4806722EAE27247F480770F93D7
:1054F8000692139310931D9B002B40F02C839DF86C
:1055080083200793FFF794B9BB46FFF72FBB8F4B58
:10551800189317F0200900F0F5800E9B073323F04D
:105528000703D3F8049053F8084B0E93F80709D5EE
:1055380054EA090306D030238DF8856047F0020746
:105548008DF88430022327F4806BFFF789B9804BEC
:105558001893DEE70C990A9828AA02F0B7FB0028EE
:105568007FF4C1A92A9C0DF1AC0818E440210A98DF
:10557800FEF718FD0C9B18601861002800F097854D
:1055880040230C9A5361FFF762B8102E40F37685DA
:10559800DFF8C091424648462146A846B9464FF032
:1055A800100B0746299B0A9C0C9D04E00832103E0C
:1055B800102E40F3138201331031072BC2E9007B10
:1055C800CDE92931F2DD2946204628AA02F07EFBE2
:1055D80000287FF488A9DDE929312BAAE7E72846C6
:1055E800CDF81C900E9402F00FFB20EAE0739DF8B2
:1055F80083200B90CDF83490CDF83C90CDF84C90AA
:10560800CDF840900693FFF713B9129B4246DDF898
:105618004C80EB185E460793CDF82CA010972146D6
:10562800199FDDF87090DDF828A0DDF830B00F9BE9
:105638001395B8F1000F2ED083BB013F08F1FF3856
:105648001B9B4944C2E90039299B2A910133072B46
:10565800299360DC0832079B38789B1B8342A8BFDC
:105668000346002B1C460BDD2998194401300728F6
:10567800C2E900632A91299000F31481387808322E
:10568800002CB4BF0546051B002D0BDC06440F9B00
:10569800B8F1000FD0D1002B00F026820F9B013B00
:1056A8000F93CDE7102D40F39D841024299804E032
:1056B800103D102D02F1080216DD0130254B103186
:1056C8000728C2E90034CDE92901F1DD59465046E1
:1056D80028AA02F0FBFA00287FF405A9DDE92901D0
:1056E800103D102D2BAAE8DC01301A4B294407285D
:1056F800CDE929015560136000F3418238780832FA
:105708000644C4E717F0100300F0A0800E9B53F87E
:10571800044B0E930AE75946504628AA02F0D6FAD7
:1057280000287FF4E0A82A992BAA94E700230BF419
:1057380080620696CDF82CA0CDF8348092461E469D
:10574800DDF8648054AF14E06766666620D100080F
:1057580034D1000864D100080023204649460A22B3
:10576800FBF768FA0A2C79F100031BD30446894633
:105778002F4620460A2200234946FBF75BFA3032BF
:105788007D1E013607F8012CBAF1000FE4D098F815
:1057980000309E42E0D1FF2EDED00A2C79F10003C2
:1057A80080F0308154AB5B1BDDF82CA0CDF8648011
:1057B80012965F46069EDDF834800B93FFF72BB8F0
:1057C8000C990A9828AA1D9302F080FA00287FF401
:1057D8008AA89DF883202A9C1D9B0DF1AC08FFF731
:1057E800B8B80123C8F80430299BBC4A01330134F6
:1057F800072B2A942993C8F8002000F3178108F191
:105808000808002940F08680129A07F00103134324
:105818003FF4E0A8169B17991A19C8E90013299BA9
:105828002A920133072B299300F3378108F10808DE
:10583800129901338C18072BCDE92934C8F8005088
:10584800C8F804107FF7C4A8FFF7ACBB17F04002F4
:1058580000F0A5800E9A994652F8044B0E92A4B215
:1058680064E6BB46FEF7CABF0C990A9828AA02F05C
:105878002DFA00287FF437A82A9C0DF1AC08FFF711
:105888007BBA14463A464F46914601332C44072BBF
:10589800C8F80090C8F80450CDE929347FF798A8D3
:1058A800FFF780BB5946504628AA02F00FFA002895
:1058B8007FF419A838782A992BAAE1E60C990A9856
:1058C80028AA02F003FA00287FF40DA82A9C0DF1FB
:1058D800AC08FFF765B8012BBB467FF4F5A9FEF7C6
:1058E80092BF0E9B089953F8042B554611600E93EE
:1058F800FFF78EB8062B294628BF06232A460795A8
:105908000D950693764D0E940B930F91139110916C
:10591800FEF78EBF169B17981A19C8E90003299B32
:105928002A920133072B299300F3B78008F108085E
:105938000029BFF67DAF4E42103180F2A98341465F
:105948001024A846DFF89C91DDF828B00C9D04E0EF
:105958000831103E102E40F3A78201331032072B76
:10596800C1E90094CDE92932F2DD2946584628AA32
:1059780002F0ACF900287EF4B6AFDDE929322BA994
:10598800E7E71446079F01362C44072ECDE9296422
:10599800C8F80090C8F804507FF7F5AA4EE417F449
:1059A80000790E9B66D053F8044B91460E93E4B2EF
:1059B800BCE517F400790E9B57D053F8044B914679
:1059C8000E93E4B2FEF749BF299ADFF81891FFF762
:1059D80095BA2D228DF88320FFF757B84546904693
:1059E8003A460C464F46914601333444072BCDE9DD
:1059F8002934C8F80090C8F804605CDC08F108088D
:105A0800FFF79EBB1C9B1B99ED1A1A46284602F00D
:105A180029F998F801300BB108F1010820464946E8
:105A28000A2200230026FBF705F99FE60C990A983D
:105A380028AA02F04BF900287EF455AF22992A9C37
:105A48000DF1AC08DDE6129AAE18A6EB0B06D51AD6
:105A5800AE42A8BF2E46FFF7A6BB52F8044B8946B4
:105A680001230E92E4B2FEF7FBBE53F8044B0E93EB
:105A7800FEF7F3BE53F8044B0E9357E50E9B0899B7
:105A880053F8042B554611800E93FEF7C1BF44F31B
:105A9800C0194B4664B2FEF7A4BE0C990A9828AA0E
:105AA80002F014F900287EF41EAFDDE929322299AC
:105AB8000DF1AC083CE70C990A9828AA02F006F9FF
:105AC80000287EF410AF2A9C0DF1AC08FFF738BB14
